:020000040800F2
:1010000000500020BDDF0008B9DF0008B7DF00088E
:10101000B7DF0008B7DF0008B7DF000800000000F6
:10102000000000000000000000000000B9DF000820
:10103000B9DF000800000000B9DF0008B9DF0008D0
:10104000B7DF0008B7DF0008B7DF00083D2400085D
:10105000B7DF0008B7DF0008B7DF0008B7DF000818
:10106000B7DF0008B7DF0008B7DF0008B7DF000808
:10107000B7DF0008B7DF0008B7DF0008B7DF0008F8
:10108000B7DF0008B7DF0008B7DF0008117B0008F2
:10109000F17A0008017B0008B7DF0008B7DF00081D
:1010A000B7DF0008B7DF0008B7DF0008B7DF0008C8
:1010B000B7DF0008B7DF000831240008B7DF0008F9
:1010C000B7DF0008B7DF0008B7DF0008B7DF0008A8
:1010D000B7DF0008B7DF0008B7DF0008B7DF000898
:1010E000B7DF0008B7DF0008B7DF0008B7DF000888
:1010F000B7DF0008B7DF0008B7DF0008B7DF000878
:10110000B7DF0008B7DF0008B7DF0008B7DF000867
:10111000B7DF0008B7DF0008B7DF0008B7DF000857
:10112000B7DF0008B7DF0008B7DF0008B7DF000847
:10113000B7DF0008B7DF0008B7DF00083D7B000815
:101140001D7B00082D7B0008B7DF0008B7DF000813
:1011500010B404466468084611461A46234610BC7B
:101160001847836818477047704770477047704743
:1011700041607047704770477047704770477047CD
:1011800070470020704700207047000000487047FB
:101190000000484200207047416070477047704728
:1011A0007047704770470020704741607047704734
:1011B0007047704770477047002070477047416024
:1011C00070470020704770477047704770477047FE
:1011D000002070477047416070477047002070479B
:1011E00070474160704770470846704770477047C6
:1011F0007047704700487047003C1C46416070478C
:10120000704770477047704770474160704770473C
:101210000020704700207047002070470020704772
:101220000020704770477047104B10B5186803686E
:101230001B6898470E4B186803681B6898470D4B4E
:10124000186803681B6898470B4B186803681B688D
:1012500098470A4B186803681B689847BDE8104018
:10126000074B186803689B68184700BF1C000020E4
:1012700018000020100000200C00002008000020B2
:101280000000002010B5174C206803689B69984740
:10129000052002F089F8062818D8DFE800F0040AD3
:1012A0000C0E1012200000220F4B1A700F4B2360FF
:1012B0000CE00F4BFBE70F4BF9E70F4BF7E70F4B3A
:1012C000F5E701220E4B23600E4B1A700E4C20687E
:1012D00005F0CCFB6068BDE8104005F0C7BB0B4BC8
:1012E000E5E700BF10000020BA270020CC26002030
:1012F000C4260020BC260020EC260020E426002086
:10130000A426002090270020AC270020DC26002007
:1013100010B5104C20680368DB699847042002F080
:1013200043F8042806D8DFE800F0030E0510120089
:10133000094B2360094C206805F098FB6068BDE804
:10134000104005F093BB064BF3E7064BF1E7064B65
:10135000EFE700BF0C000020D4260020AC270020BF
:101360009C260020942600208C26002010B5114CCD
:10137000206803685B689847062002F015F801387A
:10138000042813D8DFE800F0140E0E0310000A4BF7
:1013900023600A4C206805F069FB6068BDE81040D6
:1013A00005F064BB064BF3E7064BF1E7064BEFE7AE
:1013B000064BEDE704000020C8240020AC270020E5
:1013C000982400205C240020F0240020D024002059
:1013D00010B50B4C206803685B689847442001F007
:1013E000E3FF084A084B012808BF13462360074C57
:1013F000206805F03BFB6068BDE8104005F036BB97
:10140000000000204424002054240020AC270020A9
:10141000022010B501F0C8FF022811D0032811D016
:10142000094B0A4A012818BF1346094C094A20688B
:10143000136005F01BFB6068BDE8104005F016BBAB
:10144000054BF2E7054BF0E7342500203824002057
:10145000AC27002008000020282500201C250020A3
:1014600010B5012001F0A0FF08280FD8DFE800F038
:10147000171C250E05091F0E2200114B114A1A6078
:1014800004E00F4A104B136000229A720F4C206840
:1014900005F0ECFA6068BDE8104005F0E7BA084ACC
:1014A000094B13600122F0E7054B094AE7E7044BBB
:1014B000084AE4E7024B084AE1E7014B074ADEE746
:1014C00018000020042500203C270020AC27002025
:1014D0004C270020302700206C270020F824002013
:1014E000036810B59B6898470DF0BEFE00240146C6
:1014F0008E2001F079FF2146892001F083FF2146EB
:101500008A2001F07FFF21468C2001F07BFF2146DD
:10151000BDE810408D2001F075BF000010B51B4CD8
:10152000206803689B6A9847002001F03DFF082867
:101530000FD8DFE800F005080A0E271C2117290044
:10154000134B236005E0134BFBE71348206004F0C6
:1015500079FE124C206805F089FA6068BDE81040F9
:1015600005F084BA0C48206004F084FEF1E70A48D4
:10157000206004F041FEECE7094B01222360094B97
:101580001A70E6E7084BDCE7084BF6E71C00002082
:101590007C260020F42600200C270020AC27002009
:1015A0005C2600209027002084260020182400209C
:1015B00010B5124C206803681B6998474B2001F056
:1015C000F3FE02280DD0032812D008B90C4B23607B
:1015D0000C4C206805F04AFA6068BDE8104005F040
:1015E00045BA094B0948196820600AF079F8EFE715
:1015F0000122074B2360074B1A70E9E71400002013
:1016000054260020AC270020142400200C250020A4
:101610004826002090270020A72001F0DBBE000014
:101620002DE9F74F082001F0BFFE444C54F820107C
:101630000920019101F0B8FE54F820600A2001F061
:10164000B3FE54F820500B2001F0AEFE54F820A059
:101650000C2001F0A9FE54F820B00D2001F0A4FEEA
:1016600054F820900E2001F09FFE54F820701020B6
:1016700001F09AFE54F82080112001F095FE54F8F4
:101680002030019900932E4B18680368DB6A984755
:101690002C4B314618680368DB6B98472A4B594638
:1016A00018680368DB699847284B51461868036837
:1016B0001B6A9847264B4946186803681B69984778
:1016C000244B4146186803685B699847224B3146B2
:1016D000186803689B6998473946204808F0A2FEBD
:1016E0001F4B0099186803685B699847072001F051
:1016F0005BFE012802D1284603F06AF9072001F0B9
:1017000053FE022802D1284608F0D0F8072001F045
:101710004BFE032802D1284608F064FA002240F26A
:101720000161606805F085F9002240F201612068DE
:1017300003B0BDE8F04F05F07CB900BFAC27002036
:101740001C00002018000020100000200C000020C9
:101750000400002000000020080000204024002099
:101760001400002038B540F2DF73984204460D465D
:1017700006D10A4601462C4808F05CFE002038BD20
:10178000072001F011FE012803D12946204603F06D
:10179000FDF9072001F008FE022803D12946204662
:1017A00008F0C4F8072001F0FFFD032803D1294603
:1017B000204608F047FA1D4B2A4618682146036860
:1017C000DB6898471A4B2A461868214603681B694C
:1017D0009847184B2A461868214603681B699847A2
:1017E000154B2A461868214603681B699847134B16
:1017F0002A461868214603681B689847104B2A46FA
:101800001868214603681B6898470E4B2A461868DB
:10181000214603681B6998470B4B2A4618682146E6
:1018200003681B689847A9E7402400201C0000209B
:1018300018000020100000200C00002004000020F0
:1018400000000020080000201400002008B5084B0C
:10185000186899889B792BB10BF0FBFEB0FA80F0E9
:10186000400908BD0BF0F5FE003818BF0120F8E76D
:101870000C2A0020818800680BF0E6BE8188006891
:101880000BF0E4BE2DE9F74F942001F08DFD814669
:10189000792001F089FD04469D2001F085FD074671
:1018A0000CF0B8F805F074FEA34BDFF890821868CE
:1018B00003685B689847792001F076FD01280546AA
:1018C00040F0B4800FFA89F989EAE970A0EBE97079
:1018D00080B206F0B5FC002106460DF087FC98B1F9
:1018E000002001F061FD04280ED01E2001F05CFDF7
:1018F000002840F09580B9F1000FB8BF4FF0FF35D8
:10190000BD4218BF06F1004638460DF07DFA31465B
:101910000DF0CEFA0546D8F8000003685B689847DA
:10192000D8F8000029460368DFF814A21B6998471D
:10193000D8F80000834E03681B6A98470DF094FCAA
:1019400005B22946942001F04FFD082001F02CFD3E
:101950005AF8200006F0B6F9012C01D0042C08D169
:10196000306885EAE5710368A1EBE5719B6989B28E
:10197000984737689E203B68D3F81C9001F01CFD07
:1019800001463846C847306803685B6898476E4B25
:1019900018680368DB6898476C4B186803685B68D5
:1019A0009847042C46D16A4B186803685B689847CF
:1019B000284606F009FB0746972001F0F5FC814612
:1019C000132001F0F1FC8346342001F0F5FC019076
:1019D000242001F0F1FC39460DF026FC3946B0FA1E
:1019E00080F501980DF00CFCB0FA80F3D945D4BF16
:1019F0004FF000094FF001096D095B09ED0045EA60
:101A0000830545EA891529467C2001F0EDFC042C6C
:101A100073D8DFE814F025003B01B3001701320151
:101A2000B9F1000FA8BF4FF0FF3569E706F0BEFC23
:101A3000002575E7052001F0B7FC032804D1444BCD
:101A4000186803685B689847012CB1D1D12001F078
:101A5000ABFC411C01F00F01D12001F0C5FCA7E750
:101A60000025DFF8F0803C4F3C4888F800503D707E
:101A7000FFF704FF3A48FFF701FF3A48FFF7FEFE81
:101A80003948FFF7FBFE3948FFF7F8FE29469D204D
:101A900001F0AAFC3068DFF8D89003685B699847CA
:101AA000972089F8005001F07FFC0546132001F0D3
:101AB0007BFC854213DA306803689B6B984770B1F2
:101AC000306803685B6B984748B1012489F800408F
:101AD0000BF0A0FF88F800400224264B1860264B2C
:101AE0001B7833B10BF096FF224B022418600123C0
:101AF0003B702146792001F077FC072001F054FC6F
:101B0000022807D10A2001F04FFC5AF82010204685
:101B100007F01EFF072001F047FC032840F0C880B3
:101B20000A2001F041FC5AF82010204603B0BDE81D
:101B3000F04F08F0C3B800BF0C0000201C000020CC
:101B4000AC27002018000020000000200800002022
:101B50001000002092270020912700206C290020EF
:101B6000AC2900209C2900205C290020A429002009
:101B70009427002010240020BA270020DFF8389195
:101B800099F80030002B48D1D8F800204B4B9A42EE
:101B900002D04B48FFF76EFE4A48FFF76BFE4A48FB
:101BA000FFF768FE4948FFF765FE4DB9484B1A78C4
:101BB000002A3DD029467E201D70012401F014FC2E
:101BC000444B1B7823B199F80030002B08BF002448
:101BD000414B1B7833B1306803685B6B9847002832
:101BE00008BF0024342001F0DFFB0DF00DF9394669
:101BF0000DF01AFB00283FF47CAF0BF00BFF374BC6
:101C00001B68053398427FF674AF3048FFF736FE05
:101C1000032005F0C3FC03246BE7072001F0C4FB9D
:101C20000028B9D1D8F800202D4B9A42B4D1B0E7A2
:101C300099F80030002BC3D029467E2001F0D4FB58
:101C40000424BDE70022224B20481A70FFF716FE3D
:101C5000204B1B7823B1184B1B78002B08BF0024A6
:101C60001D4B1B78002B3FF444AF306803685B6B5F
:101C70009847002808BF00243BE71A48FFF7FAFD01
:101C800005F0AEFC0C4B1C78A40032E71548FFF7BA
:101C9000F1FD0B48FFF7EEFD0121792001F0A4FBD7
:101CA00005F09EFC306803685B6B9847044620E7AC
:101CB00003B0BDE8F08F00BFBA27002084260020C3
:101CC0006C2900209C2900205C290020A4290020E8
:101CD0009427002091270020922700201024002024
:101CE000F4260020AC290020818800680BF0B4BCE9
:101CF0002DE9F0416248FFF7F7FF0BF0B7FC614BAD
:101D0000614E186801F01DFB0DF07EF85F490DF083
:101D100083F90146D22001F075FB05F06DFC014608
:101D20007B2001F061FB792001F03EFB584C074617
:101D30003168206806F0CAF8072001F035FB08B1C9
:101D400006F040FB2068534D03689B6A98470146A4
:101D5000A52001F049FB20680368DB6A984701462B
:101D6000A32001F04FFB06F05FFB286803689B6827
:101D70009847206803689B689847474B1868036832
:101D80009B689847454B18680368DB689847444B45
:101D9000186803681B699847306803689B68984710
:101DA000404B186803689B6998473F4B186804F0DC
:101DB000ABFE3E4B1B780BB10AF0FEF928683C4E97
:101DC00003689B69984701469E2001F01BFB286829
:101DD00003685B69984701469F2001F013FB286860
:101DE00003685B6A98470DF00FF80146B32001F0D5
:101DF00009FB28682F4D0368DB699847014683205B
:101E000001F000FB206803685B6B98470146B22035
:101E100001F0EAFA284BA020196801F0E5FA274BF7
:101E20001B78012B03D0042B01D02B781BB1306819
:101E300003689B6898473068DFF88480036898F8E7
:101E400000105B699847044640B1012F1EBF012274
:101E50001C4B1A7001232B70BDE8F0812B7833B135
:101E600001467A2001F0C0FA164B2C701C703068C5
:101E700098F8001003689B699847134B1870EBE7BC
:101E8000BC290020BC2700200800002000002041C1
:101E9000180000201C00002010000020040000207A
:101EA0000000002014000020A82700209027002018
:101EB0000C000020B9270020502C0020A62700206D
:101EC000A4270020BA27002093270020000000004C
:101ED0002DE9F347792001F067FA044660B97120D3
:101EE00001F062FA40B1A448FFF7FEFEA348FFF7F5
:101EF000FBFEA348FFF7F8FEA24BDFF88C821868C0
:101F00000368DB689847042C04D1D8F80000036804
:101F1000DB68984706F00CFB9C4BDFF874A219684D
:101F2000C6209C4F01F060FAC720DAF8001001F0DB
:101F30005BFAC820396801F057FA974B974E196839
:101F4000C920DFF85C9201F04FFACA20318801F015
:101F50004BFA0AF0D3F80AF0F3F899F80030914DF3
:101F6000022B2ED1904B1B785BBB042C1AD1DFF8CF
:101F70003CA28F4FDAF80030002B41D100235520CE
:101F80002B7001F011FA4FF496735843CAF8000011
:101F90003B68B3F5967F14D100233B603388013B47
:101FA00033800EE0834ADAF8003012789A4225D165
:101FB000814A3B6812789A4220D13388F3B10123D9
:101FC0002B7099F8003023BB774B1B780BB901239A
:101FD0002B70D8F80000794A036812785B69297879
:101FE000984708B1012C18D1754B1E78DEB93146DF
:101FF0007A2001F0F9F9734B1E7014E00023DFE73B
:102000003A68013B0132CAF800303A60002BBFD178
:10201000B4E7012BDDD10023DAE70121694B7A20F7
:10202000197001F0E1F9684F3B78012B02D9033BAD
:10203000012B0AD8654E30680368DB6898473B7807
:102040001BB930680368DB689847042C29D15C4BC6
:102050001E781EBB7F2001F0A7F90446392001F04D
:10206000A3F984420CDB852001F09EF904463B2055
:1020700001F09AF98442DFBF01224B4B2E701A7097
:10208000534B186803689B68984700210DF0A4F82B
:1020900020B1002301222B70434B1A7002B0BDE81F
:1020A000F087012CFAD100223F4B9D201A7001F0DD
:1020B0007BF900284BD001284BD0013014BF0023FE
:1020C000A8238DF801304FF480530022414CADF825
:1020D0000230414B20688DF80020019303686A4666
:1020E0004FF400715D680823A847942001F05CF963
:1020F00005469D2001F058F900284FF0B400B8BF04
:102100006D4201F067F930BB28460CF0AFFA16A318
:10211000D3E900230CF014FB0CF024FD4FF4B07352
:10212000ADF800304FF440535843252390FBF3F0B3
:1021300020302A4B40BAADF80200206801930368B2
:102140006A465C6840F224510823A047A6E7802332
:10215000B7E7A823B5E728460CF088FA04A3D3E92B
:102160000023D7E7AFF30080EE8D960DAF47803F99
:102170009573522D5CB5903F9C290020A429002026
:10218000AC29002018000020100000208C2700201F
:10219000882700208427002080270020A0270020F7
:1021A000A5270020A4270020B82700209C27002076
:1021B00098270020A3270020A22700209327002093
:1021C000B9270020BA270020A62700200C000020F5
:1021D00004000020AC270020003BD0005A01C002C0
:1021E000FEE700000C2838B510D80C2816D8DFE818
:1021F00010F0C800CB00DD001500D100CE00D700E4
:102200001500E000E000E000E000E0004B2800F0F6
:10221000C48000F2AA80442800F0C5801E2001F08E
:10222000C3F840B1002001F0BFF8082803D0002116
:102230001E2001F0D9F8132001F0B6F8614D624C70
:102240002860142001F0B0F82060152001F0ACF8EF
:102250006860162001F0A8F86060172001F0ACF863
:102260005A4D5B4C2860182001F0A6F820602E2003
:1022700001F0A2F8574B2168186028680CF0B6FFEF
:1022800050B1554917202960544D256001F0BAF826
:102290002946182001F0B6F8192001F08DF8504BAE
:1022A000504C1860292001F087F84F4B18602A2005
:1022B00001F082F84D4B18602C2001F07DF84C4B5A
:1022C0001860212001F070F84A4B18601B2001F0C3
:1022D00073F8494B18601F2001F06EF8474B1860E7
:1022E0002B2001F069F8464B18601A2001F064F8C1
:1022F000444B1860052001F057F8042001F054F811
:10230000414B18702378012B22D1522001F04CF858
:102310003E4B1860512001F047F83D4B18605020AB
:1023200001F042F83B4B18604F2001F03DF83A4B6A
:102330001860532001F038F8384B1870542001F021
:1023400033F8374B1870552001F02EF8354B1880B4
:10235000402001F029F82070552001F025F84FF4B5
:1023600096735843304B186038BD612805D85E28F5
:102370007FF654AF00F034FE50E772380428F9D9E4
:102380004CE7FFF7CBF849E7FFF76AF846E7FEF7B7
:1023900079FF43E7FEF7BCFF40E7FFF709F93DE7A8
:1023A000FEF7E4FF3AE7FFF713F837E7FFF730F8F7
:1023B00034E71E4C206804F059FB606804F056FBBB
:1023C0002CE700BF482C0020402C00203C2C002093
:1023D000382C0020EC2B00200080BB440000C842B9
:1023E000342C0020A5270020182C0020102C0020C1
:1023F0000C2C0020F02B0020082C0020042C0020A6
:10240000142C0020302C0020A6270020802700203C
:1024100084270020882700208C270020A327002065
:10242000A2270020A02700209C270020AC27002006
:10243000014B186800F04EBFBC27002008B50020F3
:102440000BF024FB104B1A6801323B2A1A600F4A2A
:1024500005D911680131116019683C391960136898
:102460003B2B0B4B05D919680131196011683C39B8
:1024700011601A68172A06D906490A6801320A60EB
:102480001A68183A1A6008BD8027002084270020A7
:10249000882700208C270020F0B5ADF68C2D00F0A9
:1024A000E5FB00F013FD0022C149C24801F092FE95
:1024B0000422BF49C04801F08DFE0522BC49BF4837
:1024C00001F088FE0022BE49BE4801F083FE0122D1
:1024D000BB49BD4801F07EFE0222B949BB4801F06C
:1024E00079FE0322B649BA4801F074FE0E22B449BF
:1024F000B84801F06FFE04234022B749B74801F005
:10250000D6FB04238022B449B54801F0D0FB042354
:102510004FF40042A649B34801F0C9FB042310223E
:10252000B149B24801F0C3FB04230822AE49B048C8
:1025300001F0BDFB04234FF40052A749AD4801F060
:10254000B6FB04234FF48042A349AB4801F0AFFB34
:1025500004234FF40042A049A84801F0A8FB04233B
:102560000122A749A74801F0A2FB04230222A449A3
:10257000A54801F09CFB07230422A149A34801F0D0
:1025800096FB072308229E49A14801F090FB0723F0
:1025900080228B499F4801F08AFB0723402288490B
:1025A0009D4801F084FB0723202285499B4801F0C8
:1025B0007EFB072301228849994801F078FB072315
:1025C00002228549974801F072FB0125072320224A
:1025D0008B49954801F06BFB072320227E499348E5
:1025E00001F065FB072310227B49914801F05FFB56
:1025F00007234FF480726E498E4801F058FB072381
:1026000080227F498C4801F052FB07234FF48072EF
:1026100071498A4801F04BFB07231022784988480A
:1026200001F045FB072380226F49864801F03FFBFC
:10263000072304226849844801F039FB0723082254
:102640006549824801F033FB07234FF480426C490F
:102650007F4801F02CFB07234FF4005258497D4876
:1026600001F025FB07234FF480525B497A4801F0C3
:102670001EFB07234FF400725149784801F017FB05
:1026800007234FF480724E49754801F010FB072371
:102690004FF480625A49734801F009FB07234FF455
:1026A00000625749704801F002FB07234FF4805243
:1026B00053496E4801F0FBFA07234FF4005250498A
:1026C0006B4801F0F4FA07234FF4806242496948ED
:1026D00001F0EDFA07234FF400723F49664801F01C
:1026E000E6FA07234FF400623B49644801F0DFFA41
:1026F000072340224249624801F0D9FA07234022C9
:102700002B49604801F0D3FA0723802228495E480C
:1027100001F0CDFA0723012233495C4801F0C7FAE2
:102720000723022230495A4801F0C1FA07234FF427
:1027300000723349574801F0BAFA04234FF40042BB
:102740001F49554801F0B3FA01F094FC53494FF08A
:1027500000700AF06FFF00F047FB00F077FB04F019
:10276000E8FE00F0E3FA00F00FFB00F039FCDE2099
:10277000FFF738FD2F48FFF781F8C4AC0023484A23
:102780004849009539A800F0DFFE0DF26C57002390
:1027900002222046444905F003F9022243492B4610
:1027A000384605F0FDF8424B0F20049382E000BF4D
:1027B00000080140302A00202C2A0020282A00206E
:1027C00000100140242A0020202A00201C2A00207A
:1027D000182A0020142A0020001401400C2A00208E
:1027E000042A0020FC290020000C0140F4290020CC
:1027F000EC290020E4290020DC290020D429002035
:1028000000180140CC290020C4290020BC29002048
:10281000B4290020AC290020A42900209C290020F4
:10282000942900208C290020842900207C29002064
:10283000742900206C290020642900205C290020D4
:10284000542900204C290020442900203C29002044
:10285000342900202C290020242900201C290020B4
:10286000142900200C29002004290020FC28002025
:10287000F4280020EC280020E4280020DC28002098
:10288000D4280020CC280020C4280020BC28002008
:10289000B4280020AC280020A4280020C00040005C
:1028A000240C01080048004000640040006800401B
:1028B000B0F30008454B464E0593464B069300F097
:1028C00073FD2A46002814BF394621460DF5F960EC
:1028D00004F0AAFD0DF5F962214619A807F080FE63
:1028E000294619A807F098FE204604A9C6E9004722
:1028F00004F090F804A9384604F08CF8364B0DF536
:10290000F9621A60354B0A201A6000F04DFD56F846
:1029100020700E2000F048FD07AC56F8201030481B
:1029200007F080FD4FF496422E49204608F04EFDF8
:102930002D4B1C600FACFEF7F1FDFEF791FDFEF78D
:10294000A1FCFEF7E5FCFEF711FDFEF731FEFEF7F8
:102950003FFDFEF75DFD2549204600F065FC244B58
:102960002A46204623491C6000F07EFC0A222046AD
:10297000214900F079FC64222046204900F074FCD3
:10298000C82220461E4900F06FFC702000F00CFDAC
:10299000A84202D1384602F07DF80421782000F0E8
:1029A00023FD0021792000F01FFD4FF0000439A81D
:1029B0008DF80F4000F082FF1E9B002BF7D10DF128
:1029C0000F011AA805F08EFFF1E700BF6517000898
:1029D000AC27002021160008902D0020A8270020F9
:1029E000402400200038014014240020000800404A
:1029F000BC2700202912000885180008F11C0008D7
:102A0000D11E000810B500244D4B4E4A1C741A60AC
:102A10004D4B4E4A1C771A601C81DC724C4A4D4B60
:102A20004D481A604D4B4E4A1A604E4B4E4A1C623E
:102A30001A601C774D4A4E4B1A604E4B4E4A1A6034
:102A40004E4B4F4A1A604F4B4F4A1A604F4B504AF9
:102A50001A60504B504A1A60504B514A1A60514B01
:102A6000514A1A60514B524A5C751A60DC82514AD5
:102A7000514B1A60514B524A1A60524B524A1A60DB
:102A8000524B534A1A60534B534A1A6003F0A6FF45
:102A9000524B534A53491A60534B544A54481A6094
:102AA000544B554A1A60554B554A1A60554B564A75
:102AB0001A60564B564A1A60564B574A1C721A6097
:102AC000564B574A1A60574B574A1A60574B584A49
:102AD0001A60584A584BC2E902441360002313613C
:102AE00053619361D361554A1160554A5549C2E912
:102AF00004441160C2E90644136253629362D362D4
:102B00005149524AC2E902441160C2E90444D36106
:102B1000136253629362D362136353634C4B148307
:102B200093634C4B4C4A1A604C4B4D4A1C731A60D1
:102B30004C4B4D4ABDE810401A6008F041BC00BF44
:102B40006C2700201C1201084C270020B80C01083B
:102B50006C0E01083C2700205C2600203027002056
:102B6000B40E01080C270020000D010864100108B4
:102B7000F4260020EC260020F4100108E4260020B2
:102B800020110108DC260020B4120108D426002000
:102B9000E4F30008CC26002010F40008C42600202E
:102BA0004C110108BC260020C8100108A4260020F2
:102BB000B01101089C1001089C26002094260020DA
:102BC000881201088C260020141401088426002095
:102BD000FC0E01087C260020C0F4000854260020CA
:102BE0003CF40008C81401084826002048150108D4
:102BF00018240020402600209CF4000834250020E2
:102C000064120108282500206C1301081C250020EF
:102C1000901301080C25002048130108042500200A
:102C2000F8F40008F8240020E4140108F02400203F
:102C300060F40008D024002094110108C82400206A
:102C400098240020781101082C1501085C2400202C
:102C50000000FA43542400207CF40008442400209F
:102C6000FC11010838240020C0F3000808B50AF060
:102C70000BFE02200AF0E0FD4FF0E0232A4A40F26A
:102C80000230C3F80C2D0AF043FE40F203300AF084
:102C90003FFE4FF441700AF03BFE40F205300AF06F
:102CA00037FE40F206300AF033FE40F292300AF06E
:102CB0002FFE40F291300AF02BFE40F20E300AF067
:102CC00027FE40F20B300AF023FE4FF460700AF04A
:102CD0001FFE40F281300AF01BFE40F282300AF003
:102CE00017FE4FF420700AF013FE40F209300AF08C
:102CF0000FFE40F286200AF00BFE4FF440700AF0FF
:102D000007FE40F299300AF003FE40F29A300AF0D2
:102D1000FFFD40F28E300AF0FBFDBDE8084040F2B6
:102D20008F300AF0F5BD00BF0003FA0573B500242B
:102D3000134D2346224620212846CDE900440AF0BF
:102D40001BFF214628460AF00FFF0E4E28460AF0C8
:102D5000FDFE28460AF003FF30464FF420430222CE
:102D600003210AF037FC30464FF48043012221460C
:102D70000AF030FC284602B0BDE870400AF0DABE26
:102D800000380040000C014073B50024144D4FF092
:102D900080514FF000700AF04DFC2346224620215E
:102DA0002846CDE900440AF0E7FE0E4E28460AF018
:102DB000CDFE28460AF0D3FE30464FF4A05302223F
:102DC00003210AF007FC30464FF40063012221463C
:102DD0000AF000FC284602B0BDE870400AF0AABE26
:102DE000003C00400010014010B5164C0423204662
:102DF000022203210AF0EEFB0823012220460021D3
:102E0000A4F544440AF0E6FB20460F490BF072F8A3
:102E1000204608210BF082F8204600210BF087F8AD
:102E200020460C210BF08FF8204600210BF085F88E
:102E3000204600210BF08DF82046BDE810400BF035
:102E40008EB800BF0008014020A1070008B511207E
:102E50000BF020F9F02111200BF028F910200BF0D5
:102E600019F9F02110200BF021F91E200BF012F9B6
:102E700000211E200BF01AF914200BF00BF9E021B1
:102E800014200BF013F913200BF004F9E0211320A8
:102E90000BF00CF928200BF0FDF84FF400400AF07D
:102EA0008FFA01214FF400400AF066FA06494FF408
:102EB00000400AF093FA03200BF0ECF8BDE808405C
:102EC000202103200BF0F2B80018014008B54FF2A2
:102ED000234103200AF014FE00200AF0A5FD002083
:102EE0000AF0D4FDBDE8084000200AF0ADBD0000A6
:102EF000022210B5174C11464FF4007316480AF021
:102F000069FB20460AF080FE002320221946204655
:102F10000AF053FE204620210AF07BFE07222046BD
:102F200000210AF07AFE002120460AF07BFF2046AD
:102F30000AF0D2FF20464FF4C87200210AF0BCFF0D
:102F400020464FF488610AF066FE2046BDE8104036
:102F50000AF055BE002C01400018014008B50223BC
:102F600003211A461D480AF035FB4FF080400AF055
:102F70004BFE00234FF080401A4619460AF01DFE12
:102F800000214FF080400AF044FE4FF080400AF0EC
:102F90001DFE4FF080400AF02DFE8F214FF0804043
:102FA0000AF039FE02214FF080400AF060FF06224D
:102FB00002214FF080400AF030FE02214FF08040A5
:102FC0000AF030FF4FF08040482202210AF074FFDF
:102FD000BDE808404FF080400AF011BE00080140F3
:102FE000612038B500F0E0F9102808D10222012351
:102FF000114687480AF0EEFA002425460DE06120CC
:1030000000F0D2F9112840F09280022201231146EB
:103010007F480AF0DFFA00240125602000F0C4F99F
:10302000102840F0998002228023114679480AF046
:10303000D1FA5F2000F0B8F9102840F0AE800222EB
:103040004023114673480AF0C5FA73480AF0DCFDC4
:10305000002171480AF0BFFD6F480AF0B7FD062253
:1030600000216D480AF0D9FD062202216A480AF0C3
:10307000D4FD0622042168480AF0CFFD00216648ED
:103080000AF091FE022164480AF08DFE0421624894
:103090000AF089FE002160480AF09FFE02215E4886
:1030A0000AF09BFE04215C480AF097FE00215A4872
:1030B0000AF0B8FE022158480AF0B4FE042156482E
:1030C0000AF0B0FE002D40F08980002C40F0868090
:1030D000732000F069F901464F480AF09CFD742006
:1030E00000F062F9214602464B480AF0E5FE7520E1
:1030F00000F05AF90221024647480AF0DDFE762028
:1031000000F052F90421024643480AF0D5FE01219D
:1031100041480AF0E6FE722000F046F901463E48BA
:103120000AF077FDBDE838403B480AF068BD6120F1
:1031300000F03AF9122808D102220123114634483E
:103140000AF048FA0124002567E7072301223049E5
:10315000324800F0ACFD4FE7602000F025F911285F
:1031600007D10222802311462A480AF033FA0125AA
:103170005FE7602000F018F9122807D102228023AF
:10318000114624480AF026FA012452E70723802238
:103190002049234800F08BFD4BE75F2000F004F945
:1031A000112807D10222402311461A480AF012FAC8
:1031B00001254AE75F2000F0F7F8122807D1022224
:1031C0004023114613480AF005FA01243DE707237E
:1031D00040221049134800F06AFD36E741F68C1191
:1031E0000D480AF018FD012200210B480AF064FE88
:1031F0000122022108480AF05FFE0122042106484C
:103200000AF05AFE012104480AF06BFE0A2186E703
:10321000000C01400008014000040040BC280020D0
:10322000C4280020CC28002038B50C460546016291
:1032300008460AF0CBFC20460AF0D7FC084B204693
:103240001968084BB1FBF3F101390AF0E2FC2046A2
:103250004FF6FF710AF0DFFC002328466B6238BD91
:10326000C0220020A0860100F8B5436A0446032B63
:103270000E4615462ADC006A0AF0C6FC144F636A43
:103280000122F95C206A0AF0C8FC636A0022F95C3A
:10329000206A0AF011FE0221636A05EB850505EB41
:1032A000850503F10802AD0044F82360994024F835
:1032B0001250206A0AF074FC0021206A0AF017FEFE
:1032C000206A0AF09CFC636A01336362F8BD00BFA8
:1032D00038F500082DE9F843044600254FF00208B0
:1032E00000F11006636A206AAB4208FA05F70ADCAF
:1032F0003946206A0AF05EFC0135042D06F102060B
:10330000F0D1BDE8F88339460AF04EFCA8B1206A36
:103310000AF0EBFD236A3188343353F825208146C7
:103320000A4443F8252054F825309847206A0AF0CB
:10333000DCFDA0EB09003081DAE7636AAB42DBDC3D
:10334000D6E7002170B500F10E03446A4FF47A7598
:1033500008468C4200DC70BD5A8933F8026F6A431C
:10336000B2FBF6F201311044F3E7000010B51C2463
:10337000084A04FB0022D4688C4209DC12698A42A4
:1033800006DB054A42F82010FEF72CFF002010BD96
:10339000FF20FCE79803002020000020014B53F899
:1033A0002000704720000020024B53F820004011FD
:1033B000704700BF2000002008B5054B53F82000DF
:1033C0000BF022FD4FF074510BF072FD08BD00BFF1
:1033D00020000020034B53F820004011431E5842A8
:1033E0005841704720000020024B490143F820104B
:1033F000704700BF20000020014B43F820107047A9
:103400002000002010B5044608464FF084410BF020
:103410004FFD0BF029FF024B43F8240010BD00BF05
:103420002000002070B506460024074D314668682C
:1034300000F098FB08B9E0B270BD0134DE2C05F154
:103440001C05F3D1DF20F7E7980300200023064A8C
:10345000118B814201D1D8B270470133DE2B02F1CA
:103460001C02F5D1DF207047980300201C22024B7C
:1034700002FB0030704700BF980300200023064A7B
:103480000649108B10B1506941F823000133DE2B3F
:1034900002F11C02F5D170479803002020000020A3
:1034A000014B1954704700BFC0270020024B1A5C23
:1034B00011431954704700BFC0270020024A135C13
:1034C00023EA010313547047C0270020014B185C06
:1034D000704700BFC02700201C22024B02FB0033B4
:1034E000987E704798030020004870479D53030062
:1034F000024B1A68024BC3F87C2D7047B4210020A0
:1035000098030020202180680AF04FBD80680AF0EF
:1035100044BD10B504464368597A586809F003FF62
:10352000636804F12A02597A586809F00EFF63684B
:103530008022597A586809F018FF6368BDE8104086
:10354000597A586809F0E6BE70B5026140F201127E
:103550000D464C498282016001210022817580F86C
:10356000281004460421C0E9062280F82020426287
:103570009DF81020856080F82920434A037342603B
:1035800062681068A84206D1404A146062683BB97C
:10359000D068138A06E01C3201396260F0D1F3E78B
:1035A0005069138B022203210AF014F828464FF4C5
:1035B000E1310AF09FFC284608210AF0AFFC2846BA
:1035C0004FF400510AF0B3FC28460C210AF0BBFC72
:1035D000284600210AF0B1FC002128460AF0B9FC77
:1035E00028460AF0CCFC28460AF0CEFC63682E1D63
:1035F000197A586809F024FE6368197A586809F046
:1036000080FE63683246197A586809F095FE63684F
:103610000022197A586809F049FE63680022197A75
:10362000586809F037FE6368197A586809F04AFE4D
:103630006368597A586809F003FE63683246597A1C
:10364000586809F079FE63680022597A586809F0D1
:103650002DFE63680022597A586809F01BFE6368E2
:10366000597A586809F02EFE63685868597A09F04B
:1036700051FE2046FFF74DFF28460AF070FC204619
:1036800070BD00BFB00B0108B40B0108A0280020DA
:1036900038B5437D0D4604691BB90024204638BD6A
:1036A0000834216821B1284600F05CFA0028F7D1DF
:1036B0002368002BF2D1F0E738B504460D46636865
:1036C0000222197A586809F0D0FD18B994F8283008
:1036D000002BF4D06368197A586809F024FE6368F7
:1036E000AAB2197A586809F040FE94F8202063685D
:1036F00004EBC212197A5868AA3209F026FE6368F0
:103700000222197A586809F0ABFD6368197A586883
:1037100009F000FE94F82030B3FA83F35B0984F8D3
:103720002030002384F8283038BD837D10B50A4648
:10373000044623B9BDE8104080680AF015BC94F82F
:103740002030406ADB01234403440A2A00F10101CE
:1037500083F8AA2001D07F2805D12046FFF7ACFFCF
:103760000023636210BD6162FCE7802A30B428BF89
:1037700080220C460021914202D130BCFFF79CBF51
:1037800090F82030655C00EBC3130B4483F8AA501B
:103790000131F0E738B5054608460C4600F0F9F966
:1037A000214602462846BDE83840FFF7DEBF00004C
:1037B00010B50446084600F03FFA00F024FA237DD5
:1037C000227B8342636811D1012161755AB1586926
:1037D0001B8B0321022209F0FDFE2046BDE81040AC
:1037E0000949FFF7D7BFD8681B8AF2E70021617546
:1037F0003AB158691B8B0122BDE81040002109F045
:10380000E9BED8681B8AF6E77305010830B504469F
:1038100085B0084600F010FA0378302B26D0322B02
:10382000144D18BF4FF46125637DA3B10A222946C8
:1038300001A800F0BDF920460F49FFF7ABFF204675
:103840000E49FFF7A7FF204601A9FFF7A3FF204677
:103850000B49FFF79FFF2946A0680AF04BFB0021A8
:10386000A06805B0BDE830400AF061BB4FF4E13517
:10387000DAE700BF1055220072050108780501083B
:10388000440B010810B50446084600F0D5F903784A
:1038900023B1303B18BF012384F8293094F8293034
:1038A0002BB104492046BDE81040FFF773BF024921
:1038B000F8E700BF87050108910501082DE9F041EF
:1038C00043680446597A586809F048FD0546C0F136
:1038D000800710B92046FFF71CFE94F82930A06835
:1038E00013B1E369BB4254DB08210AF05EFB10B15F
:1038F000A0680AF052FB002F40F39280651B95F8F8
:10390000A9300A2B01D00D2B77D16368597A5868FA
:1039100009F009FD012F37D00022E31904F12A062E
:1039200083F82A2020213046E26100F039F990F82E
:1039300000800546B8F1000F33D10A21304600F06F
:103940002FF9054684F8AA812B7823B90D2130463A
:1039500000F026F90546002330462B703149A3615B
:1039600000F000F918BB204604F5D571FFF720FFE1
:103970000027A369BBB3A0680AF013FBA369204624
:103980005B6804F5D57198472046BDE8F041FFF724
:10399000C0BD5A1CE261234493F82A100AF0E4FAED
:1039A0009BE7411C04F5D57000F0EAF8CCE73046FF
:1039B0001D4900F0D7F828B9204604F5D571FFF766
:1039C00025FFD5E73046194900F0CCF828B9204644
:1039D00004F5D571FFF756FFCAE731462046FFF7D9
:1039E00057FEA061C5E7012FCEDD637D002BCBD054
:1039F00020460F49FFF7CEFEC6E794F82A30212B68
:103A00000ED1A36963B12046FFF783FD0023E36174
:103A1000A369204604F5D5715B68BDE8F0411847FD
:103A2000BDE8F0819C050108A7050108B005010863
:103A3000B5050108034BC1B21B681A681846126825
:103A4000104700BFA028002003F0F2BD07B50749CA
:103A5000D1F8F027D1F8EC37D1F8E81700910449F4
:103A600000F0FAFA03B05DF804FB00BF00F0FF1F9E
:103A7000D005010804F036BFF7B5144800F0DAFAB3
:103A8000134800F0D7FA0025124FEEB23046FFF788
:103A9000EDFC04463046FFF71FFD68B93046FFF7DE
:103AA00015FDC3070DD46369384600936168D4E9F6
:103AB000032300F0BFFA04E03046FFF70DFD0128B4
:103AC000ECD00135DE2DE0D103B0F0BDD905010801
:103AD000F00501080C060108F8B50C4900F0BCFA25
:103AE00000240B4FE6B23046FFF7C0FC05463046D7
:103AF000FFF7ECFCC30704D4D5E90112384600F007
:103B000099FA0134DE2CEDD1F8BD00BF1F06010883
:103B1000410601082DE9F041054600240A4FE6B2AE
:103B20003046FFF7A3FCD0F804803046FFF736FCA0
:103B30000134034642463946284600F08DFADE2C11
:103B4000EDD1BDE8F08100BF4B06010810B5044679
:103B5000FFF794FC2046BDE81040014900F07CBA14
:103B600054060108431E013913F8010F11F8012F03
:103B700010B10AB19042F7D0801A18BF01207047E7
:103B8000013911F8013F0BB90370704700F8013B90
:103B9000F7E7034600201A5C02B970470130FAE7E4
:103BA0000346184613F8012B0AB18A42F9D170472F
:103BB000002970B518DA2D23012400F8013B494291
:103BC000034691FBF2F602FB161130311970311EDB
:103BD0001D4603F10103F4DC00221A7002469542EF
:103BE0000AD8241A181904E004D130234170037054
:103BF000012070BD0024E3E711782E7802F8016BF4
:103C000005F80119EBE730B503782D2B11D14FF0F2
:103C1000FF34013000210A25431E01E005FB01218C
:103C200013F8012F303AD0B20928F7D904FB01F07C
:103C300030BD0124EEE7000010B5134C014610F82A
:103C4000012BA2F10A03DBB2162B19D824FA03F3D5
:103C5000DA07F3D40846FFF79CFF01380844814295
:103C600004460AD2237801380A3BDBB2162B04D86B
:103C7000054A22FA03F3DB07F1D40023637001E065
:103C8000002AE7D1084610BD09004000002310B506
:103C9000934200D110BD51F8234040F82340013336
:103CA000F6E7013A00D2704740F8041BF9E72DE926
:103CB000F041174682800022013B0E46016082716E
:103CC000082B0BD8DFE803F0080E0C17151A052691
:103CD00024000024032513E00123837102240BE058
:103CE00001238371022400253946304609F0ACFCDB
:103CF00006E0012383710124002501E0002425460C
:103D00003B46224629463046BDE8F04109F062BCF8
:103D10000224DFE701240325E6E770B50C1EACBFE3
:103D200001234FF0FF335C430133064608BF2D23C8
:103D30004FF0640208BF06F8013B611104F01F0454
:103D40000546544330460A22FFF732FF2E22641103
:103D5000092C3254D8BF302206EB0003D8BF5A706A
:103D600021464FF00A02CCBF581C981CFFF720FFD9
:103D7000284670BDF0B503782D2B17D14FF0FF36D4
:103D8000013000244FF00A0C02E018460CFB0454EA
:103D9000034613F8012BA2F13005EFB2092FF4D935
:103DA000AAB98C40144406FB04F0F0BD0126E8E7F4
:103DB0008B4003EB650393FBF5F30CFB05F51A440D
:103DC00010F8013F303BDFB2092FF1D9E9E70A25AE
:103DD0000022AC46F4E72DE9F047141E05460F46D5
:103DE00016DC4FF02008DB0720D50026B94626E078
:103DF0000132B95C0029FBD1A242ACBF0C46A41A27
:103E000013F0020F14BF4FF030084FF02008EAE71C
:103E10000022EEE72B68494628461B689847013E7A
:103E2000002EF7DC24EAE476A41BDFE726465FFADF
:103E300088F9F5E72B6828461B689847D146CA469B
:103E40001AF8011B0029F5D1A2465FFA88F8BAF1E9
:103E5000000F06DCF01B4844002CA8BF0019BDE889
:103E6000F0872B68414628461B6898470AF1FF3ABD
:103E7000EDE72DE9FF470746DDE90C8A15461C46AC
:103E800051B930234246ADF8003069465346FFF73A
:103E9000A2FF04B0BDE8F08723B10A2A2DD1002982
:103EA0002BDA494200230E9A8DF80D303A3A0DF183
:103EB0000D03B1FBF5F005FB1016092E88BFB618EF
:103EC00030368D4203F1FF3903F8016C17D964B124
:103ED000B8F1000F16D01AF0020F13D03B682D2155
:103EE00038461B68984708F1FF3853464246494612
:103EF0003846FFF770FF2044CBE70024D2E70146A5
:103F00004B46D6E72D22002409F8012CA3F1020923
:103F1000EBE70846FFF78EBD2DE9F04107460E4658
:103F2000144600254FF00A088CB033781BB9284698
:103F30000CB0BDE8F081252B72D17378002BF6D040
:103F4000252B06F101026AD02D2B0ABF0123002385
:103F5000B21C164612F8011B302915D0002230463B
:103F600010F8011BA1F1300C5FFA8CFEBEF1090FB5
:103F70000DD966293FD00ED8632947D064291AD0BD
:103F800058292ED00136D0E743F00203E1E7064678
:103F900008FB02C2E3E7752926D0782919D07329D6
:103FA000F0D1216822480434002908BF0146384670
:103FB000FFF711FF0BE061202146CDE9013001231D
:103FC00000920A22384609680434FFF752FF05447C
:103FD000D8E721466120CDE901300092002310226C
:103FE000F0E721464120F6E761202146CDE9013086
:103FF00000920023E5E7216808A8CDE904230434F2
:10400000FFF78BFEDDE9042308A9D0E7216804341B
:104010008DF81C1000218DF81D1007A9C7E7164662
:104020003B6838461B68317898470135AAE700BFDE
:10403000AE0601080FB407B504AA52F8041B054BDD
:104040006846CDE90032FFF767FF03B05DF804EB87
:1040500004B07047AC0C01080EB403B503AA52F8C3
:10406000041B0192FFF758FF02B05DF804EB03B0A8
:104070007047000038B52A4C2A4D204608F074FEDF
:10408000204608F076FE204608F07DFE204608F027
:1040900075FE0121204608F052FE204608F016FE6B
:1040A000204608F02FFE204608F03FFE1E4A082159
:1040B000204608F06DFE204608F0A2FE20464FF490
:1040C000602108F015FE28460121184A09F034F94C
:1040D00028460121164A09F038F928464FF4807223
:1040E000012109F0E3F828464FF48062012109F02C
:1040F000D1F860222846012109F037F9284601212C
:1041000009F0E0F82846012109F0E5F828460121E8
:1041100009F000F92046BDE8384008F067BE00BF4E
:104120000024014000000240F42A00204C240140F9
:10413000342A0020884205DD914208DC9042A8BF65
:1041400010467047904203DC9142A8BF11460846D2
:10415000704737B56D46046804F13003F03433F826
:10416000102C33F8201C33F8300CFFF7E3FF30330A
:10417000A34225F8020BF2D1BDF80230BDF80000D1
:104180001844BDF804301844BDF806301844C0F394
:104190008F0003B030BD000008B50D4B98420BD026
:1041A00003F5806398420BD0A3F5006398420BD1CE
:1041B000072909DCC8B208BD012905DC0831F9E787
:1041C000052901DC0A31F5E708F088FD1020F2E747
:1041D000000C0140012370B593400C4615460022A7
:1041E000064611469BB2204609F0F4F929462046BE
:1041F000FFF7D2FF3368034A9B1A034AC3F34F0306
:10420000D05470BD342A0020F42A00200D4B0E4AF1
:10421000991C13600D4A11600D4A191D11600D4A59
:10422000991D11600C4A03F1080111600B4A03F15A
:104230000A0111600A4A03F10C011160094A0E33A8
:1042400013607047342A0020302A00202C2A0020D6
:10425000282A0020242A0020202A00201C2A0020AE
:10426000182A0020142A0020114A124B30B553F8A6
:10427000213052F821401946A342A8BF21460268C6
:1042800002F1C8058D4206DBA342B8BF234603F105
:10429000C804A24202DD0160002030BD8A4202DA79
:1042A00001600120F9E79A42FBDD0360F9E700BFF6
:1042B000482C0020402C0020012970B516D80C4B4A
:1042C00053F821500B4B53F82160B5420ED0401BE0
:1042D0000AF09AFD0446701B0AF096FD014620463E
:1042E0000AF09AFE04490AF0E3FD70BD0020FCE7E5
:1042F000482C0020402C00200000C842F8B5264B76
:1043000004461D68014628460AF08EFF00B1254686
:10431000224B29461C6820460AF068FF00B12C4653
:104320001F4D21462E6830460AF06AFF98B10021E1
:1043300020460AF079FF60B11A4B304619680AF03E
:10434000AFFC214606460AF06FFF00B12646344610
:104350001EE0154BF1E70027204639460AF05AFFC8
:10436000B0B9394630460AF05FFF00B12F602E68C1
:10437000214630460AF03AFF50B90B4B30461968D7
:104380000AF08CFC214606460AF030FF0028DED0F9
:1043900020462C60F8BD00BF182C0020102C0020F7
:1043A000E02B0020042C0020082C002038B5114AF6
:1043B000114B1468196804FA01F303441B1B0B41E9
:1043C00013600E4A1068C01A0AF01EFD0C4B1968E3
:1043D0000AF06EFD0B4904460AF026FF00B1094CB5
:1043E000094B21461D6828460AF01EFF00B92546E4
:1043F000284638BD1C2C0020202C0020282C002012
:10440000242C00200000C8422C2C0020F8B50546C2
:104410007E200F461646FEF7C7FF3946044628465B
:104420000AF0EEFEE8B94FF0804138460AF038FC59
:1044300029460AF0F9FEB0B1A1B27E2041F0100188
:10444000FEF7D2FF114C3568002128460AF0E2FE43
:1044500058B1214628460AF0C9FE00B925462F4624
:104460000BE00B4CEFE70024EDE704F10047394681
:1044700028460AF0D9FE0028F1D1204604493760C9
:104480000AF0B4FE003818BF0120F8BD0000484211
:104490000000C8422DE9F843044623200E46FEF7EB
:1044A0008BFF2F4FDFF8BC8038602420FEF784FF9D
:1044B000C8F800007E20FEF777FFD7F80090054689
:1044C000002148460AF0B0FE38B3002120680AF007
:1044D000A1FE254FADB210B3494630460AF0DEFBCF
:1044E00022490AF0E5FC002106460AF07FFE00B1F1
:1044F00000263E60314620680AF096FE20B17E20FC
:1045000045F00101FEF770FF26683D6830462946F8
:104510000AF06CFE00B135462560BDE8F8833046F0
:10452000D8F800100AF0BAFB10490AF0C1FC0021CB
:1045300006460AF079FE00B100263E60314620684A
:104540000AF054FE20B17E2045F00201FEF74CFF38
:1045500026683D68304629460AF066FEDAE700BF65
:10456000002C0020FC2B0020E82B002000006040E5
:104570002DE9F8430D46354E3549044630680AF0BA
:1045800097FC29460AF08CFB4FF076510AF090FC1C
:1045900030602520FEF710FF2E4FDFF8BC8038601A
:1045A0002620FEF709FFC8F800007E20FEF7FCFE7B
:1045B000D7F800900546002148460AF035FE28B39A
:1045C000002120680AF026FE3668244FADB2F8B10B
:1045D000314648460AF062FB002106460AF006FE14
:1045E00000B100263E60314620680AF01DFE20B171
:1045F0007E2045F00801FEF7F7FE26683D6830464C
:1046000029460AF0F3FD00B135462560BDE8F88380
:104610003046D8F800100AF043FB002106460AF0A5
:1046200003FE00B100263E60314620680AF0DEFD40
:1046300020B17E2045F00401FEF7D6FE26683D68D5
:10464000304629460AF0F0FDDDE700BF002B0020D0
:1046500000007041F42B0020F82B0020E42B0020F8
:10466000104B70B51A68066801EB0214A41A2411E5
:104670000546002130461C600AF0D6FD88B10A4B81
:104680001B681B1B48BF03339B1023EAE3700AF02F
:10469000BBFB0446014630460AF0C6FD00B1264683
:1046A0002E6070BDFC2A0020F02B0020F8B50D4ACA
:1046B000054613780C4F0133DBB2322B28BF0023A1
:1046C0000A4E386856F8231013701C460AF0E6FAB2
:1046D00029460AF0E5FA0649386046F824500AF0FF
:1046E0009BFCF8BD042B0020D02B0020082B0020C1
:1046F00000004842000000002DE9F04F054685B05B
:10470000942090460E46FEF74FFE04469B20FEF78F
:104710004BFE07469D20FEF747FE029084EAE470B8
:10472000A0EBE4700AF070FBDFF85CA28346DAF8D5
:10473000004021460AF0B2FA002101900AF056FD2D
:10474000019B08B103F10043904A1946D2F800904A
:1047500048460AF04BFD50B1214658460AF064FD28
:104760004946002848D020460AF09AFA8346029B20
:10477000CAF800B0002B00F0FE8058460AF074FD25
:104780000446B8F1000F3BD0632840F3F480804B1F
:104790001D680AF039FB29460AF028FD002840F080
:1047A000EA8028460AF060FD7A4B054618680AF050
:1047B0005BFD794B641B444318680AF055FD401BB0
:1047C00094FBF0F00AF020FB744B05461860744B24
:1047D00018680AF049FD5023784390FBF3F00AF083
:1047E00013FB0446014628460AF000FD00B12C46A2
:1047F000204605B0BDE8F08F20460AF04FFAB5E735
:1048000031462846FFF758FD664B05461E680146AF
:1048100030460AF009FD00285BD1314628460AF0EF
:104820003DFA3146054660480AF038FA01465E48CE
:104830000AF0F2FB29460AF03BFB05465B4B284693
:104840001D60FFF733FF0146064628460AF026FAA8
:10485000574907460AF0CAFC30B94FF07E51384636
:104860000AF0E2FC00B93546632C4C4E0BDD2046C5
:104870000AF0CAFADFF818A10390DAF80070394696
:104880000AF0B4FC38B300233360029B012B64D1DF
:10489000484930680AF00CFB04464649464B186804
:1048A0000AF006FB21460AF0F9F929460AF000FB56
:1048B0003D490AF0B1FB21460AF0F2F909F0E8FEA1
:1048C0002FA3D3E9002309F03BFF0AF093F9044634
:1048D0008EE70025B2E7DFF8C0B0DFF8B890DBF86C
:1048E000003003981946D9F8008001930AF07EFC45
:1048F00080B338460AF0B8FC074640460AF0B4FCDC
:10490000E31B03FB00F801980AF0AEFCC01B98FB08
:10491000F0F00AF079FA3060B420FEF745FD002887
:10492000B3D0DAF800000AF09FFCD9F8001007466F
:1049300008460AF0B5F90AF097FCE41B4443DBF89B
:1049400000000AF091FCC01B94FBF0F00AF05CFA46
:1049500030609AE7C6F8008097E72220FEF724FD32
:1049600008B900233360134930680AF0A1FA1149ED
:104970000446124B93E700243AE700BFAFF30080F0
:104980009A9999999999B93FDC2B0020EC2B00203A
:10499000382C0020342C00203C2C0020D82B002068
:1049A000302C00200C2C00200000C842D42B00200A
:1049B000000080BF00002041182C0020142C002093
:1049C000024B00BF013BFCD1704700BF00127A00D0
:1049D00010B50446002240F2215102F02AF80022CC
:1049E00040F22251204602F024F8002240F22351E6
:1049F000204602F01EF8002240F22451204602F028
:104A000018F8002240F22551204602F012F8002248
:104A100040F22651204602F00CF8002240F22751C5
:104A2000204602F006F82046BDE8104000224FF470
:104A3000A56101F0FEBF0000002313B5054A40F256
:104A40001141CDE9002303686A465C680823A0474A
:104A500002B010BD340001003222002313B5CDE9AD
:104A6000002303686A465C6840F211410823A047AE
:104A700002B010BD002313B5054A40F21141CDE943
:104A8000002303686A465C680823A04702B010BD93
:104A9000340101002DE9F7430026174B04461E7030
:104AA0002025FFF7C9FF4FF04209FFF789FF4FF4B8
:104AB000C848236801966A4640F2114120465F6863
:104AC0008DF8005008238DF80190ADF80280013573
:104AD000B847EDB22046FFF773FFFFF7BDFFFFF7C2
:104AE0006FFF292DE5D12046FFF7C4FFFFF768FFD0
:104AF00003B0BDE8F08300BFE01B0020D0F8022027
:104B0000014B1A60704700BF6C2C0020D0F80220C7
:104B1000014B1A60704700BF5C2C0020D0F80220C7
:104B2000014B1A60704700BF582C0020D0F80220BB
:104B3000014B1A60704700BF542C0020054A1388AF
:104B4000013313800A22D0F8023093FBF2F3024AB9
:104B500013607047702C0020502C0020D0F80220E9
:104B6000014B1A60704700BF642C0020D0F802206F
:104B7000014B1A60704700BF682C0020D0F802205B
:104B8000014B1A60704700BF602C002003466FF491
:104B9000A46213440846072B15D8DFE803F0040687
:104BA000080A0C0E1012FFF7A9BFFFF7AFBFFFF7FF
:104BB000B5BFFFF7BBBFFFF7C1BFFFF7CFBFFFF721
:104BC000D5BFFFF7DBBF7047016170478161704758
:104BD000007A7047007A70470C4B1B688BB90C4BFE
:104BE0001B6883B90B4B1B68003B18BF01235B009C
:104BF000094A1268003A18BF0122427742EA0300CC
:104C000070470823F4E70423F2E700BF782C002064
:104C10007C2C0020742C0020882C00200023437260
:104C20007047C37A01200B70704710B5044600220C
:104C3000616008464FF4987101F0FBFE00224FF4CA
:104C4000CA71606801F0F5FE00224FF4CC71606813
:104C500001F0EFFE60680022BDE810404FF4CF7114
:104C600001F0E7BE10B404686468A44610BC604755
:104C70004CF6F10313B5ADF80030036804465B6BE6
:104C80009847A0B9FF237F21F1228DF8023000233D
:104C90008DF803108DF804308DF8052006236A4640
:104CA00040F2B3316068FFF7DDFF02B010BD0023B2
:104CB000F0221946E9E74FF2CD3313B5ADF80030D5
:104CC000036804465B6B984700280CBF0923002348
:104CD0008DF80230FF238DF803304FF0FF336A4622
:104CE00001934FF46D7108236068FFF7BBFF02B0BA
:104CF00010BD00002DE9F7430546D0F810909C2028
:104D0000FEF752FB374E2B68376880465B6B2846B0
:104D1000BCB29847002858D040F2E5304845B8BFAB
:104D20004846800080B209F0A1FC00222E4B09F019
:104D300031FE09F03FFF1FFA88F3C3EBC31203EB08
:104D4000021203EB82036422DB009BB2B3FBF2F29C
:104D5000B3F5FA7F5FFA82F85FFA80FEC0F30721AD
:104D60003BD3FE204FF0940CC2F30F2204F1AA03B0
:104D70004344134473440B44634403449CB21BB246
:104D8000002BB8BFFF3304EB23238DF800308DF8E0
:104D900003208DF805106A468DF807000823AA2124
:104DA00068688DF801708DF802808DF804E08DF848
:104DB00006C0FFF757FF32684E2A02F1010308BF11
:104DC0004023336003B0BDE8F0834FF0F40C01469C
:104DD000864602464FF0FB08C8E7FE204FF0800CE5
:104DE0000022C3E7E81B00200000F83F4FF6FF73E6
:104DF00013B5ADF800303C238DF80230036804464B
:104E00005B6B984798B90146FC220F238DF803008D
:104E10008DF804108DF805208DF806306A460723BA
:104E20004FF4DB716068FFF71DFF02B010BD022078
:104E30009621F0222623E9E7002307B5064A4FF41E
:104E40004271CDE90023406808236A46FFF70AFF54
:104E500003B05DF804FB00BF5401400013B50446E5
:104E6000DD20FEF7A1FA00220A4B8DF80420009302
:104E7000C3B29B1A18BF0123ADF806208DF8053088
:104E80006A46082340F28A216068FFF7EBFE02B011
:104E900010BD00BF9001B80B10B50A4B04461B783B
:104EA0000BB1FFF7A3FF637A0BB901236372236889
:104EB00020465B6B984720B12046BDE81040FFF7C5
:104EC000CDBF10BD8C2C002073B506468520FEF7A3
:104ED00073FA3B4909F0E4FE3A4904460AF0A4F9A2
:104EE000002847D120460AF0BFF95D234FF4FA723B
:104EF000434393FBF2F303F1320009F085FF32499B
:104F000009F0CEFE8E23314C8DF800300AF0D2F934
:104F100023782F4D8DF80230CE238DF80330FF23F8
:104F20008DF804302B786A468DF8053048F2FD4341
:104F30004FF4E8718DF80100ADF806307068082371
:104F4000FFF790FE234B1A68032A01BF60222270EC
:104F500002221A60204B2278196869B1012910D009
:104F60001E4B2A781968042911D8DFE801F00C1CBF
:104F70001E2022001A48C5E70132227001221A6061
:104F8000EEE70022FBE701322A7001221A60237843
:104F90006F2B10D1602323702B78FF2B04BF0023CD
:104FA0002B7002B070BD0222F0E70322EEE704226C
:104FB000ECE70022EAE70F2BEED10023EBE700BF7E
:104FC0000000C8420040034400004042A62C0020DC
:104FD000A52C0020902C0020A02C00209C2C002030
:104FE00000004B4337B54FF0FF3504460A4B6A4685
:104FF000CDE9003540F2924108234068FFF732FEC8
:10500000064B6A46CDE900354FF49361082360688A
:10501000FFF728FE03B030BD1642FFFF2242FFFF1C
:1050200037B5134B134C1B7822788DF80030124B98
:105030008DF803201B78114A8DF80130FF23127878
:1050400040688DF804208DF805308DF80230036833
:105050006A465D684FF4E9710623A8472378103348
:10506000DBB2EC2B08BF0C23237003B030BD00BFB4
:10507000EF1B0020F11B0020EE1B0020ED1B002089
:105080004FF0FF3307B5064A40F2DE41CDE9002379
:10509000406808236A46FFF7E5FD03B05DF804FBAE
:1050A0000042FD014FF0FF3307B5064A40F292512E
:1050B000CDE90023406808236A46FFF7D3FD03B01B
:1050C0005DF804FB402200314FF0FF3307B5064A7C
:1050D00040F29251CDE90023406808236A46FFF769
:1050E000C1FD03B05DF804FB402200304FF0FF33F8
:1050F00007B5064A40F29251CDE9002340680823E3
:105100006A46FFF7AFFD03B05DF804FB40E50031F0
:105110004FF0FF3307B5064A40F29251CDE9002324
:10512000406808236A46FFF79DFD03B05DF804FB65
:105130004014FF304FF0FF3307B5064A40F292515A
:10514000CDE90023406808236A46FFF78BFD03B0D2
:105150005DF804FB4027003137B504469E20FEF77A
:105160002BF91B4905460AF041F800B1184D2846B5
:105170000AF07AF84FF47A72A0F10A0353434622F8
:1051800093FBF2F3A3F5CB50043809F03DFE11492F
:1051900000F1004009F040FF0AF08CF8822340F251
:1051A00032318DF804008DF805306068022301AAC1
:1051B000FFF758FD284608490AF036F828B120467E
:1051C000FFF7B8FF2046FFF76DFF03B030BD00BF0B
:1051D0000000204100004842000070420023064ABF
:1051E0001360064A1360064A1360064A1360064AB3
:1051F0001360064A13607047882C0020842C00201E
:10520000802C00207C2C0020782C0020742C002086
:10521000B1F5CC7F70B5044600F08E8006DCB1F5A8
:10522000987F09D0B1F5CA7F4FD070BDB1F5CF7F5F
:10523000FBD19B2091795AE11378AF49452B1ED1C0
:105240000D682DB1012DF0D1FFF73EFF2572ECE77F
:10525000FFF728FF0322A94B20461A70E122A84B32
:1052600025721A700F22A74BE5721A70F022A64B16
:105270001A70A64B1D60BDE87040FFF7AFBF552BFD
:10528000A34A04D101230B6003231360CDE700235D
:105290000B6011680372022902BF9E4913600B70F4
:1052A0000321964AC3721170E121954A11700F21B2
:1052B000944A1170F021944A1170944A1360FFF7D8
:1052C0008DFFBDE87040FFF723BF1368924A6FF36C
:1052D0000F03934229D010D813F1607F06D0A2F5B6
:1052E00080329342A1D101228C4B1A6000238C4A58
:1052F00013608C4A13608C4AC7E713F15C7F09D0B6
:1053000013F1507F91D100230121854A1360854A12
:105310001160F0E70023814A1360814A1360814ADB
:1053200013600122804B1A607FE701237B4A1360E0
:105330007B4A13600023DCE713687C4A23F0FF03F9
:10534000934200F082803AD8A2F53432934200F0C2
:105350009C801CD8A2F5F032934200F0AD8002F59B
:10536000704293427FF461AF01212F20FEF73CF899
:1053700000211220FEF738F803230622E3725F4B68
:105380001A7078225E4B1A706F225E4B8FE0684A6B
:10539000934267D002F5704293427FF446AF0121F9
:1053A000564A00231170B421554AE37211700F213F
:1053B000544A1170F021544A1170544A65E75D4A0D
:1053C00093425BD024D802F17B4202F534329342FF
:1053D000E5D002F5704293427FF427AF02212F20DF
:1053E000FEF702F803211220FDF7FEFF9D20FDF7D6
:1053F000DBFF013003D100212F20FDF7F5FF0F2245
:10540000404B1A70F022404B1A7000223F4B8AE743
:10541000494A934219D002F5F03293427FF405AF26
:1054200000250321C5721220FDF7DEFF0322334B56
:105430001A70E122324B1A700F22324B1A70F0228E
:10544000314B1A70314B1D60EFE600212F20FDF724
:10545000CBFF01230222E372284B1A70D222284B81
:105460001A70CCE702212F20FDF7BEFF032308228C
:10547000E372224B1A707822214BF1E702212F2090
:10548000FDF7B2FF03211220EEE700212F20FDF7E8
:10549000ABFF00211220FDF7A7FF03230522E372D3
:1054A000164B1A707822164B1A705F22154B1A7021
:1054B000F222154B1A70B8E6144E3568002D7FF4B1
:1054C000B4AE02212F20FDF78FFF03230822E372E1
:1054D0000A4B29461A707822094B12201A700F22A3
:1054E000084B1A70F122084B1A7001233360BDE893
:1054F0007040FDF779BF00BF942C0020EC1B00200A
:10550000EF1B0020EE1B0020ED1B0020982C00203C
:10551000902C0020A62C0020000082FC882C00206B
:105520007C2C0020782C0020742C00200020CDC082
:105530000040CBC00040CBC50020CDC5000000001E
:1055400013B50446A420FDF72FFF6061B420FDF7DA
:1055500041FF78BB606909F089F81DA3D3E90023F6
:1055600009F0EEF809F026FB40F6F91283B2534336
:10557000A322B3FBF2F31A4903F520420968DBB218
:10558000C2F30722E9B101290CBFFD20FC208DF8F0
:10559000003000238DF801208DF802008DF80330D3
:1055A00001936A4608234FF400716068FFF75AFBC5
:1055B00002B010BD606909F059F807A3D3E90023D0
:1055C000CEE7FC2080220B46E1E700BFAFF300806E
:1055D000EE8D960DAF47803F9573522D5CB5903F91
:1055E000882C002010B5184B04461B78F3B1FFF748
:1055F00017FD2046FFF744FD2046FFF7ADFD20468E
:10560000FFF7F0FC2046FFF79BFF2046FFF75CFC0E
:105610002046FFF72DFB2046FFF74DFB8820FDF7C6
:10562000C3FE0E2820460BDCFFF760FD23682046F2
:105630005B6B984738B12046BDE81040FFF7FCBBD4
:10564000FFF766FDF2E710BD8C2C00202DE9F74333
:10565000444B454C05468946187821788DF8000062
:1056600043180F2003F2B72202EB1223ADF8020019
:105670008DF805300020EF23FF278DF804008DF80A
:10568000061068688DF807306A460823BA218DF83D
:105690000170FFF7E7FA2378344E0133DBB28F2B2A
:1056A00008BF802323702B68D6F8008028465B6BE8
:1056B0001FFA88F49847002852D0B9F1000F0CBFA8
:1056C000022062203A4604F59573034403EB42033B
:1056D00099B21BB2002BB8BFFF3301EB23238DF827
:1056E000003070238DF803300F238DF8053003232D
:1056F000D2B28DF802208DF804208DF806306A466B
:105700008DF8070008236868A8218DF80180FFF74D
:10571000A9FA3268164C7E2A02F1010308BF7023F1
:1057200033602378A9218DF8013003F20F3249F656
:10573000A373ADF802300F4B02EB12228DF800205C
:1057400001936A4608236868FFF78CFA23780133CF
:10575000DBB20F2B08BF0023237003B0BDE8F0833A
:10576000FE22B0E7EC1B0020F01B0020E41B002011
:10577000A42C002019CC3F0038B50446AD20FDF71D
:1057800013FE154D236828705B6B204698472B78D5
:10579000A3B90023114A1360114A1168022902D1EA
:1057A000104913600B70032223720F4B1A70E12211
:1057B0000E4B1A700F220E4B1A700CE02046FFF7AA
:1057C00099FAA820FDF706FE01462046FFF73EFFA6
:1057D0002B78002BDDD038BD8C2C0020942C0020A1
:1057E000902C0020A62C0020EC1B0020EF1B00209A
:1057F000EE1B00204069704708B5B0F9080009F0B9
:1058000003FB08BD08B5B0F90C0009F0FDFA08BDAE
:10581000014B1878704700BF382D002000000000B1
:1058200038B51D48FEF795FC05461C48FEF791FC6F
:105830000446284608F01AFF13A3D3E9002308F012
:105840007FFF13A3D3E9002308F0C4FD09F0D2F9C8
:105850000546204608F00AFF0BA3D3E9002308F011
:105860006FFF0BA3D3E9002308F0B4FD09F0C2F9E0
:1058700004460146284609F0D7FC00B12C462046D4
:1058800038BD00BFAFF300801213371BE91495BF7A
:10589000988F7B2556484C402C2A0020282A00202F
:1058A00070B506460D461A4C0721204607F0C8FC85
:1058B00020460721174A07F03FFD324620460721C0
:1058C00007F043FDAAB22046072107F04EFD20460F
:1058D000072107F016FD2046072107F0F3FC2046BC
:1058E0000022072107F0E2FC20460022072107F0F2
:1058F000D1FC20464FF48052072107F0BFFC204620
:10590000072107F007FDBDE87040034808F03CBBE5
:1059100000000240044400400044004038B5054601
:10592000194C0621204607F08BFC20460621174A19
:1059300007F002FD20460621154A07F006FDAAB22F
:105940002046062107F011FD2046062107F0D0FC75
:105950002046062107F0B6FC20460022062107F06B
:10596000A5FC20460022062107F094FC20460022D8
:10597000062107F083FC2046062107F0CBFCBDE89A
:105980003840044808F0FBBA0000024004440040DC
:10599000A72C00200044004008B5034699889B7955
:1059A00000682BB107F055FEB0FA80F0400908BD41
:1059B00007F04FFE003818BF0120F8E770B5044625
:1059C0002F20FDF7F1FC00B20228E0812BD1A820A6
:1059D000FDF7EAFC2C492D4B40B1B4F90C20C82A44
:1059E00004DD0A78E28100221A7070BD0A78284826
:1059F000002A33D141F28835B4F90C60AE4201DDA2
:105A0000012505700078824239D001221A70214A9E
:105A100092F90050204A15B915780135157015789E
:105A2000042D25D1E081B4F90E30012B08D11B489B
:105A3000FBF724FF1A48FBF721FF1A48FBF71EFF6C
:105A4000B4F90E30002BD0D11448FBF717FF1448DF
:105A5000FBF710FF1348FBF70DFFC6E7012AD1D172
:105A600040F2DB55B4F90C60AE42CBDC0025C8E750
:105A7000052DD8D10870002111701970D3E7E2818B
:105A800000221A70CFE700BF352D0020372D0020EF
:105A9000342D0020362D0020332D00202429002015
:105AA0001C290020142900202DE9F8430546122066
:105AB0008846FDF779FCC4B2A820FDF775FC5E4B63
:105AC00081461B78012B5AD15C4F2846FFF776FFA1
:105AD00097F90060304609F097F9414609F0E8F976
:105AE00008F0D6FD52A3D3E9002308F029FE09F0FF
:105AF00081F85349804609F0DBF9524909F08CFAE4
:105B000009F0B2FB2862B9F1000F06D0B5F90C30EC
:105B1000B3F5167FBCBF00232B622A6A4A4913B231
:105B20000B8013EB8303494D48BF03339B102B803D
:105B3000474B197841B1002E06DD053E76B2002EA6
:105B4000B6BF00233E703B7097F90030632B00DC3A
:105B500029B1032C11D8DFE804F0090D0B570533E8
:105B60005BB2642BC8BF64233B70F2E7002A04DAFF
:105B7000364B00E0344B00221A80BDE8F883022B3C
:105B80001ED12F49404609F093F92E4909F044FAF5
:105B900009F06AFB2C4A03B2138013EB83032B49F1
:105BA00048BF03339B1028620B800CB90028DEE746
:105BB000012C02D100231380DFE7022CDDD1D7E7CF
:105BC000032BDAD11E49404609F072F91D4909F04C
:105BD00023FA09F049FB1C4A03B2138013EB830339
:105BE000286248BF0333194D9B102B80032CC4D867
:105BF00001A353F824F000BFAD5B0008755B0008FB
:105C0000715B0008095C00084046124909F00CFB72
:105C100008B92880B1E7404609F026FB41F2171386
:105C200032385843322390FBF3F0F2E7AFF30080B1
:105C30007B14AE47E17A843F432D0020362D0020AF
:105C400000C05A450000C8423A2D00203C2D0020DB
:105C5000372D00200000484210B57920FDF7A4FB45
:105C600008B902F00BFD7920FDF79EFB012848D111
:105C70003020FDF799FB80B202F000FD2148FFF7CC
:105C80008BFE80F00101C9B2AF20FDF7ADFB1E48CD
:105C9000FFF782FE80F00101C9B2B020FDF7A4FB3E
:105CA0001A48FFF779FE80F00101C9B2B120FDF773
:105CB0009BFB1648FFF770FE04461348FFF76CFE87
:105CC00084F0010380F0010464000E4844EA830478
:105CD000FFF762FE64B280F0010044EA00035BB2A9
:105CE0000B4C062B237003D10021B420FDF77CFB65
:105CF0002378052B05D1BDE810400121B420FDF724
:105D000073BB10BDE4290020DC290020D429002029
:105D10003E2D0020034B1B78012B01D1FFF79CBFC8
:105D2000704700BF432D002000220B4870B513467A
:105D300005468C1E944209DC294411F8012C285D8B
:105D400040EA0220C31A5842584170BD10F8016B56
:105D5000013233449BB2EDE7A72C0020002070B540
:105D6000084C034622468D1E854205DC53550A44E5
:105D70001B0A02F8013C70BD14F8016B013033447A
:105D80009BB2F1E724210020F8B5B64D04462B78EC
:105D90000E2B3ED8DFE813F00F0016003B003E004C
:105DA0007600BB00BD00DC00DE000A0180018C0132
:105DB000A501A701D6016420FFF7B0FDAA48FBF7B3
:105DC0005DFD1EE0A94CA848FBF754FD23787BB984
:105DD00002220721A64807F048FA90B107210222C3
:105DE000A34807F03DFA5021A248FFF759FD08E00B
:105DF0005021A148FFF754FDA04B5B7823B9012344
:105E000023702B78013303E02378013BF8E7032369
:105E10002B70F8BD6421FFF787FF984E984F38B973
:105E20000021A4206181A1813970FDF7DDFA23E012
:105E3000022206218E4807F018FA0028F0D002222C
:105E400006218B4807F00CFA01233B70B6F852305C
:105E5000053B03EBD3735B10238196F92A0008F00E
:105E6000D3FF606196F9560008F0CEFFF388A06179
:105E70006381B6F81F30A381002386F8623086F86C
:105E80006330BEE77F4E9620B6F90010FDF7ACFAFE
:105E90006189A289774B0A44712112B292FBF1F217
:105EA00079491A70B1F900200978880083F84B000D
:105EB00090115242C2F307229A711A7332884942F2
:105EC000120ADA7683F82120782283F83F20EC2228
:105ED00083F840206C2283F841206B22C9B25971AB
:105EE000D972317883F84C00997683F820102046D7
:105EF000502183F84220FFF731FF644A1388642B56
:105F00008EBF002301339BB21380002380E77820EB
:105F100052E7564C5448FBF7ADFC2378052B0ED9BD
:105F200002220721524807F0A0F900283FF469AF88
:105F3000072102224E4807F093F9642154E76421B7
:105F4000534801FB0300FFF7ABFC2378013357E70D
:105F500008235DE77821FFF7E7FE484E484F002809
:105F60003FF45EAF02220621414807F07EF9002887
:105F70003FF456AF022206213D4807F071F9012394
:105F80003B70B6F86430053B03EBD3735B102381A1
:105F900096F9140008F038FF6061B6F8560008F072
:105FA00033FFF388A0616381F38C64E7354E96205C
:105FB000B6F90010FDF718FA334A2E4B11785278D3
:105FC000307859719A71D9721A733188B6F90020F4
:105FD000266A090A002E9877D97738DD02EBD2724B
:105FE00052101A77C2F307229876D9765A7775211C
:105FF00083F84A10122183F84B106021402283F865
:106000004C10252183F84820042283F84D1052219A
:1060100083F8492083F84F20892283F84E101D49C8
:1060200083F8562083F858200A7820460132D2B2ED
:106030000A70D20748BF93F85E204FF0640144BF56
:10604000013283F85E20FFF789FE0523E0E6CED01B
:1060500002EBD27252109A76C2F307221877597760
:10606000DA76C4E7422D0020D42800208D210020BC
:106070000000024024210020FD0D0108A72C002073
:10608000382D00203A2D00203C2D0020402D0020EE
:10609000681E00203F2D00207920FDF785F901289A
:1060A0001CBF00223F4B4FF08C0018BF1A7083E6D4
:1060B0003C4C3D48FBF7DEFB2378062B0ED9022231
:1060C00007213A4807F0D1F800283FF49AAE07219B
:1060D0000222364807F0C4F8692185E66921344870
:1060E0002FE70D2394E68C21FFF71EFE314E08B3F7
:1060F000022206212D4807F0B8F8D8B10222062165
:106100002A4807F0ADF8012333702B4EB6F87530EE
:106110005B10238196F9140008F076FE6061B6F8F2
:10612000190008F071FE7389A0616381B6F82B3005
:10613000A38166E60021A4206181A1813170FDF771
:1061400053F95EE61D4E9620B6F90010FDF74CF9A6
:106150001B4B2046B3F900201A4B5242D1B2C2F376
:1061600007229A711A73B6F900205971DA77121260
:1061700083F820209A7ED97283F82520DA7E69215F
:1061800083F82620782283F84F20EC2283F85020D1
:10619000102283F85120272283F85220FFF7DEFDDA
:1061A0000A2335E68D210020D4280020000002407B
:1061B000F21B0020382D0020A72C00203A2D0020B3
:1061C0003C2D00202421002038B5037F04468B425B
:1061D0000D460AD051B15920FDF7E6F808B9FCF791
:1061E00087FEFCF7BBFE0123237738BD4FF08040CC
:1061F00007F00AFD2577F8E708B50121FFF7E4FF6E
:106200000B4B1A78042A04D805221A700022094B75
:106210001A7000230849094A11F8010B0133642B55
:1062200002F8010BF8D10222054B1A7008BD00BF1D
:10623000422D00208D210020300D01082421002056
:10624000432D002008B50121FFF7BEFF064B1A7849
:10625000042A04D900221A700122044B1A70012268
:10626000034B1A7008BD00BF422D00208D21002075
:10627000432D0020012108B5FFF7A6FF0A4B0B496B
:106280001A78092A9CBF0A221A700022084B1A7039
:106290006923084A11F8010B013B02F8010BF9D1FF
:1062A0000322054B1A7008BD422D0020940D0108F1
:1062B0008D21002024210020432D00200021FFF704
:1062C00083BF01817047000008B5084608F0CCFF85
:1062D000A622A0F10F035343412293FBF2F3024A9B
:1062E0005833138008BD00BF442D0020A720FDF7C0
:1062F00071B810B5044600226160084640F253119F
:1063000000F097FB60680022BDE8104040F2F311F6
:1063100000F08FBB40F25313994210B5044610D1E0
:10632000B2F80100A0F5B07008F06EFD4FF07651A4
:1063300008F0BEFD01469520FDF764F80123E372E5
:1063400003E040F2F3139942F8D010BD10B50446B3
:10635000C07A10B90348FFF71FFB00232073E372D4
:1063600010BD00BF0C2A002008B50248FFF714FB3F
:1063700008BD00BF0C2A002007B540F2EE220389B9
:1063800040F21631934238BF13460522ADF8002083
:1063900041F65832934228BF13460A229B01B3FBB1
:1063A000F2F3ADF8023000236A46019340680823F7
:1063B000FEF758FC03B05DF804FB000007B5154A72
:1063C000154913788DF80030144B1B888DF8013077
:1063D000C523ADF80230002301930B780133DBB203
:1063E000162B28BF00230B705BB9112313700823F1
:1063F0006A4640F229314068FEF734FC03B05DF88C
:1064000004FB082B01D18623F0E70F2BEFD1D92312
:10641000ECE700BF482D0020492D0020442D00202E
:10642000462313B5ADF80430002340688DF80630DC
:10643000036840F23B415C6801AA0323A04702B015
:1064400010BD000007B50D4A40F245511388406861
:1064500001339BB2138000228DF801301B0A8DF8A6
:106460000230074B8DF800208DF8032001936A4617
:106470000823FEF7F7FB03B05DF804FB462D002070
:106480007E10001807B5D1B101291AD001310CBF17
:10649000072308238DF801304FF6FF738122ADF8F2
:1064A0000230094B8DF8002001936A46082340F220
:1064B0003F414068FEF7D6FB03B05DF804FB0623BE
:1064C000E8E70523E6E700BF0080FFFF037B10B588
:1064D0000446BBB1FFF750FF2046FFF76FFF204691
:1064E000FFF7B0FF2046FFF79BFF0320FCF772FF8A
:1064F00040B19D20FCF758FF41B22046BDE8104056
:10650000FFF7C0BF10BD018170477047A720FCF79F
:1065100061BF000008B5084B186899889B792BB1BA
:1065200007F097F8B0FA80F0400908BD07F091F83D
:10653000003818BF0120F8E70C2A002030B51F4AA8
:106540001F4B89B0CDE901231E491F4B1F4CCDE9DC
:1065500003131F4B1F4D05930023ADF8193023780B
:106560004FF4B06163F07F038DF818302B684068FA
:1065700020336B4413F81C2C8DF81B2013F8182CB7
:106580008DF81C2013F8142C8DF81D2013F8102CF6
:1065900013F80C3C8DF81E208DF81F3006AA082336
:1065A000FEF760FB2B68013303F003032B602378B5
:1065B000013303F00F03237009B030BD0F287F288B
:1065C0001E1000107056F0560C48A7484A2D0020A7
:1065D000469028904C2D002037B540F2EE220389DA
:1065E0000025934238BF134641F65832934228BFE4
:1065F0001346044603819A009B09CDE900554FF4E8
:1066000020718DF803308DF8042008236A46406815
:10661000FEF728FB08236A464FF4227160688DF864
:1066200003508DF80450FEF71DFB03B030BD000091
:1066300008B5034BB3F9000008F0E6FB08BD00BF46
:106640005C2D002008B5034BB3F9000008F0DCFB1B
:1066500008BD00BF5E2D002008B5024B188808F069
:10666000CFFB08BD622D002008B5034BB3F9000035
:1066700008F0CAFB08BD00BF602D0020064B1A7849
:10668000064B0AB91A7001E0012AFBD0044A1268CD
:1066900002B91A7018787047582D0020592D002023
:1066A000542D002010B504460022616008464FF4C6
:1066B000C87100F0BEF900224FF4CD71606800F09F
:1066C000B8F900224FF4D271606800F0B2F9606846
:1066D0000022BDE810404FF4D77100F0AAB90000C5
:1066E0002DE9F34106460846344908F0E1FB08F07D
:1066F000BBFD334B01B296201980FCF775FE792063
:10670000FCF752FE0546A920FCF764FE044618B1CA
:106710006B1E5C425C41E400AA20FCF75BFE18B1F2
:10672000012D04BF1034E4B2A820FCF753FE08B1D9
:106730000434E4B2012D3AD1224A13881BB1013B43
:1067400002341380E4B29720FCF72EFE0546982011
:10675000FCF72AFE8046D120FCF726FE00F0030756
:10676000A420FCF721FE184BC5F30B0503EA083300
:1067700045EA04651D43C0F30D0040EA873045EA51
:1067800087750190009506F039FD0221684606F0F4
:1067900043FD019B6A4643EA006370680193036806
:1067A0003F215C680823A04702B0BDE8F081002DBE
:1067B000C9D14FF49672034B1A80C4E70000204100
:1067C0005A2D0020502D002000F0FF00B1F5D27F9F
:1067D00006D113880A22B3FBF2F30E4A13807047E6
:1067E000B1F5C87F03D112880B4B1A807047B1F501
:1067F000CD7F08D113880A22B3FBF2F3074A138036
:106800000022074BF1E7B1F5D77F02BF1278054BA5
:106810001A707047622D0020602D00205E2D002030
:106820005C2D0020582D002008B57920FCF7BCFD18
:10683000074B186058B9074B1880074B1880074B57
:106840001880074B1880074B1870074B188008BD3D
:10685000542D0020622D0020602D00205E2D002090
:106860005C2D0020582D00205A2D002008B5B0F9CD
:10687000140008F0C9FA08BD08B5B0F9120008F014
:10688000C3FA08BD08B5008B08F0BAFA08BD08B510
:10689000B0F9100008F0B8FA08BD807D704740F2EA
:1068A000992399420FD040F23373994213D040F2AA
:1068B0008923994218D15388A3F59C43203B038236
:1068C00053680383704753781279934238BF134655
:1068D000283B438270471268C2F30743D2B2934207
:1068E00038BF1346283B838270470000302337B5FA
:1068F00004464068009303686A465D6840F271315F
:106900000823A84760680D4A0D4B40F28521CDE968
:10691000002303686A465D680823A8474FF0745156
:106920004FF404136068CDE9001303686A465C689D
:1069300040F286210823A04703B030BD0000103983
:106940008FFE0C1010B5044600226160084640F22C
:10695000892100F06EF8002240F29921606800F071
:1069600068F860680022BDE8104040F2337100F022
:1069700060B8000010B504460846094908F098FAC6
:10698000084908F049FB084908F08AF908F092FC28
:10699000E0610146BDE810409620FCF725BD00BF30
:1069A0000000FA440000C84200401C4613B5037AB8
:1069B0000133DBB2052B02D0037202B010BD0022FE
:1069C000C369027240681B04CDE9003203686A465D
:1069D0005C6840F287210823A047EEE7014B036083
:1069E000704700BF340F010870477047074A0260C4
:1069F0000022C0F8F420C0F8FC20054AC0E940227B
:106A0000C0E94222C0F81021704700BF6C0F010896
:106A100090210020D0F8FC30042BDFBF03F14002AE
:106A2000013340F82210C0F8FC30D4BF0120002010
:106A30007047D0F8F43070B51D2B15DC05460024E6
:106A4000A3420BDC00EB83046160E2670133C0F812
:106A5000F43003689B689847012070BD55F8046FB7
:106A60008E4201D00134EBE70020F6E770B5064610
:106A7000002456F8FC3BC0F8F4409B680546984754
:106A8000D5F8FC30A34200DC70BD56F8040F013489
:106A900003685B689847F3E72DE9F04704460E4624
:106AA00017469846002500F1FC09D4F8FC30AB42AB
:106AB00001DCBDE8F08759F8040F3A460368314617
:106AC000D3F800A04346D0470135EEE7F8B50546B8
:106AD00000F1300700F1340414F8023C2646322B52
