:020000040800F2
:1010000000500020CDDF0008C9DF0008C7DF00085E
:10101000C7DF0008C7DF0008C7DF000800000000C6
:10102000000000000000000000000000C9DF000810
:10103000C9DF000800000000C9DF0008C9DF0008A0
:10104000C7DF0008C7DF0008C7DF00083524000835
:10105000C7DF0008C7DF0008C7DF0008C7DF0008D8
:10106000C7DF0008C7DF0008C7DF0008C7DF0008C8
:10107000C7DF0008C7DF0008C7DF0008C7DF0008B8
:10108000C7DF0008C7DF0008C7DF0008A97B00082A
:10109000897B0008997B0008C7DF0008C7DF0008CC
:1010A000C7DF0008C7DF0008C7DF0008C7DF000888
:1010B000C7DF0008C7DF000829240008C7DF0008D1
:1010C000C7DF0008C7DF0008C7DF0008C7DF000868
:1010D000C7DF0008C7DF0008C7DF0008C7DF000858
:1010E000C7DF0008C7DF0008C7DF0008C7DF000848
:1010F000C7DF0008C7DF0008C7DF0008C7DF000838
:10110000C7DF0008C7DF0008C7DF0008C7DF000827
:10111000C7DF0008C7DF0008C7DF0008C7DF000817
:10112000C7DF0008C7DF0008C7DF0008C7DF000807
:10113000C7DF0008C7DF0008C7DF0008D57B00084D
:10114000B57B0008C57B0008C7DF0008C7DF0008C3
:1011500010B404466468084611461A46234610BC7B
:101160001847836818477047704770477047704743
:1011700041607047704770477047704770477047CD
:1011800070470020704700207047000000487047FB
:101190000000484200207047416070477047704728
:1011A0007047704770470020704741607047704734
:1011B0007047704770477047002070477047416024
:1011C00070470020704770477047704770477047FE
:1011D000002070477047416070477047002070479B
:1011E00070474160704770470846704770477047C6
:1011F0007047704700487047003C1C46416070478C
:10120000704770477047704770474160704770473C
:101210000020704700207047002070470020704772
:101220000020704770477047104B10B5186803686E
:101230001B6898470E4B186803681B6898470D4B4E
:10124000186803681B6898470B4B186803681B688D
:1012500098470A4B186803681B689847BDE8104018
:10126000074B186803689B68184700BF1C000020E4
:1012700018000020100000200C00002008000020B2
:101280000000002010B5174C206803689B69984740
:10129000052002F087F8062818D8DFE800F0040AD5
:1012A0000C0E1012200000220F4B1A700F4B2360FF
:1012B0000CE00F4BFBE70F4BF9E70F4BF7E70F4B3A
:1012C000F5E701220E4B23600E4B1A700E4C20687E
:1012D00005F018FC6068BDE8104005F013BC0B4B2E
:1012E000E5E700BF10000020BA270020CC26002030
:1012F000C4260020BC260020EC260020E426002086
:10130000A426002090270020AC270020DC26002007
:1013100010B5104C20680368DB699847042002F080
:1013200041F8042806D8DFE800F0030E051012008B
:10133000094B2360094C206805F0E4FB6068BDE8B8
:10134000104005F0DFBB064BF3E7064BF1E7064B19
:10135000EFE700BF0C000020D4260020AC270020BF
:101360009C260020942600208C26002010B5114CCD
:10137000206803685B689847062002F013F801387C
:10138000042813D8DFE800F0140E0E0310000A4BF7
:1013900023600A4C206805F0B5FB6068BDE810408A
:1013A00005F0B0BB064BF3E7064BF1E7064BEFE762
:1013B000064BEDE704000020C8240020AC270020E5
:1013C000982400205C240020F0240020D024002059
:1013D00010B50B4C206803685B689847442001F007
:1013E000E1FF084A084B012808BF13462360074C59
:1013F000206805F087FB6068BDE8104005F082BBFF
:10140000000000204424002054240020AC270020A9
:10141000022010B501F0C6FF022811D0032811D018
:10142000094B0A4A012818BF1346094C094A20688B
:10143000136005F067FB6068BDE8104005F062BB13
:10144000054BF2E7054BF0E7342500203824002057
:10145000AC27002008000020282500201C250020A3
:1014600010B5012001F09EFF08280FD8DFE800F03A
:10147000171C250E05091F0E2200114B114A1A6078
:1014800004E00F4A104B136000229A720F4C206840
:1014900005F038FB6068BDE8104005F033BB084A32
:1014A000094B13600122F0E7054B094AE7E7044BBB
:1014B000084AE4E7024B084AE1E7014B074ADEE746
:1014C00018000020042500203C270020AC27002025
:1014D0004C270020302700206C270020F824002013
:1014E000036810B59B6898470DF0C6FE00240146BE
:1014F0008E2001F077FF2146892001F081FF2146EF
:101500008A2001F07DFF21468C2001F079FF2146E1
:10151000BDE810408D2001F073BF000010B51B4CDA
:10152000206803689B6A9847002001F03BFF082869
:101530000FD8DFE800F005080A0E271C2117290044
:10154000134B236005E0134BFBE71348206004F0C6
:10155000C5FE124C206805F0D5FA6068BDE8104061
:1015600005F0D0BA0C48206004F0D0FEF1E70A483C
:10157000206004F08DFEECE7094B01222360094B4B
:101580001A70E6E7084BDCE7084BF6E71C00002082
:101590007C260020F42600200C270020AC27002009
:1015A0005C2600209027002084260020182400209C
:1015B00010B5124C206803681B6998474B2001F056
:1015C000F1FE02280DD0032812D008B90C4B23607D
:1015D0000C4C206805F096FA6068BDE8104005F0F4
:1015E00091BA094B0948196820600AF0C5F8EFE77D
:1015F0000122074B2360074B1A70E9E71400002013
:1016000054260020AC270020142400200C250020A4
:101610004826002090270020A72001F0D9BE000016
:101620002DE9F74F082001F0BDFE444C54F820107E
:101630000920019101F0B6FE54F820600A2001F063
:10164000B1FE54F820500B2001F0ACFE54F820A05D
:101650000C2001F0A7FE54F820B00D2001F0A2FEEE
:1016600054F820900E2001F09DFE54F820701020B8
:1016700001F098FE54F82080112001F093FE54F8F8
:101680002030019900932E4B18680368DB6A984755
:101690002C4B314618680368DB6B98472A4B594638
:1016A00018680368DB699847284B51461868036837
:1016B0001B6A9847264B4946186803681B69984778
:1016C000244B4146186803685B699847224B3146B2
:1016D000186803689B6998473946204808F0EEFE71
:1016E0001F4B0099186803685B699847072001F051
:1016F00059FE012802D1284603F0B6F9072001F06F
:1017000051FE022802D1284608F01CF9072001F0FA
:1017100049FE032802D1284608F0B0FA002240F220
:101720000161606805F0D1F9002240F20161206892
:1017300003B0BDE8F04F05F0C8B900BFAC270020EA
:101740001C00002018000020100000200C000020C9
:101750000400002000000020080000204024002099
:101760001400002038B540F2DF73984204460D465D
:1017700006D10A4601462C4808F0A8FE002038BDD4
:10178000072001F00FFE012803D12946204603F06F
:1017900049FA072001F006FE022803D12946204617
:1017A00008F010F9072001F0FDFD032803D12946B8
:1017B000204608F093FA1D4B2A4618682146036814
:1017C000DB6898471A4B2A461868214603681B694C
:1017D0009847184B2A461868214603681B699847A2
:1017E000154B2A461868214603681B699847134B16
:1017F0002A461868214603681B689847104B2A46FA
:101800001868214603681B6898470E4B2A461868DB
:10181000214603681B6998470B4B2A4618682146E6
:1018200003681B689847A9E7402400201C0000209B
:1018300018000020100000200C00002004000020F0
:1018400000000020080000201400002008B5084B0C
:10185000186899889B792BB10BF003FFB0FA80F0E0
:10186000400908BD0BF0FDFE003818BF0120F8E765
:101870000C2A0020818800680BF0EEBE8188006889
:101880000BF0ECBE2DE9F74F942001F08BFD814663
:10189000792001F087FD04469D2001F083FD074675
:1018A0000CF0C0F805F0C0FEA34BDFF8908218687A
:1018B00003685B689847792001F074FD01280546AC
:1018C00040F0B4800FFA89F989EAE970A0EBE97079
:1018D00080B206F001FD002106460DF08FFC98B1A4
:1018E000002001F05FFD04280ED01E2001F05AFDFB
:1018F000002840F09580B9F1000FB8BF4FF0FF35D8
:10190000BD4218BF06F1004638460DF085FA314653
:101910000DF0D6FA0546D8F8000003685B689847D2
:10192000D8F8000029460368DFF814A21B6998471D
:10193000D8F80000834E03681B6A98470DF09CFCA2
:1019400005B22946942001F04DFD082001F02AFD42
:101950005AF8200006F002FA012C01D0042C08D11C
:10196000306885EAE5710368A1EBE5719B6989B28E
:10197000984737689E203B68D3F81C9001F01AFD09
:1019800001463846C847306803685B6898476E4B25
:1019900018680368DB6898476C4B186803685B68D5
:1019A0009847042C46D16A4B186803685B689847CF
:1019B000284606F055FB0746972001F0F3FC8146C8
:1019C000132001F0EFFC8346342001F0F3FC01907A
:1019D000242001F0EFFC39460DF02EFC3946B0FA18
:1019E00080F501980DF014FCB0FA80F3D945D4BF0E
:1019F0004FF000094FF001096D095B09ED0045EA60
:101A0000830545EA891529467C2001F0EBFC042C6E
:101A100073D8DFE814F025003B01B3001701320151
:101A2000B9F1000FA8BF4FF0FF3569E706F00AFDD6
:101A3000002575E7052001F0B5FC032804D1444BCF
:101A4000186803685B689847012CB1D1D12001F078
:101A5000A9FC411C01F00F01D12001F0C3FCA7E754
:101A60000025DFF8F0803C4F3C4888F800503D707E
:101A7000FFF704FF3A48FFF701FF3A48FFF7FEFE81
:101A80003948FFF7FBFE3948FFF7F8FE29469D204D
:101A900001F0A8FC3068DFF8D89003685B699847CC
:101AA000972089F8005001F07DFC0546132001F0D5
:101AB00079FC854213DA306803689B6B984770B1F4
:101AC000306803685B6B984748B1012489F800408F
:101AD0000BF0A8FF88F800400224264B1860264B24
:101AE0001B7833B10BF09EFF224B022418600123B8
:101AF0003B702146792001F075FC072001F052FC73
:101B0000022807D10A2001F04DFC5AF82010204687
:101B100007F06AFF072001F045FC032840F0C88069
:101B20000A2001F03FFC5AF82010204603B0BDE81F
:101B3000F04F08F00FB900BF0C0000201C0000207F
:101B4000AC27002018000020000000200800002022
:101B50001000002092270020912700206C290020EF
:101B6000AC2900209C2900205C290020A429002009
:101B70009427002010240020BA270020DFF8389195
:101B800099F80030002B48D1D8F800204B4B9A42EE
:101B900002D04B48FFF76EFE4A48FFF76BFE4A48FB
:101BA000FFF768FE4948FFF765FE4DB9484B1A78C4
:101BB000002A3DD029467E201D70012401F012FC30
:101BC000444B1B7823B199F80030002B08BF002448
:101BD000414B1B7833B1306803685B6B9847002832
:101BE00008BF0024342001F0DDFB0DF015F9394663
:101BF0000DF022FB00283FF47CAF0BF013FF374BB6
:101C00001B68053398427FF674AF3048FFF736FE05
:101C1000032005F00FFD03246BE7072001F0C2FB52
:101C20000028B9D1D8F800202D4B9A42B4D1B0E7A2
:101C300099F80030002BC3D029467E2001F0D2FB5A
:101C40000424BDE70022224B20481A70FFF716FE3D
:101C5000204B1B7823B1184B1B78002B08BF0024A6
:101C60001D4B1B78002B3FF444AF306803685B6B5F
:101C70009847002808BF00243BE71A48FFF7FAFD01
:101C800005F0FAFC0C4B1C78A40032E71548FFF76E
:101C9000F1FD0B48FFF7EEFD0121792001F0A2FBD9
:101CA00005F0EAFC306803685B6B9847044620E760
:101CB00003B0BDE8F08F00BFBA27002084260020C3
:101CC0006C2900209C2900205C290020A4290020E8
:101CD0009427002091270020922700201024002024
:101CE000F4260020AC290020818800680BF0BCBCE1
:101CF0002DE9F0416248FFF7F7FF0BF0BFFC614BA5
:101D0000614E186801F01BFB0DF086F85F490DF07D
:101D10008BF90146D22001F073FB05F0B9FC0146B6
:101D20007B2001F05FFB792001F03CFB584C07461B
:101D30003168206806F016F9072001F033FB08B17E
:101D400006F08CFB2068534D03689B6A9847014658
:101D5000A52001F047FB20680368DB6A984701462D
:101D6000A32001F04DFB06F0ABFB286803689B68DD
:101D70009847206803689B689847474B1868036832
:101D80009B689847454B18680368DB689847444B45
:101D9000186803681B699847306803689B68984710
:101DA000404B186803689B6998473F4B186804F0DC
:101DB000F7FE3E4B1B780BB10AF006FA28683C4E42
:101DC00003689B69984701469E2001F019FB28682B
:101DD00003685B69984701469F2001F011FB286862
:101DE00003685B6A98470DF017F80146B32001F0CD
:101DF00007FB28682F4D0368DB699847014683205D
:101E000001F0FEFA206803685B6B98470146B22038
:101E100001F0E8FA284BA020196801F0E3FA274BFB
:101E20001B78012B03D0042B01D02B781BB1306819
:101E300003689B6898473068DFF88480036898F8E7
:101E400000105B699847044640B1012F1EBF012274
:101E50001C4B1A7001232B70BDE8F0812B7833B135
:101E600001467A2001F0BEFA164B2C701C703068C7
:101E700098F8001003689B699847134B1870EBE7BC
:101E8000BC290020BC2700200800002000002041C1
:101E9000180000201C00002010000020040000207A
:101EA0000000002014000020A82700209027002018
:101EB0000C000020B9270020502C0020A62700206D
:101EC000A4270020BA27002093270020000000004C
:101ED0002DE9F347792001F065FA044660B97120D5
:101EE00001F060FA40B1A248FFF7FEFEA148FFF7FB
:101EF000FBFEA148FFF7F8FEA04BDFF884821868CC
:101F00000368DB689847042C04D1D8F80000036804
:101F1000DB68984706F058FB9A4BDFF86CA219680B
:101F2000C6209A4F01F05EFAC720DAF8001001F0DF
:101F300059FAC820396801F055FA954B954E196841
:101F4000C920DFF8549201F04DFACA20318801F01F
:101F500049FA01F0ABFE99F80030904D022B2ED1DA
:101F60008F4B1B785BBB042C1AD1DFF838A28E4F45
:101F7000DAF80030002B41D1002355202B7001F0FE
:101F800011FA4FF496735843CAF800003B68B3F552
:101F9000967F14D100233B603388013B33800EE0F1
:101FA000824ADAF8003012789A4225D1804A3B689A
:101FB00012789A4220D13388F3B101232B7099F81B
:101FC000003023BB764B1B780BB901232B70D8F85C
:101FD0000000784A036812785B692978984708B14D
:101FE000012C18D1744B1E78DEB931467A2001F0ED
:101FF000F9F9724B1E7014E00023DFE73A68013BE9
:102000000132CAF800303A60002BBFD1B4E7012B8F
:10201000DDD10023DAE70121684B7A20197001F045
:10202000E1F9674F3B78012B02D9033B012B0AD81A
:10203000644E30680368DB6898473B781BB93068AA
:102040000368DB689847042C29D15B4B1E781EBBC4
:102050007F2001F0A7F90446392001F0A3F984425A
:102060000CDB852001F09EF904463B2001F09AF933
:102070008442DFBF01224A4B2E701A70524B1868FF
:1020800003689B68984700210DF0AEF820B100234B
:1020900001222B70424B1A7002B0BDE8F087012C70
:1020A000FAD100223E4B9D201A7001F07BF90028E6
:1020B0004BD001284BD0013014BF0023A8238DF84A
:1020C00001304FF480530022404CADF80230404BB9
:1020D00020688DF80020019303686A464FF4007170
:1020E0005D680823A847942001F05CF905469D200F
:1020F00001F058F900284FF0B400B8BF6D4201F06C
:1021000067F930BB28460CF0B9FA15A3D3E90023D0
:102110000CF01EFB0CF02EFD4FF4B073ADF8003048
:102120004FF440535843252390FBF3F02030294BC4
:1021300040BAADF802002068019303686A465C6803
:1021400040F224510823A047A6E78023B7E7A8233D
:10215000B5E728460CF092FA03A3D3E90023D7E7AA
:10216000EE8D960DAF47803F9573522D5CB5903F35
:102170009C290020A4290020AC2900201800002060
:10218000100000208C2700208827002084270020B2
:1021900080270020A0270020A5270020A4270020BA
:1021A000B82700209C27002098270020A327002084
:1021B000A227002093270020B9270020BA2700205B
:1021C000A62700200C00002004000020AC270020DF
:1021D000003BD0005A01C002FEE700000C2838B5D1
:1021E00010D80C2816D8DFE810F0C800CB00DD00AE
:1021F0001500D100CE00D7001500E000E000E0009F
:10220000E000E0004B2800F0C48000F2AA804428DF
:1022100000F0C5801E2001F0C5F840B1002001F09B
:10222000C1F8082803D000211E2001F0DBF813209C
:1022300001F0B8F8614D624C2860142001F0B2F84A
:102240002060152001F0AEF86860162001F0AAF8B1
:102250006060172001F0AEF85A4D5B4C28601820E2
:1022600001F0A8F820602E2001F0A4F8574B216857
:10227000186028680CF0C2FF50B15549172029603A
:10228000544D256001F0BCF82946182001F0B8F83B
:10229000192001F08FF8504B504C1860292001F0A4
:1022A00089F84F4B18602A2001F084F84D4B1860D4
:1022B0002C2001F07FF84C4B1860212001F072F8BF
:1022C0004A4B18601B2001F075F8494B18601F201D
:1022D00001F070F8474B18602B2001F06BF8464B6B
:1022E00018601A2001F066F8444B1860052001F0D0
:1022F00059F8042001F056F8414B18702378012B4F
:1023000022D1522001F04EF83E4B1860512001F0CE
:1023100049F83D4B1860502001F044F83B4B1860E1
:102320004F2001F03FF83A4B1860532001F03AF883
:10233000384B1870542001F035F8374B1870552081
:1023400001F030F8354B1880402001F02BF8207058
:10235000552001F027F84FF496735843304B18601E
:1023600038BD612805D85E287FF654AF00F036FEF0
:1023700050E772380428F9D94CE7FFF7CFF849E75E
:10238000FFF76EF846E7FEF77DFF43E7FEF7C0FF75
:1023900040E7FFF70DF93DE7FEF7E8FF3AE7FFF703
:1023A00017F837E7FFF734F834E71E4C206804F0DD
:1023B000A9FB606804F0A6FB2CE700BF482C0020B6
:1023C000402C00203C2C0020382C0020EC2B00203E
:1023D0000080BB440000C842342C0020A527002008
:1023E000182C0020102C00200C2C0020F02B00209A
:1023F000082C0020042C0020142C0020302C00205D
:10240000A62700208027002084270020882700207E
:102410008C270020A3270020A2270020A02700202F
:102420009C270020AC270020014B186800F050BF0B
:10243000BC27002008B500200BF030FB104B1A68B9
:1024400001323B2A1A600F4A05D911680131116027
:1024500019683C39196013683B2B0B4B05D9196877
:102460000131196011683C3911601A68172A06D9C0
:1024700006490A6801320A601A68183A1A6008BDEB
:102480008027002084270020882700208C27002018
:10249000F0B5ADF68C2D00F0E5FB00F015FD002247
:1024A000C149C24801F0E2FE0422BF49C04801F020
:1024B000DDFE0522BC49BF4801F0D8FE0022BE491E
:1024C000BE4801F0D3FE0122BB49BD4801F0CEFE5B
:1024D0000222B949BB4801F0C9FE0322B649BA48F5
:1024E00001F0C4FE0E22B449B84801F0BFFE042337
:1024F0004022B749B74801F025FC04238022B449A3
:10250000B54801F01FFC04234FF40042A649B3482C
:1025100001F018FC04231022B149B24801F012FC6A
:1025200004230822AE49B04801F00CFC04234FF408
:102530000052A749AD4801F005FC04234FF4804246
:10254000A349AB4801F0FEFB04234FF40042A0492D
:10255000A84801F0F7FB04230122A749A74801F08E
:10256000F1FB04230222A449A54801F0EBFB072359
:102570000422A149A34801F0E5FB072308229E4954
:10258000A14801F0DFFB072380228B499F4801F01F
:10259000D9FB0723402288499D4801F0D3FB07233C
:1025A000202285499B4801F0CDFB07230122884961
:1025B000994801F0C7FB072302228549974801F09B
:1025C000C1FB0125072320228B49954801F0BAFB66
:1025D000072320227E49934801F0B4FB07231022F1
:1025E0007B49914801F0AEFB07234FF480726E499E
:1025F0008E4801F0A7FB072380227F498C4801F019
:10260000A1FB07234FF4807271498A4801F09AFBBD
:10261000072310227849884801F094FB0723802281
:102620006F49864801F08EFB0723042268498448DD
:1026300001F088FB072308226549824801F082FBEC
:1026400007234FF480426C497F4801F07BFB07234E
:102650004FF4005258497D4801F074FB07234FF4B2
:1026600080525B497A4801F06DFB07234FF40072FA
:102670005149784801F066FB07234FF480724E49B8
:10268000754801F05FFB07234FF480625A49734895
:1026900001F058FB07234FF400625749704801F0DE
:1026A00051FB07234FF4805253496E4801F04AFB17
:1026B00007234FF4005250496B4801F043FB0723B6
:1026C0004FF480624249694801F03CFB07234FF414
:1026D00000723F49664801F035FB07234FF4006262
:1026E0003B49644801F02EFB0723402242496248DF
:1026F00001F028FB072340222B49604801F022FB10
:102700000723802228495E4801F01CFB0723012291
:1027100033495C4801F016FB0723022230495A482E
:1027200001F010FB07234FF400723349574801F0C2
:1027300009FB04234FF400421F49554801F002FBF6
:1027400001F0E4FC53494FF000700AF07BFF00F009
:1027500049FB00F079FB04F038FF00F0E3FA00F0E9
:102760000FFB00F03BFCDE20FFF738FD2F48FFF7A2
:1027700085F8C4AC0023484A4849009539A800F0C0
:10278000E1FE0DF26C57002302222046444905F079
:1027900053F9022243492B46384605F04DF9424B86
:1027A0000F20049382E000BF00080140302A00207F
:1027B0002C2A0020282A002000100140242A002072
:1027C000202A00201C2A0020182A0020142A002079
:1027D000001401400C2A0020042A0020FC290020BB
:1027E000000C0140F4290020EC290020E4290020FD
:1027F000DC290020D429002000180140CC29002029
:10280000C4290020BC290020B4290020AC290020C4
:10281000A42900209C290020942900208C29002034
:10282000842900207C290020742900206C290020A4
:10283000642900205C290020542900204C29002014
:10284000442900203C290020342900202C29002084
:10285000242900201C290020142900200C290020F4
:1028600004290020FC280020F4280020EC28002067
:10287000E4280020DC280020D4280020CC280020D8
:10288000C4280020BC280020B4280020AC28002048
:10289000A4280020C0004000340C0108004800407B
:1028A0000064004000680040C0F30008454B464EFD
:1028B0000593464B069300F075FD2A46002814BF89
:1028C000394621460DF5F96004F0FAFD0DF5F9627F
:1028D000214619A807F0D0FE294619A807F0E8FEFE
:1028E000204604A9C6E9004704F0E0F804A93846E8
:1028F00004F0DCF8364B0DF5F9621A60354B0A200E
:102900001A6000F04FFD56F820700E2000F04AFDCE
:1029100007AC56F82010304807F0D0FD4FF496422F
:102920002E49204608F09EFD2D4B1C600FACFEF793
:10293000F5FDFEF795FDFEF7A5FCFEF7E9FCFEF7B9
:1029400015FDFEF735FEFEF743FDFEF761FD254957
:10295000204600F067FC244B2A46204623491C6091
:1029600000F080FC0A222046214900F07BFC642212
:102970002046204900F076FCC82220461E4900F07F
:1029800071FC702000F00EFDA84202D1384602F022
:10299000CDF80421782000F025FD0021792000F0F9
:1029A00021FD4FF0000439A88DF80F4000F084FF9E
:1029B0001E9B002BF7D10DF10F011AA805F0DEFFC9
:1029C000F1E700BF65170008AC27002021160008BA
:1029D000902D0020A827002040240020003801402E
:1029E0001424002000080040BC2700202912000801
:1029F00085180008F11C0008D11E000810B500243D
:102A00004D4B4E4A1C741A604D4B4E4A1C771A604F
:102A10001C81DC724C4A4D4B4D481A604D4B4E4A5E
:102A20001A604E4B4E4A1C621A601C774D4A4E4B40
:102A30001A604E4B4E4A1A604E4B4F4A1A604F4B2B
:102A40004F4A1A604F4B504A1A60504B504A1A6016
:102A5000504B514A1A60514B514A1A60514B524ADD
:102A60005C751A60DC82514A514B1A60514B524AD4
:102A70001A60524B524A1A60524B534A1A60534BD7
:102A8000534A1A6003F0F6FF524B534A53491A60F7
:102A9000534B544A54481A60544B554A1A60554B8C
:102AA000554A1A60554B564A1A60564B564A1A6098
:102AB000564B574A1C721A60564B574A1A60574B6E
:102AC000574A1A60574B584A1A60584A584BC2E93D
:102AD000024413600023136153619361D361554A2B
:102AE0001160554A5549C2E904441160C2E90644DF
:102AF000136253629362D3625149524AC2E902445B
:102B00001160C2E90444D361136253629362D362D9
:102B1000136353634C4B148393634C4B4C4A1A60BE
:102B20004C4B4D4A1C731A604C4B4D4ABDE810404B
:102B30001A6008F091BC00BF6C2700202C1201081D
:102B40004C270020C80C01087C0E01083C270020FF
:102B50005C26002030270020C40E01080C2700202E
:102B6000100D010874100108F4260020EC26002046
:102B700004110108E426002030110108DC260020A1
:102B8000C4120108D4260020F4F30008CC2600204B
:102B900020F40008C42600205C110108BC26002097
:102BA000D8100108A4260020C0110108AC100108AB
:102BB0009C26002094260020981201088C260020D4
:102BC00024140108842600200C0F01087C26002014
:102BD000D0F40008542600204CF40008D814010852
:102BE00048260020581501081824002040260020FF
:102BF000ACF40008342500207412010828250020B8
:102C00007C1301081C250020A01301080C250020BE
:102C1000581301080425002008F50008F8240020B6
:102C2000F4140108F024002070F40008D0240020DF
:102C3000A4110108C824002098240020881101084C
:102C40003C1501085C2400200000FA4354240020B5
:102C50008CF40008442400200C12010838240020C1
:102C6000D0F3000808B50AF017FE02200AF0ECFDC8
:102C70004FF0E0232A4A40F20230C3F80C2D0AF04C
:102C80004FFE40F203300AF04BFE4FF441700AF061
:102C900047FE40F205300AF043FE40F206300AF0EB
:102CA0003FFE40F292300AF03BFE40F291300AF0D3
:102CB00037FE40F20E300AF033FE40F20B300AF0DD
:102CC0002FFE4FF460700AF02BFE40F281300AF0C4
:102CD00027FE40F282300AF023FE4FF420700AF003
:102CE0001FFE40F209300AF01BFE40F286200AF077
:102CF00017FE4FF440700AF013FE40F299300AF0CC
:102D00000FFE40F29A300AF00BFE40F28E300AF0CD
:102D100007FEBDE8084040F28F300AF001BE00BF58
:102D20000003FA0573B50024134D234622462021E3
:102D30002846CDE900440AF027FF214628460AF03C
:102D40001BFF0E4E28460AF009FF28460AF00FFF27
:102D500030464FF42043022203210AF043FC304660
:102D60004FF48043012221460AF03CFC284602B081
:102D7000BDE870400AF0E6BE00380040000C01409B
:102D8000F7B500254FF40067144C4FF080514FF019
:102D900000700AF057FC2B462A4620212046CDE938
:102DA00000750AF0F1FE0E4E20460AF0D7FE2046CE
:102DB0000AF0DDFE30464FF4A053022203210AF050
:102DC00011FC30463B46012229460AF00BFC204606
:102DD00003B0BDE8F0400AF0B5BE00BF003C0040C3
:102DE0000010014010B5164C042320460222032196
:102DF0000AF0F8FB0823012220460021A4F54444F0
:102E00000AF0F0FB20460F490BF07CF82046082121
:102E10000BF08CF8204600210BF091F820460C2195
:102E20000BF099F8204600210BF08FF82046002186
:102E30000BF097F82046BDE810400BF098B800BFA3
:102E40000008014020A1070008B511200BF02AF965
:102E5000F02111200BF032F910200BF023F9F021B2
:102E600010200BF02BF91E200BF01CF900211E2066
:102E70000BF024F914200BF015F9E02114200BF0CD
:102E80001DF913200BF00EF9E02113200BF016F9B9
:102E900028200BF007F94FF400400AF099FA0121BD
:102EA0004FF400400AF070FA06494FF400400AF06F
:102EB0009DFA03200BF0F6F8BDE80840202103201E
:102EC0000BF0FCB80018014008B54FF22341032075
:102ED0000AF01EFE00200AF0AFFD00200AF0DEFD21
:102EE000BDE8084000200AF0B7BD0000022210B57E
:102EF000174C11464FF4007316480AF073FB204636
:102F00000AF08AFE00232022194620460AF05DFEC0
:102F1000204620210AF085FE0722204600210AF0E3
:102F200084FE002120460AF085FF20460AF0DCFFDF
:102F300020464FF4C87200210AF0C6FF20464FF425
:102F400088610AF070FE2046BDE810400AF05FBEBE
:102F5000002C01400018014008B5022303211A4645
:102F60001D480AF03FFB4FF080400AF055FE002359
:102F70004FF080401A4619460AF027FE00214FF014
:102F800080400AF04EFE4FF080400AF027FE4FF0DE
:102F900080400AF037FE8F214FF080400AF043FE58
:102FA00002214FF080400AF06AFF062202214FF012
:102FB00080400AF03AFE02214FF080400AF03AFFCA
:102FC0004FF08040482202210AF07EFFBDE8084011
:102FD0004FF080400AF01BBE00080140612038B568
:102FE00000F0E0F9102808D1022201231146874899
:102FF0000AF0F8FA002425460DE0612000F0D2F92D
:10300000112840F092800222012311467F480AF0E5
:10301000E9FA00240125602000F0C4F9102840F0EE
:10302000998002228023114679480AF0DBFA5F205A
:1030300000F0B8F9102840F0AE800222402311467B
:1030400073480AF0CFFA73480AF0E6FD0021714890
:103050000AF0C9FD6F480AF0C1FD062200216D4843
:103060000AF0E3FD062202216A480AF0DEFD06228C
:10307000042168480AF0D9FD002166480AF09BFE49
:10308000022164480AF097FE042162480AF093FE88
:10309000002160480AF0A9FE02215E480AF0A5FE60
:1030A00004215C480AF0A1FE00215A480AF0C2FE41
:1030B000022158480AF0BEFE042156480AF0BAFE22
:1030C000002D40F08980002C40F08680732000F0B5
:1030D00069F901464F480AF0A6FD742000F062F934
:1030E000214602464B480AF0EFFE752000F05AF9DF
:1030F0000221024647480AF0E7FE762000F052F926
:103100000421024643480AF0DFFE012141480AF04B
:10311000F0FE722000F046F901463E480AF081FDBB
:10312000BDE838403B480AF072BD612000F03AF932
:10313000122808D102220123114634480AF052FA1B
:103140000124002567E7072301223049324800F0B7
:10315000F9FD4FE7602000F025F9112807D1022280
:10316000802311462A480AF03DFA01255FE76020D6
:1031700000F018F9122807D10222802311462448B2
:103180000AF030FA012452E707238022204923481D
:1031900000F0D8FD4BE75F2000F004F9112807D1BB
:1031A0000222402311461A480AF01CFA01254AE778
:1031B0005F2000F0F7F8122807D1022240231146C1
:1031C00013480AF00FFA01243DE707234022104973
:1031D000134800F0B7FD36E741F68C110D480AF0B0
:1031E00022FD012200210B480AF06EFE012202217D
:1031F00008480AF069FE0122042106480AF064FE2C
:10320000012104480AF075FE0A2186E7000C0140FE
:103210000008014000040040BC280020C428002011
:10322000CC28002038B50C460546016208460AF055
:10323000D5FC20460AF0E1FC084B20461968084BF3
:10324000B1FBF3F101390AF0ECFC20464FF6FF71B7
:103250000AF0E9FC002328466B6238BDC02200203A
:10326000A0860100F8B5436A0446032B0E461546B6
:103270002ADC006A0AF0D0FC144F636A0122F95C70
:10328000206A0AF0D2FC636A0022F95C206A0AF024
:103290001BFE0221636A05EB850505EB850503F13D
:1032A0000802AD0044F82360994024F81250206AC7
:1032B0000AF07EFC0021206A0AF021FE206A0AF052
:1032C000A6FC636A01336362F8BD00BF48F50008DD
:1032D0002DE9F843044600254FF0020800F11006DE
:1032E000636A206AAB4208FA05F70ADC3946206AAD
:1032F0000AF068FC0135042D06F10206F0D1BDE8A4
:10330000F88339460AF058FCA8B1206A0AF0F5FDA6
:10331000236A3188343353F8252081460A4443F820
:10332000252054F825309847206A0AF0E6FDA0EBE6
:1033300009003081DAE7636AAB42DBDCD6E70021C3
:1033400070B500F10E03446A4FF47A7508468C425A
:1033500000DC70BD5A8933F8026F6A43B2FBF6F2A3
:1033600001311044F3E7000010B51C24084A04FBA7
:103370000022D4688C4209DC12698A4206DB054AC5
:1033800042F82010FEF72AFF002010BDFF20FCE7C6
:103390009803002020000020014B53F820007047C4
:1033A00020000020024B53F820004011704700BF5E
:1033B0002000002008B5054B53F820000BF02CFD31
:1033C0004FF074510BF07CFD08BD00BF20000020C1
:1033D000034B53F820004011431E58425841704798
:1033E00020000020024B490143F82010704700BF25
:1033F00020000020014B43F82010704720000020DF
:1034000010B5044608464FF084410BF059FD0BF00F
:1034100033FF024B43F8240010BD00BF2000002002
:1034200070B506460024074D3146686800F098FBE9
:1034300008B9E0B270BD0134DE2C05F11C05F3D1F2
:10344000DF20F7E7980300200023064A118B814212
:1034500001D1D8B270470133DE2B02F11C02F5D145
:10346000DF207047980300201C22024B02FB003033
:10347000704700BF980300200023064A0649108BBE
:1034800010B1506941F823000133DE2B02F11C0218
:10349000F5D170479803002020000020014B1954FB
:1034A000704700BFC0270020024B1A5C114319541B
:1034B000704700BFC0270020024A135C23EA0103C3
:1034C00013547047C0270020014B185C704700BFA1
:1034D000C02700201C22024B02FB0033987E70475D
:1034E00098030020004870479D530300024B1A6860
:1034F000024BC3F87C2D7047B421002098030020B4
:10350000202180680AF059BD80680AF04EBD10B5D0
:1035100004464368597A586809F00DFF636804F15E
:103520002A02597A586809F018FF63688022597A8C
:10353000586809F022FF6368BDE81040597A58685E
:1035400009F0F0BE70B5026140F201120D464C491F
:103550008282016001210022817580F828100446D2
:103560000421C0E9062280F8202042629DF8102044
:10357000856080F82920434A0373426062681068BE
:10358000A84206D1404A146062683BB9D068138AE9
:1035900006E01C3201396260F0D1F3E75069138B09
:1035A000022203210AF01EF828464FF4E1310AF006
:1035B000A9FC284608210AF0B9FC28464FF400511E
:1035C0000AF0BDFC28460C210AF0C5FC2846002163
:1035D0000AF0BBFC002128460AF0C3FC28460AF08A
:1035E000D6FC28460AF0D8FC63682E1D197A586864
:1035F00009F02EFE6368197A586809F08AFE63683C
:103600003246197A586809F09FFE63680022197AD9
:10361000586809F053FE63680022197A586809F067
:1036200041FE6368197A586809F054FE6368597A54
:10363000586809F00DFE63683246597A586809F0F7
:1036400083FE63680022597A586809F037FE636880
:103650000022597A586809F025FE6368597A58683B
:1036600009F038FE63685868597A09F05BFE204615
:10367000FFF74DFF28460AF07AFC204670BD00BFD8
:10368000C00B0108C40B0108A028002038B5437DF9
:103690000D4604691BB90024204638BD0834216852
:1036A00021B1284600F05CFA0028F7D12368002BEE
:1036B000F2D1F0E738B504460D4663680222197A64
:1036C000586809F0DAFD18B994F82830002BF4D0C6
:1036D0006368197A586809F02EFE6368AAB2197AED
:1036E000586809F04AFE94F82020636804EBC2127F
:1036F000197A5868AA3209F030FE63680222197AF2
:10370000586809F0B5FD6368197A586809F00AFE2F
:1037100094F82030B3FA83F35B0984F82030002357
:1037200084F8283038BD837D10B50A46044623B995
:10373000BDE8104080680AF01FBC94F82030406A51
:10374000DB01234403440A2A00F1010183F8AA2083
:1037500001D07F2805D12046FFF7ACFF002363622C
:1037600010BD6162FCE7802A30B428BF80220C467D
:103770000021914202D130BCFFF79CBF90F820306D
:10378000655C00EBC3130B4483F8AA500131F0E7EA
:1037900038B5054608460C4600F0F9F921460246C0
:1037A0002846BDE83840FFF7DEBF000010B50446EC
:1037B000084600F03FFA00F024FA237D227B834282
:1037C000636811D1012161755AB158691B8B0321BE
:1037D000022209F007FF2046BDE810400949FFF723
:1037E000D7BFD8681B8AF2E7002161753AB15869E2
:1037F0001B8B0122BDE81040002109F0F3BED86800
:103800001B8AF6E78305010830B5044685B00846F3
:1038100000F010FA0378302B26D0322B144D18BF4D
:103820004FF46125637DA3B10A22294601A800F067
:10383000BDF920460F49FFF7ABFF20460E49FFF7C1
:10384000A7FF204601A9FFF7A3FF20460B49FFF77A
:103850009FFF2946A0680AF055FB0021A06805B02B
:10386000BDE830400AF06BBB4FF4E135DAE700BF4A
:10387000105522008205010888050108540B010833
:1038800010B50446084600F0D5F9037823B1303B63
:1038900018BF012384F8293094F829302BB104494A
:1038A0002046BDE81040FFF773BF0249F8E700BFAC
:1038B00097050108A10501082DE9F0414368044678
:1038C000597A586809F052FD0546C0F1800710B9D1
:1038D0002046FFF71CFE94F82930A06813B1E36975
:1038E000BB4254DB08210AF068FB10B1A0680AF063
:1038F0005CFB002F40F39280651B95F8A9300A2BE2
:1039000001D00D2B77D16368597A586809F013FDFF
:10391000012F37D00022E31904F12A0683F82A2068
:1039200020213046E26100F039F990F80080054628
:10393000B8F1000F33D10A21304600F02FF90546C7
:1039400084F8AA812B7823B90D21304600F026F99E
:103950000546002330462B703149A36100F000F981
:1039600018BB204604F5D571FFF720FF0027A36997
:10397000BBB3A0680AF01DFBA36920465B6804F591
:10398000D57198472046BDE8F041FFF7C0BD5A1CED
:10399000E261234493F82A100AF0EEFA9BE7411CF7
:1039A00004F5D57000F0EAF8CCE730461D4900F088
:1039B000D7F828B9204604F5D571FFF725FFD5E7DC
:1039C0003046194900F0CCF828B9204604F5D571E5
:1039D000FFF756FFCAE731462046FFF757FEA061C2
:1039E000C5E7012FCEDD637D002BCBD020460F49EC
:1039F000FFF7CEFEC6E794F82A30212B0ED1A3693B
:103A000063B12046FFF783FD0023E361A3692046ED
:103A100004F5D5715B68BDE8F0411847BDE8F08159
:103A2000AC050108B7050108C0050108C505010876
:103A3000034BC1B21B681A6818461268104700BFD2
:103A4000A028002003F040BE07B50749D1F8F027B1
:103A5000D1F8EC37D1F8E8170091044900F048FBA1
:103A600003B05DF804FB00BF00F0FF1FE005010894
:103A700004F084BFF7B5144800F028FB134800F0A9
:103A800025FB0025124FEEB23046FFF7EDFC044651
:103A90003046FFF71FFD68B93046FFF715FDC30735
:103AA0000DD46369384600936168D4E9032300F0BC
:103AB0000DFB04E03046FFF70DFD0128ECD0013589
:103AC000DE2DE0D103B0F0BDE905010800060108D4
:103AD0001C060108F8B50C4900F00AFB00240B4F46
:103AE000E6B23046FFF7C0FC05463046FFF7ECFC77
:103AF000C30704D4D5E90112384600F0E7FA0134CF
:103B0000DE2CEDD1F8BD00BF2F06010851060108DB
:103B10002DE9F041054600240A4FE6B23046FFF792
:103B2000A3FCD0F804803046FFF736FC013403468E
:103B300042463946284600F0DBFADE2CEDD1BDE8DE
:103B4000F08100BF5B06010810B50446FFF794FC46
:103B50002046BDE81040014900F0CABA64060108D9
:103B6000431E013913F8010F11F8012F10B10AB1EA
:103B70009042F7D0801A18BF01207047013911F820
:103B8000013F0BB90370704700F8013BF7E70346AC
:103B900000201A5C02B970470130FAE70346184664
:103BA00013F8012B0AB18A42F9D17047002970B588
:103BB00018DA2D23012400F8013B4942034691FB0A
:103BC000F2F602FB161130311970311E1D4603F159
:103BD0000103F4DC00221A70024695420AD8241A26
:103BE000181904E004D1302341700370012070BD26
:103BF0000024E3E711782E7802F8016B05F801192B
:103C0000EBE730B503782D2B11D14FF0FF340130A5
:103C100000210A25431E01E005FB012113F8012FB5
:103C2000303AD0B20928F7D904FB01F030BD0124A5
:103C3000EEE7000010B5134C014610F8012BA2F17D
:103C40000A03DBB2162B19D824FA03F3DA07F3D4EC
:103C50000846FFF79CFF01380844814204460AD217
:103C6000237801380A3BDBB2162B04D8054A22FA26
:103C700003F3DB07F1D40023637001E0002AE7D1EE
:103C8000084610BD09004000002310B5934200D142
:103C900010BD51F8234040F823400133F6E7013AC4
:103CA00000D2704740F8041BF9E700002DE9F0410D
:103CB00086B06D46214C2F46A188206809F0CEFCC5
:103CC000A188206809F0C8FCA188206809F0C6FC1A
:103CD0000026DFF86C800021404609F038FF0136ED
:103CE000062E27F8020BF6D1002303A835F8021B95
:103CF00001338A08C90B18BF42F44042062B20F852
:103D0000022BF3D1A188206809F0A6FCBDF90C10A4
:103D10009720FFF767FBBDF90E109820FFF762FBB5
:103D2000BDF910109920FFF75DFB9A20BDF9121024
:103D300006B0BDE8F041FFF755BB00BFEC280020FE
:103D4000003C00402DE9F041174682800022013BF3
:103D50000E4601608271082B0BD8DFE803F0080ED5
:103D60000C17151A052624000024032513E001234F
:103D7000837102240BE0012383710224002539465C
:103D8000304609F069FC06E0012383710124002517
:103D900001E0002425463B46224629463046BDE840
:103DA000F04109F01FBC0224DFE701240325E6E708
:103DB00070B50C1EACBF01234FF0FF335C430133E1
:103DC000064608BF2D234FF0640208BF06F8013BEA
:103DD000611104F01F040546544330460A22FFF7E0
:103DE000E5FE2E226411092C3254D8BF302206EB96
:103DF0000003D8BF5A7021464FF00A02CCBF581CAE
:103E0000981CFFF7D3FE284670BDF0B503782D2B24
:103E100017D14FF0FF36013000244FF00A0C02E0BA
:103E200018460CFB0454034613F8012BA2F130058D
:103E3000EFB2092FF4D9AAB98C40144406FB04F060
:103E4000F0BD0126E8E78B4003EB650393FBF5F338
:103E50000CFB05F51A4410F8013F303BDFB2092F87
:103E6000F1D9E9E70A250022AC46F4E72DE9F0474D
:103E7000141E05460F4616DC4FF02008DB0720D540
:103E80000026B94626E00132B95C0029FBD1A242E6
:103E9000ACBF0C46A41A13F0020F14BF4FF0300849
:103EA0004FF02008EAE70022EEE72B684946284653
:103EB0001B689847013E002EF7DC24EAE476A41B39
:103EC000DFE726465FFA88F9F5E72B6828461B6886
:103ED0009847D146CA461AF8011B0029F5D1A246D7
:103EE0005FFA88F8BAF1000F06DCF01B4844002C9A
:103EF000A8BF0019BDE8F0872B68414628461B681B
:103F000098470AF1FF3AEDE72DE9FF470746DDE95B
:103F10000C8A15461C4651B930234246ADF8003094
:103F200069465346FFF7A2FF04B0BDE8F08723B10E
:103F30000A2A2DD100292BDA494200230E9A8DF846
:103F40000D303A3A0DF10D03B1FBF5F005FB1016FB
:103F5000092E88BFB61830368D4203F1FF3903F8B9
:103F6000016C17D964B1B8F1000F16D01AF0020F26
:103F700013D03B682D2138461B68984708F1FF385D
:103F80005346424649463846FFF770FF2044CBE788
:103F90000024D2E701464B46D6E72D22002409F83B
:103FA000012CA3F10209EBE70846FFF741BD000031
:103FB0002DE9F04107460E46144600254FF00A0849
:103FC0008CB033781BB928460CB0BDE8F081252BA6
:103FD00072D17378002BF6D0252B06F101026AD03E
:103FE0002D2B0ABF01230023B21C164612F8011B19
:103FF000302915D00022304610F8011BA1F1300CF9
:104000005FFA8CFEBEF1090F0DD966293FD00ED89C
:10401000632947D064291AD058292ED00136D0E719
:1040200043F00203E1E7064608FB02C2E3E7752915
:1040300026D0782919D07329F0D121682248043478
:10404000002908BF01463846FFF710FF0BE061204A
:104050002146CDE90130012300920A223846096841
:104060000434FFF751FF0544D8E721466120CDE92C
:104070000130009200231022F0E721464120F6E7AC
:1040800061202146CDE9013000920023E5E7216857
:1040900008A8CDE904230434FFF78AFEDDE90423F0
:1040A00008A9D0E7216804348DF81C1000218DF890
:1040B0001D1007A9C7E716463B6838461B683178CC
:1040C00098470135AAE700BFBE0601080FB407B53F
:1040D00004AA52F8041B054B6846CDE90032FFF7ED
:1040E00067FF03B05DF804EB04B07047BC0C010837
:1040F0000EB403B503AA52F8041B0192FFF758FF50
:1041000002B05DF804EB03B07047000038B52A4CEC
:104110002A4D204608F030FE204608F032FE2046A8
:1041200008F039FE204608F031FE0121204608F053
:104130000EFE204608F0D2FD204608F0EBFD20469A
:1041400008F0FBFD1E4A0821204608F029FE204603
:1041500008F05EFE20464FF4602108F0D1FD2846AD
:104160000121184A09F0F0F828460121164A09F001
:10417000F4F828464FF48072012109F09FF8284690
:104180004FF48062012109F08DF860222846012158
:1041900009F0F3F82846012109F09CF8284601218E
:1041A00009F0A1F82846012109F0BCF82046BDE835
:1041B000384008F023BE00BF002401400000024048
:1041C000F42A00204C240140342A0020884205DDD6
:1041D000914208DC9042A8BF10467047904203DC31
:1041E0009142A8BF11460846704737B56D4604682E
:1041F00004F13003F03433F8102C33F8201C33F87A
:10420000300CFFF7E3FF3033A34225F8020BF2D165
:10421000BDF80230BDF800001844BDF80430184461
:10422000BDF806301844C0F38F0003B030BD000065
:1042300008B50D4B98420BD003F5806398420BD024
:10424000A3F5006398420BD1072909DCC8B208BD69
:10425000012905DC0831F9E7052901DC0A31F5E718
:1042600008F044FD1020F2E7000C0140012370B576
:1042700093400C4615460022064611469BB2204646
:1042800009F0B0F929462046FFF7D2FF3368034A08
:104290009B1A034AC3F34F03D05470BD342A002045
:1042A000F42A00200D4B0E4A991C13600D4A116030
:1042B0000D4A191D11600D4A991D11600C4A03F138
:1042C000080111600B4A03F10A0111600A4A03F167
:1042D0000C011160094A0E3313607047342A002024
:1042E000302A00202C2A0020282A0020242A0020FE
:1042F000202A00201C2A0020182A0020142A00202E
:10430000114A124B30B553F8213052F8214019466A
:10431000A342A8BF2146026802F1C8058D4206DB10
:10432000A342B8BF234603F1C804A24202DD0160E4
:10433000002030BD8A4202DA01600120F9E79A428A
:10434000FBDD0360F9E700BF482C0020402C002073
:10435000012970B516D80C4B53F821500B4B53F86C
:104360002160B5420ED0401B0AF056FD0446701B7A
:104370000AF052FD014620460AF056FE04490AF0B2
:104380009FFD70BD0020FCE7482C0020402C002041
:104390000000C842F8B5264B04461D680146284671
:1043A0000AF04AFF00B12546224B29461C682046E8
:1043B0000AF024FF00B12C461F4D21462E683046DE
:1043C0000AF026FF98B1002120460AF035FF60B1BF
:1043D0001A4B304619680AF06BFC214606460AF073
:1043E0002BFF00B1264634461EE0154BF1E70027AF
:1043F000204639460AF016FFB0B9394630460AF071
:104400001BFF00B12F602E68214630460AF0F6FEF1
:1044100050B90B4B304619680AF048FC2146064655
:104420000AF0ECFE0028DED020462C60F8BD00BF6C
:10443000182C0020102C0020E02B0020042C002041
:10444000082C002038B5114A114B1468196804FA79
:1044500001F303441B1B0B4113600E4A1068C01A82
:104460000AF0DAFC0C4B19680AF02AFD0B490446E5
:104470000AF0E2FE00B1094C094B21461D682846AE
:104480000AF0DAFE00B92546284638BD1C2C00206B
:10449000202C0020282C0020242C00200000C842C2
:1044A0002C2C0020F8B505467E200F461646FEF758
:1044B00079FF3946044628460AF0AAFEE8B94FF0CB
:1044C000804138460AF0F4FB29460AF0B5FEB0B147
:1044D000A1B27E2041F01001FEF784FF114C356837
:1044E000002128460AF09EFE58B1214628460AF0CF
:1044F00085FE00B925462F460BE00B4CEFE7002464
:10450000EDE704F10047394628460AF095FE0028F9
:10451000F1D12046044937600AF070FE003818BF18
:104520000120F8BD000048420000C8422DE9F843D0
:10453000044623200E46FEF73DFF2F4FDFF8BC80D8
:1045400038602420FEF736FFC8F800007E20FEF712
:1045500029FFD7F800900546002148460AF06CFE76
:1045600038B3002120680AF05DFE254FADB210B3CC
:10457000494630460AF09AFB22490AF0A1FC002184
:1045800006460AF03BFE00B100263E603146206838
:104590000AF052FE20B17E2045F00101FEF722FF15
:1045A00026683D68304629460AF028FE00B13546A7
:1045B0002560BDE8F8833046D8F800100AF076FB95
:1045C00010490AF07DFC002106460AF035FE00B1D4
:1045D00000263E60314620680AF010FE20B17E20A1
:1045E00045F00201FEF7FEFE26683D68304629468A
:1045F0000AF022FEDAE700BF002C0020FC2B00208E
:10460000E82B0020000060402DE9F8430D46354EB0
:104610003549044630680AF053FC29460AF048FB45
:104620004FF076510AF04CFC30602520FEF7C2FEB8
:104630002E4FDFF8BC8038602620FEF7BBFEC8F89E
:1046400000007E20FEF7AEFED7F800900546002160
:1046500048460AF0F1FD28B3002120680AF0E2FD87
:104660003668244FADB2F8B1314648460AF01EFB19
:10467000002106460AF0C2FD00B100263E60314628
:1046800020680AF0D9FD20B17E2045F00801FEF730
:10469000A9FE26683D68304629460AF0AFFD00B104
:1046A00035462560BDE8F8833046D8F800100AF09A
:1046B000FFFA002106460AF0BFFD00B100263E6069
:1046C000314620680AF09AFD20B17E2045F00401B1
:1046D000FEF788FE26683D68304629460AF0ACFDA4
:1046E000DDE700BF002B002000007041F42B00200C
:1046F000F82B0020E42B0020104B70B51A680668D8
:1047000001EB0214A41A24110546002130461C6056
:104710000AF092FD88B10A4B1B681B1B48BF03338C
:104720009B1023EAE3700AF077FB0446014630460B
:104730000AF082FD00B126462E6070BDFC2A0020E2
:10474000F02B0020F8B50D4A054613780C4F0133C5
:10475000DBB2322B28BF00230A4E386856F82310EC
:1047600013701C460AF0A2FA29460AF0A1FA06497B
:10477000386046F824500AF057FCF8BD042B00209E
:10478000D02B0020082B0020000048420000000031
:104790002DE9F04F054685B0942090460E46FEF771
:1047A00001FE04469B20FEF7FDFD07469D20FEF717
:1047B000F9FD029084EAE470A0EBE4700AF02CFBAF
:1047C000DFF85CA28346DAF8004021460AF06EFA70
:1047D000002101900AF012FD019B08B103F1004392
:1047E000904A1946D2F8009048460AF007FD50B1A9
:1047F000214658460AF020FD4946002848D0204668
:104800000AF056FA8346029BCAF800B0002B00F06B
:10481000FE8058460AF030FD0446B8F1000F3BD048
:10482000632840F3F480804B1D680AF0F5FA2946AE
:104830000AF0E4FC002840F0EA8028460AF01CFD5B
:104840007A4B054618680AF017FD794B641B444300
:1048500018680AF011FD401B94FBF0F00AF0DCFA36
:10486000744B05461860744B18680AF005FD502318
:10487000784390FBF3F00AF0CFFA0446014628464D
:104880000AF0BCFC00B12C46204605B0BDE8F08F14
:1048900020460AF00BFAB5E731462846FFF758FDE7
:1048A000664B05461E68014630460AF0C5FC0028E6
:1048B0005BD1314628460AF0F9F931460546604891
:1048C0000AF0F4F901465E480AF0AEFB29460AF008
:1048D000F7FA05465B4B28461D60FFF733FF01469C
:1048E000064628460AF0E2F9574907460AF086FCD0
:1048F00030B94FF07E5138460AF09EFC00B935467B
:10490000632C4C4E0BDD20460AF086FADFF818A126
:104910000390DAF8007039460AF070FC38B30023CF
:104920003360029B012B64D1484930680AF0C8FA11
:1049300004464649464B18680AF0C2FA21460AF076
:10494000B5F929460AF0BCFA3D490AF06DFB21464B
:104950000AF0AEF909F0A4FE2FA3D3E9002309F071
:10496000F7FE0AF04FF904468EE70025B2E7DFF8BC
:10497000C0B0DFF8B890DBF8003003981946D9F8DA
:10498000008001930AF03AFC80B338460AF074FCC8
:10499000074640460AF070FCE31B03FB00F8019851
:1049A0000AF06AFCC01B98FBF0F00AF035FA3060A0
:1049B000B420FEF7F7FC0028B3D0DAF800000AF0C4
:1049C0005BFCD9F80010074608460AF071F90AF0B6
:1049D00053FCE41B4443DBF800000AF04DFCC01B11
:1049E00094FBF0F00AF018FA30609AE7C6F80080FD
:1049F00097E72220FEF7D6FC08B90023336013495D
:104A000030680AF05DFA11490446124B93E700241E
:104A10003AE700BFAFF300809A9999999999B93F05
:104A2000DC2B0020EC2B0020382C0020342C002024
:104A30003C2C0020D82B0020302C00200C2C0020F7
:104A40000000C842D42B0020000080BF000020419D
:104A5000182C0020142C0020024B00BF013BFCD17D
:104A6000704700BF00127A0010B50446002240F2E1
:104A7000215102F02AF8002240F22251204602F091
:104A800024F8002240F22351204602F01EF80022B2
:104A900040F22451204602F018F8002240F225513D
:104AA000204602F012F8002240F22651204602F081
:104AB0000CF8002240F22751204602F006F820466A
:104AC000BDE8104000224FF4A56101F0FEBF0000D8
:104AD000002313B5054A40F21141CDE900230368D4
:104AE0006A465C680823A04702B010BD340001008C
:104AF0003222002313B5CDE9002303686A465C68BF
:104B000040F211410823A04702B010BD002313B5A5
:104B1000054A40F21141CDE9002303686A465C680A
:104B20000823A04702B010BD340101002DE9F7436E
:104B30000026174B04461E702025FFF7C9FF4FF0D3
:104B40004209FFF789FF4FF4C848236801966A4677
:104B500040F2114120465F688DF8005008238DF81F
:104B60000190ADF802800135B847EDB22046FFF75D
:104B700073FFFFF7BDFFFFF76FFF292DE5D120463B
:104B8000FFF7C4FFFFF768FF03B0BDE8F08300BF85
:104B9000E01B0020D0F80220014B1A60704700BFD4
:104BA0006C2C0020D0F80220014B1A60704700BF27
:104BB0005C2C0020D0F80220014B1A60704700BF27
:104BC000582C0020D0F80220014B1A60704700BF1B
:104BD000542C0020054A1388013313800A22D0F890
:104BE000023093FBF2F3024A13607047702C0020EE
:104BF000502C0020D0F80220014B1A60704700BFF3
:104C0000642C0020D0F80220014B1A60704700BFCE
:104C1000682C0020D0F80220014B1A60704700BFBA
:104C2000602C002003466FF4A46213440846072B4F
:104C300015D8DFE803F00406080A0C0E1012FFF77F
:104C4000A9BFFFF7AFBFFFF7B5BFFFF7BBBFFFF7C8
:104C5000C1BFFFF7CFBFFFF7D5BFFFF7DBBF70477F
:104C60000161704781617047007A7047007A704730
:104C70000C4B1B688BB90C4B1B6883B90B4B1B6827
:104C8000003B18BF01235B00094A1268003A18BFB5
:104C90000122427742EA030070470823F4E7042325
:104CA000F2E700BF782C00207C2C0020742C002020
:104CB000882C0020002343727047C37A01200B70B8
:104CC000704710B504460022616008464FF49871A1
:104CD00001F0FBFE00224FF4CA71606801F0F5FE9E
:104CE00000224FF4CC71606801F0EFFE6068002292
:104CF000BDE810404FF4CF7101F0E7BE10B4046876
:104D00006468A44610BC60474CF6F10313B5ADF8D7
:104D10000030036804465B6B9847A0B9FF237F21EE
:104D2000F1228DF8023000238DF803108DF8043045
:104D30008DF8052006236A4640F2B3316068FFF71C
:104D4000DDFF02B010BD0023F0221946E9E74FF263
:104D5000CD3313B5ADF80030036804465B6B98475C
:104D600000280CBF092300238DF80230FF238DF8A3
:104D700003304FF0FF336A4601934FF46D710823FF
:104D80006068FFF7BBFF02B010BD00002DE9F743DC
:104D90000546D0F810909C20FEF704FB374E2B6898
:104DA000376880465B6B2846BCB29847002858D0CD
:104DB00040F2E5304845B8BF4846800080B209F06F
:104DC0005DFC00222E4B09F0EDFD09F0FBFE1FFA01
:104DD00088F3C3EBC31203EB021203EB82036422DA
:104DE000DB009BB2B3FBF2F2B3F5FA7F5FFA82F815
:104DF0005FFA80FEC0F307213BD3FE204FF0940CF6
:104E0000C2F30F2204F1AA034344134473440B4436
:104E1000634403449CB21BB2002BB8BFFF3304EBC6
:104E200023238DF800308DF803208DF805106A4695
:104E30008DF807000823AA2168688DF801708DF8A5
:104E400002808DF804E08DF806C0FFF757FF326846
:104E50004E2A02F1010308BF4023336003B0BDE8CE
:104E6000F0834FF0F40C0146864602464FF0FB08F3
:104E7000C8E7FE204FF0800C0022C3E7E81B0020AB
:104E80000000F83F4FF6FF7313B5ADF800303C2338
:104E90008DF80230036804465B6B984798B9014669
:104EA000FC220F238DF803008DF804108DF80520E7
:104EB0008DF806306A4607234FF4DB716068FFF710
:104EC0001DFF02B010BD02209621F0222623E9E743
:104ED000002307B5064A4FF44271CDE9002340682C
:104EE00008236A46FFF70AFF03B05DF804FB00BF22
:104EF0005401400013B50446DD20FEF753FA0022AA
:104F00000A4B8DF804200093C3B29B1A18BF0123EB
:104F1000ADF806208DF805306A46082340F28A2154
:104F20006068FFF7EBFE02B010BD00BF9001B80B48
:104F300010B50A4B04461B780BB1FFF7A3FF637A49
:104F40000BB901236372236820465B6B984720B13D
:104F50002046BDE81040FFF7CDBF10BD8C2C0020CF
:104F600073B506468520FEF725FA3B4909F0A0FEF9
:104F70003A4904460AF060F9002847D120460AF071
:104F80007BF95D234FF4FA72434393FBF2F303F191
:104F9000320009F041FF324909F08AFE8E23314C7C
:104FA0008DF800300AF08EF923782F4D8DF80230FD
:104FB000CE238DF80330FF238DF804302B786A461A
:104FC0008DF8053048F2FD434FF4E8718DF801008B
:104FD000ADF8063070680823FFF790FE234B1A687F
:104FE000032A01BF6022227002221A60204B22781D
:104FF000196869B1012910D01E4B2A781968042953
:1050000011D8DFE801F00C1C1E2022001A48C5E769
:105010000132227001221A60EEE70022FBE7013222
:105020002A7001221A6023786F2B10D1602323701D
:105030002B78FF2B04BF00232B7002B070BD02221F
:10504000F0E70322EEE70422ECE70022EAE70F2B69
:10505000EED10023EBE700BF0000C842004003444C
:1050600000004042A62C0020A52C0020902C0020FF
:10507000A02C00209C2C002000004B4337B54FF0A3
:10508000FF3504460A4B6A46CDE9003540F29241AD
:1050900008234068FFF732FE064B6A46CDE900352B
:1050A0004FF4936108236068FFF728FE03B030BD1A
:1050B0001642FFFF2242FFFF37B5134B134C1B78FC
:1050C00022788DF80030124B8DF803201B78114A9E
:1050D0008DF80130FF23127840688DF804208DF898
:1050E00005308DF8023003686A465D684FF4E97157
:1050F0000623A84723781033DBB2EC2B08BF0C2320
:10510000237003B030BD00BFEF1B0020F11B002057
:10511000EE1B0020ED1B00204FF0FF3307B5064AC1
:1051200040F2DE41CDE90023406808236A46FFF7DC
:10513000E5FD03B05DF804FB0042FD014FF0FF33D5
:1051400007B5064A40F29251CDE900234068082392
:105150006A46FFF7D3FD03B05DF804FB402200313F
:105160004FF0FF3307B5064A40F29251CDE90023D4
:10517000406808236A46FFF7C1FD03B05DF804FBF1
:10518000402200304FF0FF3307B5064A40F29251FB
:10519000CDE90023406808236A46FFF7AFFD03B05E
:1051A0005DF804FB40E500314FF0FF3307B5064AD8
:1051B00040F29251CDE90023406808236A46FFF788
:1051C0009DFD03B05DF804FB4014FF304FF0FF334A
:1051D00007B5064A40F29251CDE900234068082302
:1051E0006A46FFF78BFD03B05DF804FB40270031F2
:1051F00037B504469E20FEF7DDF81B49054609F049
:10520000FDFF00B1184D28460AF036F84FF47A72C7
:10521000A0F10A035343462293FBF2F3A3F5CB50CC
:10522000043809F0F9FD114900F1004009F0FCFED5
:105230000AF048F8822340F232318DF804008DF8EC
:1052400005306068022301AAFFF758FD2846084987
:1052500009F0F2FF28B12046FFF7B8FF2046FFF71C
:105260006DFF03B030BD00BF000020410000484288
:10527000000070420023064A1360064A1360064A83
:105280001360064A1360064A1360064A13607047AB
:10529000882C0020842C0020802C00207C2C0020D6
:1052A000782C0020742C0020B1F5CC7F70B504461A
:1052B00000F08E8006DCB1F5987F09D0B1F5CA7F89
:1052C0004FD070BDB1F5CF7FFBD19B2091795AE1D2
:1052D0001378AF49452B1ED10D682DB1012DF0D1AA
:1052E000FFF73EFF2572ECE7FFF728FF0322A94BEB
:1052F00020461A70E122A84B25721A700F22A74B84
:10530000E5721A70F022A64B1A70A64B1D60BDE81C
:105310007040FFF7AFBF552BA34A04D101230B60A8
:1053200003231360CDE700230B6011680372022989
:1053300002BF9E4913600B700321964AC37211701D
:10534000E121954A11700F21944A1170F021944A7D
:105350001170944A1360FFF78DFFBDE87040FFF7AE
:1053600023BF1368924A6FF30F03934229D010D8DA
:1053700013F1607F06D0A2F580329342A1D10122C1
:105380008C4B1A6000238C4A13608C4A13608C4A41
:10539000C7E713F15C7F09D013F1507F91D100234F
:1053A0000121854A1360854A1160F0E70023814A94
:1053B0001360814A1360814A13600122804B1A6096
:1053C0007FE701237B4A13607B4A13600023DCE7FD
:1053D00013687C4A23F0FF03934200F082803AD89E
:1053E000A2F53432934200F09C801CD8A2F5F03232
:1053F000934200F0AD8002F5704293427FF461AFBA
:1054000001212F20FDF7EEFF00211220FDF7EAFF1A
:1054100003230622E3725F4B1A7078225E4B1A70E8
:105420006F225E4B8FE0684A934267D002F570426C
:1054300093427FF446AF0121564A00231170B421F4
:10544000554AE37211700F21544A1170F021544AE9
:105450001170544A65E75D4A93425BD024D802F14B
:105460007B4202F534329342E5D002F5704293421A
:105470007FF427AF02212F20FDF7B4FF0321122074
:10548000FDF7B0FF9D20FDF78DFF013003D1002116
:105490002F20FDF7A7FF0F22404B1A70F022404B40
:1054A0001A7000223F4B8AE7494A934219D002F50D
:1054B000F03293427FF405AF00250321C57212201C
:1054C000FDF790FF0322334B1A70E122324B1A7022
:1054D0000F22324B1A70F022314B1A70314B1D6083
:1054E000EFE600212F20FDF77DFF01230222E3726A
:1054F000284B1A70D222284B1A70CCE702212F2099
:10550000FDF770FF03230822E372224B1A70782202
:10551000214BF1E702212F20FDF764FF0321122028
:10552000EEE700212F20FDF75DFF00211220FDF79F
:1055300059FF03230522E372164B1A707822164B8B
:105540001A705F22154B1A70F222154B1A70B8E6CA
:10555000144E3568002D7FF4B4AE02212F20FDF7E4
:1055600041FF03230822E3720A4B29461A7078226E
:10557000094B12201A700F22084B1A70F122084BA7
:105580001A7001233360BDE87040FDF72BBF00BFE8
:10559000942C0020EC1B0020EF1B0020EE1B0020B1
:1055A000ED1B0020982C0020902C0020A62C002021
:1055B000000082FC882C00207C2C0020782C00200D
:1055C000742C00200020CDC00040CBC00040CBC5D3
:1055D0000020CDC50000000013B50446A420FDF74F
:1055E000E1FE6061B420FDF7F3FE78BB606909F06D
:1055F00045F81DA3D3E9002309F0AAF809F0E2FA5F
:1056000040F6F91283B25343A322B3FBF2F31A49D3
:1056100003F520420968DBB2C2F30722E9B1012990
:105620000CBFFD20FC208DF8003000238DF80120F8
:105630008DF802008DF8033001936A4608234FF479
:1056400000716068FFF75AFB02B010BD606909F095
:1056500015F807A3D3E90023CEE7FC2080220B46F0
:10566000E1E700BFAFF30080EE8D960DAF47803FBE
:105670009573522D5CB5903F882C002010B5184BC7
:1056800004461B78F3B1FFF717FD2046FFF744FDF2
:105690002046FFF7ADFD2046FFF7F0FC2046FFF760
:1056A0009BFF2046FFF75CFC2046FFF72DFB2046C2
:1056B000FFF74DFB8820FDF775FE0E2820460BDC1A
:1056C000FFF760FD236820465B6B984738B12046A2
:1056D000BDE81040FFF7FCBBFFF766FDF2E710BD29
:1056E0008C2C00202DE9F743444B454C0546894658
:1056F000187821788DF8000043180F2003F2B722A4
:1057000002EB1223ADF802008DF805300020EF23E4
:10571000FF278DF804008DF8061068688DF80730B3
:105720006A460823BA218DF80170FFF7E7FA23785B
:10573000344E0133DBB28F2B08BF802323702B68DC
:10574000D6F8008028465B6B1FFA88F4984700283B
:1057500052D0B9F1000F0CBF022062203A4604F586
:105760009573034403EB420399B21BB2002BB8BFFD
:10577000FF3301EB23238DF8003070238DF80330C5
:105780000F238DF805300323D2B28DF802208DF857
:1057900004208DF806306A468DF8070008236868F3
:1057A000A8218DF80180FFF7A9FA3268164C7E2AED
:1057B00002F1010308BF702333602378A9218DF81B
:1057C000013003F20F3249F6A373ADF802300F4BEC
:1057D00002EB12228DF8002001936A4608236868C4
:1057E000FFF78CFA23780133DBB20F2B08BF0023BD
:1057F000237003B0BDE8F083FE22B0E7EC1B00206D
:10580000F01B0020E41B0020A42C002019CC3F003A
:1058100038B50446AD20FDF7C5FD154D2368287049
:105820005B6B204698472B78A3B90023114A13607D
:10583000114A1168022902D1104913600B7003222A
:1058400023720F4B1A70E1220E4B1A700F220E4B6F
:105850001A700CE02046FFF799FAA820FDF7B8FD72
:1058600001462046FFF73EFF2B78002BDDD038BDE8
:105870008C2C0020942C0020902C0020A62C0020A2
:10588000EC1B0020EF1B0020EE1B0020406970473E
:1058900008B5B0F9080009F0BFFA08BD08B5B0F9BD
:1058A0000C0009F0B9FA08BD014B1878704700BF29
:1058B000382D00200000000038B51D48FEF795FC8B
:1058C00005461C48FEF791FC0446284608F0D6FE23
:1058D00013A3D3E9002308F03BFF13A3D3E900236C
:1058E00008F080FD09F08EF90546204608F0C6FE56
:1058F0000BA3D3E9002308F02BFF0BA3D3E900236C
:1059000008F070FD09F07EF904460146284609F0CA
:1059100093FC00B12C46204638BD00BFAFF3008099
:105920001213371BE91495BF988F7B2556484C40BE
:105930002C2A0020282A002070B506460D461A4C55
:105940000721204607F084FC20460721174A07F06C
:10595000FBFC32462046072107F0FFFCAAB2204696
:10596000072107F00AFD2046072107F0D2FC204658
:10597000072107F0AFFC20460022072107F09EFC1C
:1059800020460022072107F08DFC20464FF480526C
:10599000072107F07BFC2046072107F0C3FCBDE888
:1059A0007040034808F0F8BA000002400444004088
:1059B0000044004038B50546194C0621204607F042
:1059C00047FC20460621174A07F0BEFC2046062168
:1059D000154A07F0C2FCAAB22046062107F0CDFC0A
:1059E0002046062107F08CFC2046062107F072FCB9
:1059F00020460022062107F061FC204600220621F5
:105A000007F050FC20460022062107F03FFC20460C
:105A1000062107F087FCBDE83840044808F0B7BA13
:105A20000000024004440040A72C00200044004035
:105A300008B5034699889B7900682BB107F011FEE1
:105A4000B0FA80F0400908BD07F00BFE003818BF1F
:105A50000120F8E770B504462F20FDF7A3FC00B243
:105A60000228E0812BD1A820FDF79CFC2C492D4B6E
:105A700040B1B4F90C20C82A04DD0A78E281002282
:105A80001A7070BD0A782848002A33D141F288354F
:105A9000B4F90C60AE4201DD012505700078824248
:105AA00039D001221A70214A92F90050204A15B9C2
:105AB0001578013515701578042D25D1E081B4F9DC
:105AC0000E30012B08D11B48FBF7D8FE1A48FBF714
:105AD000D5FE1A48FBF7D2FEB4F90E30002BD0D118
:105AE0001448FBF7CBFE1448FBF7C4FE1348FBF742
:105AF000C1FEC6E7012AD1D140F2DB55B4F90C60F2
:105B0000AE42CBDC0025C8E7052DD8D108700021B6
:105B100011701970D3E7E28100221A70CFE700BF3D
:105B2000352D0020372D0020342D0020362D00206B
:105B3000332D0020242900201C29002014290020B6
:105B40002DE9F843054612208846FDF72BFCC4B228
:105B5000A820FDF727FC5E4B81461B78012B5AD10C
:105B60005C4F2846FFF776FF97F90060304609F052
:105B700053F9414609F0A4F908F092FD52A3D3E984
:105B8000002308F0E5FD09F03DF85349804609F08F
:105B900097F9524909F048FA09F06EFB2862B9F109
:105BA000000F06D0B5F90C30B3F5167FBCBF00234B
:105BB0002B622A6A4A4913B20B8013EB8303494DC7
:105BC00048BF03339B102B80474B197841B1002EFF
:105BD00006DD053E76B2002EB6BF00233E703B7058
:105BE00097F90030632B00DC29B1032C11D8DFE8D2
:105BF00004F0090D0B5705335BB2642BC8BF642357
:105C00003B70F2E7002A04DA364B00E0344B002206
:105C10001A80BDE8F883022B1ED12F49404609F0B7
:105C20004FF92E4909F000FA09F026FB2C4A03B27D
:105C3000138013EB83032B4948BF03339B10286267
:105C40000B800CB90028DEE7012C02D10023138061
:105C5000DFE7022CDDD1D7E7032BDAD11E4940461E
:105C600009F02EF91D4909F0DFF909F005FB1C4A7E
:105C700003B2138013EB8303286248BF0333194D2B
:105C80009B102B80032CC4D801A353F824F000BF31
:105C9000455C00080D5C0008095C0008A15C000878
:105CA0004046124909F0C8FA08B92880B1E74046D1
:105CB00009F0E2FA41F2171332385843322390FBCD
:105CC000F3F0F2E7AFF300807B14AE47E17A843F54
:105CD000432D0020362D002000C05A450000C84248
:105CE0003A2D00203C2D0020372D00200000484296
:105CF00010B57920FDF756FB08B902F00BFD7920AD
:105D0000FDF750FB012848D13020FDF74BFB80B256
:105D100002F000FD2148FFF78BFE80F00101C9B2BF
:105D2000AF20FDF75FFB1E48FFF782FE80F0010108
:105D3000C9B2B020FDF756FB1A48FFF779FE80F094
:105D40000101C9B2B120FDF74DFB1648FFF770FE07
:105D500004461348FFF76CFE84F0010380F0010451
:105D600064000E4844EA8304FFF762FE64B280F0E8
:105D7000010044EA00035BB20B4C062B237003D1F5
:105D80000021B420FDF72EFB2378052B05D1BDE8BB
:105D900010400121B420FDF725BB10BDE4290020EF
:105DA000DC290020D42900203E2D0020034B1B7845
:105DB000012B01D1FFF79CBF704700BF432D00208E
:105DC00000220B4870B5134605468C1E944209DC30
:105DD000294411F8012C285D40EA0220C31A5842D8
:105DE000584170BD10F8016B013233449BB2EDE7AE
:105DF000A72C0020002070B5084C034622468D1EBB
:105E0000854205DC53550A441B0A02F8013C70BD6B
:105E100014F8016B013033449BB2F1E724210020D8
:105E2000F8B5B64D04462B780E2B3ED8DFE813F0BC
:105E30000F0016003B003E007600BB00BD00DC00FA
:105E4000DE000A0180018C01A501A701D6016420B2
:105E5000FFF7B0FDAA48FBF711FD1EE0A94CA848CA
:105E6000FBF708FD23787BB902220721A64807F03B
:105E700004FA90B107210222A34807F0F9F9502152
:105E8000A248FFF759FD08E05021A148FFF754FD53
:105E9000A04B5B7823B9012323702B78013303E0F7
:105EA0002378013BF8E703232B70F8BD6421FFF74B
:105EB00087FF984E984F38B90021A4206181A181B5
:105EC0003970FDF78FFA23E0022206218E4807F091
:105ED000D4F90028F0D0022206218B4807F0C8F937
:105EE00001233B70B6F85230053B03EBD3735B10D4
:105EF000238196F92A0008F08FFF606196F9560019
:105F000008F08AFFF388A0616381B6F81F30A3818F
:105F1000002386F8623086F86330BEE77F4E962015
:105F2000B6F90010FDF75EFA6189A289774B0A4441
:105F3000712112B292FBF1F279491A70B1F9002085
:105F40000978880083F84B0090115242C2F307226F
:105F50009A711A7332884942120ADA7683F821203C
:105F6000782283F83F20EC2283F840206C2283F8CB
:105F700041206B22C9B25971D972317883F84C0033
:105F8000997683F820102046502183F84220FFF7AD
:105F900031FF644A1388642B8EBF002301339BB208
:105FA0001380002380E7782052E7564C5448FBF7D3
:105FB00061FC2378052B0ED902220721524807F0F5
:105FC0005CF900283FF469AF072102224E4807F030
:105FD0004FF9642154E76421534801FB0300FFF7A4
:105FE000ABFC2378013357E708235DE77821FFF7FF
:105FF000E7FE484E484F00283FF45EAF02220621DC
:10600000414807F03AF900283FF456AF0222062132
:106010003D4807F02DF901233B70B6F86430053B8D
:1060200003EBD3735B10238196F9140008F0F4FEA0
:106030006061B6F8560008F0EFFEF388A061638156
:10604000F38C64E7354E9620B6F90010FDF7CAF9D7
:10605000334A2E4B11785278307859719A71D9722F
:106060001A733188B6F90020266A090A002E98773B
:10607000D97738DD02EBD27252101A77C2F30722B9
:106080009876D9765A77752183F84A10122183F8C9
:106090004B106021402283F84C10252183F84820C2
:1060A000042283F84D10522183F8492083F84F20B1
:1060B000892283F84E101D4983F8562083F8582012
:1060C0000A7820460132D2B20A70D20748BF93F84C
:1060D0005E204FF0640144BF013283F85E20FFF779
:1060E00089FE0523E0E6CED002EBD27252109A76FA
:1060F000C2F3072218775977DA76C4E7422D0020D9
:10610000D42800208D2100200000024024210020FE
:106110000D0E0108A72C0020382D00203A2D00205C
:106120003C2D0020402D0020681E00203F2D002027
:106130007920FDF737F901281CBF00223F4B4FF0B3
:106140008C0018BF1A7083E63C4C3D48FBF792FB6D
:106150002378062B0ED9022207213A4807F08DF842
:1061600000283FF49AAE07210222364807F080F853
:10617000692185E6692134482FE70D2394E68C21B7
:10618000FFF71EFE314E08B3022206212D4807F00C
:1061900074F8D8B1022206212A4807F069F80123D1
:1061A00033702B4EB6F875305B10238196F91400CE
:1061B00008F032FE6061B6F8190008F02DFE738910
:1061C000A0616381B6F82B30A38166E60021A4208C
:1061D0006181A1813170FDF705F95EE61D4E9620C3
:1061E000B6F90010FDF7FEF81B4B2046B3F900206E
:1061F0001A4B5242D1B2C2F307229A711A73B6F9FE
:1062000000205971DA77121283F820209A7ED97211
:1062100083F82520DA7E692183F82620782283F806
:106220004F20EC2283F85020102283F8512027229F
:1062300083F85220FFF7DEFD0A2335E68D2100208A
:10624000D428002000000240F21B0020382D00203E
:10625000A72C00203A2D00203C2D002024210020D6
:1062600038B5037F04468B420D460AD051B1592000
:10627000FDF798F808B9FCF739FEFCF76DFE01232D
:10628000237738BD4FF0804007F0C6FC2577F8E74C
:1062900008B50121FFF7E4FF0B4B1A78042A04D854
:1062A00005221A700022094B1A7000230849094A76
:1062B00011F8010B0133642B02F8010BF8D1022213
:1062C000054B1A7008BD00BF422D00208D21002013
:1062D000400D010824210020432D002008B5012194
:1062E000FFF7BEFF064B1A78042A04D900221A7061
:1062F0000122044B1A700122034B1A7008BD00BF23
:10630000422D00208D210020432D0020012108B5C1
:10631000FFF7A6FF0A4B0B491A78092A9CBF0A22ED
:106320001A700022084B1A706923084A11F8010BF1
:10633000013B02F8010BF9D10322054B1A7008BD8D
:10634000422D0020A40D01088D21002024210020D1
:10635000432D00200021FFF783BF0181704700001B
:1063600008B5084608F088FFA622A0F10F035343A2
:10637000412293FBF2F3024A5833138008BD00BF59
:10638000442D0020A720FDF723B810B504460022B5
:106390006160084640F2531100F097FB60680022EC
:1063A000BDE8104040F2F31100F08FBB40F25313F0
:1063B000994210B5044610D1B2F80100A0F5B070B2
:1063C00008F02AFD4FF0765108F07AFD014695203D
:1063D000FDF716F80123E37203E040F2F31399424C
:1063E000F8D010BD10B50446C07A10B90348FFF7C5
:1063F0001FFB00232073E37210BD00BF0C2A002096
:1064000008B50248FFF714FB08BD00BF0C2A0020A6
:1064100007B540F2EE22038940F21631934238BFAD
:1064200013460522ADF8002041F65832934228BFAA
:1064300013460A229B01B3FBF2F3ADF802300023AE
:106440006A46019340680823FEF758FC03B05DF8E4
:1064500004FB000007B5154A154913788DF8003084
:10646000144B1B888DF80130C523ADF80230002392
:1064700001930B780133DBB2162B28BF00230B707E
:106480005BB91123137008236A4640F22931406832
:10649000FEF734FC03B05DF804FB082B01D1862322
:1064A000F0E70F2BEFD1D923ECE700BF482D0020F8
:1064B000492D0020442D0020462313B5ADF80430AB
:1064C000002340688DF80630036840F23B415C6869
:1064D00001AA0323A04702B010BD000007B50D4A72
:1064E00040F245511388406801339BB2138000226B
:1064F0008DF801301B0A8DF80230074B8DF8002013
:106500008DF8032001936A460823FEF7F7FB03B0DA
:106510005DF804FB462D00207E10001807B5D1B1B0
:1065200001291AD001310CBF072308238DF801304F
:106530004FF6FF738122ADF80230094B8DF8002031
:1065400001936A46082340F23F414068FEF7D6FBBC
:1065500003B05DF804FB0623E8E70523E6E700BF88
:106560000080FFFF037B10B50446BBB1FFF750FF6F
:106570002046FFF76FFF2046FFF7B0FF2046FFF7EA
:106580009BFF0320FCF724FF40B19D20FCF70AFF8E
:1065900041B22046BDE81040FFF7C0BF10BD0181E9
:1065A00070477047A720FCF713BF000008B5084BE1
:1065B000186899889B792BB107F053F8B0FA80F0EE
:1065C000400908BD07F04DF8003818BF0120F8E772
:1065D0000C2A002030B51F4A1F4B89B0CDE901239A
:1065E0001E491F4B1F4CCDE903131F4B1F4D059335
:1065F0000023ADF8193023784FF4B06163F07F03C6
:106600008DF818302B68406820336B4413F81C2C2D
:106610008DF81B2013F8182C8DF81C2013F8142C5F
:106620008DF81D2013F8102C13F80C3C8DF81E204B
:106630008DF81F3006AA0823FEF760FB2B68013394
:1066400003F003032B602378013303F00F0323705F
:1066500009B030BD0F287F281E1000107056F0566C
:106660000C48A7484A2D0020469028904C2D002029
:1066700037B540F2EE2203890025934238BF134616
:1066800041F65832934228BF1346044603819A00CC
:106690009B09CDE900554FF420718DF803308DF83A
:1066A000042008236A464068FEF728FB08236A4650
:1066B0004FF4227160688DF803508DF80450FEF796
:1066C0001DFB03B030BD000008B5034BB3F900005B
:1066D00008F0A2FB08BD00BF5C2D002008B5034BED
:1066E000B3F9000008F098FB08BD00BF5E2D002044
:1066F00008B5024B188808F08BFB08BD622D0020FE
:1067000008B5034BB3F9000008F086FB08BD00BFD5
:10671000602D0020064B1A78064B0AB91A7001E06A
:10672000012AFBD0044A126802B91A70187870471F
:10673000582D0020592D0020542D002010B504465E
:106740000022616008464FF4C87100F0BEF90022D3
:106750004FF4CD71606800F0B8F900224FF4D271A7
:10676000606800F0B2F960680022BDE810404FF4A4
:10677000D77100F0AAB900002DE9F341064608469A
:10678000344908F09DFB08F077FD334B01B29620A9
:106790001980FCF727FE7920FCF704FE0546A920A6
:1067A000FCF716FE044618B16B1E5C425C41E40027
:1067B000AA20FCF70DFE18B1012D04BF1034E4B27D
:1067C000A820FCF705FE08B10434E4B2012D3AD14B
:1067D000224A13881BB1013B02341380E4B2972094
:1067E000FCF7E0FD05469820FCF7DCFD8046D12053
:1067F000FCF7D8FD00F00307A420FCF7D3FD184BED
:10680000C5F30B0503EA083345EA04651D43C0F3ED
:106810000D0040EA873045EA87750190009506F043
:10682000F5FC0221684606F0FFFC019B6A4643EA3C
:1068300000637068019303683F215C680823A047E8
:1068400002B0BDE8F081002DC9D14FF49672034B20
:106850001A80C4E7000020415A2D0020502D00204E
:1068600000F0FF00B1F5D27F06D113880A22B3FBF6
:10687000F2F30E4A13807047B1F5C87F03D1128836
:106880000B4B1A807047B1F5CD7F08D113880A22CF
:10689000B3FBF2F3074A13800022074BF1E7B1F58F
:1068A000D77F02BF1278054B1A707047622D002007
:1068B000602D00205E2D00205C2D0020582D002032
:1068C00008B57920FCF76EFD074B186058B9074BE7
:1068D0001880074B1880074B1880074B1880074B10
:1068E0001870074B188008BD542D0020622D002021
:1068F000602D00205E2D00205C2D0020582D0020F2
:106900005A2D002008B5B0F9140008F085FA08BD2A
:1069100008B5B0F9120008F07FFA08BD08B5008B81
:1069200008F076FA08BD08B5B0F9100008F074FA5E
:1069300008BD807D704740F2992399420FD040F204
:106940003373994213D040F28923994218D1538866
:10695000A3F59C43203B038253680383704753781D
:106960001279934238BF1346283B4382704712681E
:10697000C2F30743D2B2934238BF1346283B838207
:1069800070470000302337B5044640680093036821
:106990006A465D6840F271310823A84760680D4A75
:1069A0000D4B40F28521CDE9002303686A465D68FE
:1069B0000823A8474FF074514FF404136068CDE9E1
:1069C000001303686A465C6840F286210823A047EA
:1069D00003B030BD000010398FFE0C1010B5044616
:1069E00000226160084640F2892100F06EF8002222
:1069F00040F29921606800F068F860680022BDE804
:106A0000104040F2337100F060B8000010B5044649
:106A10000846094908F054FA084908F005FB0849F6
:106A200008F046F908F04EFCE0610146BDE8104070
:106A30009620FCF7D7BC00BF0000FA440000C84213
:106A400000401C4613B5037A0133DBB2052B02D09C
:106A5000037202B010BD0022C369027240681B04B9
:106A6000CDE9003203686A465C6840F2872108235A
:106A7000A047EEE7014B0360704700BF440F0108D9
:106A800070477047074A02600022C0F8F420C0F83F
:106A9000FC20054AC0E94022C0E94222C0F810218A
:106AA000704700BF7C0F010890210020D0F8FC3017
:106AB000042BDFBF03F14002013340F82210C0F87D
:106AC000FC30D4BF012000207047D0F8F43070B5FE
:106AD0001D2B15DC05460024A3420BDC00EB8304D0
