:020000040800F2
:1010000000500020F5E20008F1E20008EFE20008DD
:10101000EFE20008EFE20008EFE200080000000045
:10102000000000000000000000000000F1E20008E5
:10103000F1E2000800000000F1E20008F1E200081F
:10104000EFE20008EFE20008EFE200085524000894
:10105000EFE20008EFE20008EFE20008EFE200082C
:10106000EFE20008EFE20008EFE20008EFE200081C
:10107000EFE20008EFE20008EFE20008EFE200080C
:10108000EFE20008EFE20008EFE20008517B000801
:10109000317B0008417B0008EFE20008EFE2000826
:1010A000EFE20008EFE20008EFE20008EFE20008DC
:1010B000EFE20008EFE2000849240008EFE2000830
:1010C000EFE20008EFE20008EFE20008EFE20008BC
:1010D000EFE20008EFE20008EFE20008EFE20008AC
:1010E000EFE20008EFE20008EFE20008EFE200089C
:1010F000EFE20008EFE20008EFE20008EFE200088C
:10110000EFE20008EFE20008EFE20008EFE200087B
:10111000EFE20008EFE20008EFE20008EFE200086B
:10112000EFE20008EFE20008EFE20008EFE200085B
:10113000EFE20008EFE20008EFE200087D7B000824
:101140005D7B00086D7B0008EFE20008EFE200081D
:1011500010B404466468084611461A46234610BC7B
:101160001847836818477047704770477047704743
:1011700041607047704770477047704770477047CD
:1011800070470020704700207047000000487047FB
:101190000000484200207047416070477047704728
:1011A0007047704770470020704741607047704734
:1011B0007047704770477047002070477047416024
:1011C00070470020704770477047704770477047FE
:1011D000002070477047416070477047002070479B
:1011E00070474160704770470846704770477047C6
:1011F0007047704700487047003C1C46416070478C
:10120000704770477047704770474160704770473C
:101210000020704700207047002070470020704772
:101220000020704770477047104B10B5186803686E
:101230001B6898470E4B186803681B6898470D4B4E
:10124000186803681B6898470B4B186803681B688D
:1012500098470A4B186803681B689847BDE8104018
:10126000074B186803689B68184700BF1C000020E4
:1012700018000020100000200C00002008000020B2
:101280000000002010B5174C206803689B69984740
:10129000052002F0ABF8062818D8DFE800F0040AB1
:1012A0000C0E1012200000220F4B1A700F4B2360FF
:1012B0000CE00F4BFBE70F4BF9E70F4BF7E70F4B3A
:1012C000F5E701220E4B23600E4B1A700E4C20687E
:1012D00005F0ECFB6068BDE8104005F0E7BB0B4B88
:1012E000E5E700BF100000203A2A00204C2900202A
:1012F000442900203C2900206C290020642900207A
:1013000024290020102A00202C2A00205C290020FB
:1013100010B5104C20680368DB699847042002F080
:1013200065F8042806D8DFE800F0030E0510120067
:10133000094B2360094C206805F0B8FB6068BDE8E4
:10134000104005F0B3BB064BF3E7064BF1E7064B45
:10135000EFE700BF0C000020542900202C2A0020B9
:101360001C290020142900200C29002010B5114C44
:10137000206803685B689847062002F037F8013858
:10138000042813D8DFE800F0140E0E0310000A4BF7
:1013900023600A4C206805F089FB6068BDE81040B6
:1013A00005F084BB064BF3E7064BF1E7064BEFE78E
:1013B000064BEDE704000020482700202C2A0020DF
:1013C00018270020DC26002070270020502700204E
:1013D00010B50B4C206803685B689847442002F006
:1013E00005F8084A084B012808BF13462360074C3C
:1013F000206805F05BFB6068BDE8104005F056BB57
:1014000000000020C4260020D42600202C2A002022
:10141000022010B501F0EAFF022811D0032811D0F4
:10142000094B0A4A012818BF1346094C094A20688B
:10143000136005F03BFB6068BDE8104005F036BB6B
:10144000054BF2E7054BF0E7B4270020B826002053
:101450002C2A002008000020A82700209C2700201C
:1014600010B5012001F0C2FF08280FD8DFE800F016
:10147000171C250E05091F0E2200114B114A1A6078
:1014800004E00F4A104B136000229A720F4C206840
:1014900005F00CFB6068BDE8104005F007BB084A8A
:1014A000094B13600122F0E7054B094AE7E7044BBB
:1014B000084AE4E7024B084AE1E7014B074ADEE746
:1014C0001800002084270020BC2900202C2A00209E
:1014D000CC290020B0290020EC290020782700200A
:1014E000036810B59B6898470EF05AF8002401462F
:1014F000962001F09BFF2146912001F0A5FF214697
:10150000922001F0A1FF2146942001F09DFF214689
:10151000BDE81040952001F097BF000010B51B4CAE
:10152000206803689B6A9847002001F05FFF082845
:101530000FD8DFE800F005080A0E271C2117290044
:10154000134B236005E0134BFBE71348206004F0C6
:1015500099FE124C206805F0A9FA6068BDE81040B9
:1015600005F0A4BA0C48206004F0A4FEF1E70A4894
:10157000206004F061FEECE7094B01222360094B77
:101580001A70E6E7084BDCE7084BF6E71C00002082
:10159000FC280020742900208C2900202C2A0020FF
:1015A000DC280020102A0020042900209826002092
:1015B00010B5124C206803681B6998474B2001F056
:1015C00015FF02280DD0032812D008B90C4B236058
:1015D0000C4C206805F06AFA6068BDE8104005F020
:1015E00065BA094B0948196820600AF099F8EFE7D5
:1015F0000122074B2360074B1A70E9E71400002013
:10160000D42800202C2A0020942600208C2700209B
:10161000C8280020102A0020B52001F0FDBE0000DF
:101620002DE9F74F082001F0E1FE444C54F820105A
:101630000920019101F0DAFE54F820600A2001F03F
:10164000D5FE54F820500B2001F0D0FE54F820A015
:101650000C2001F0CBFE54F820B00D2001F0C6FEA6
:1016600054F820900E2001F0C1FE54F82070102094
:1016700001F0BCFE54F82080112001F0B7FE54F8B0
:101680002030019900932E4B18680368DB6A984755
:101690002C4B314618680368DB6B98472A4B594638
:1016A00018680368DB699847284B51461868036837
:1016B0001B6A9847264B4946186803681B69984778
:1016C000244B4146186803685B699847224B3146B2
:1016D000186803689B6998473946204808F0C2FE9D
:1016E0001F4B0099186803685B699847072001F051
:1016F0007DFE012802D1284603F08AF9072001F077
:1017000075FE022802D1284608F0F0F8072001F003
:101710006DFE032802D1284608F084FA002240F228
:101720000161606805F0A5F9002240F201612068BE
:1017300003B0BDE8F04F05F09CB900BF2C2A002093
:101740001C00002018000020100000200C000020C9
:10175000040000200000002008000020C026002017
:101760001400002038B540F2DF73984204460D465D
:1017700006D10A4601462C4808F07CFE002038BD00
:10178000072001F033FE012803D12946204603F04B
:101790001DFA072001F02AFE022803D1294620461F
:1017A00008F0E4F8072001F021FE032803D12946C0
:1017B000204608F067FA1D4B2A4618682146036840
:1017C000DB6898471A4B2A461868214603681B694C
:1017D0009847184B2A461868214603681B699847A2
:1017E000154B2A461868214603681B699847134B16
:1017F0002A461868214603681B689847104B2A46FA
:101800001868214603681B6898470E4B2A461868DB
:10181000214603681B6998470B4B2A4618682146E6
:1018200003681B689847A9E7C02600201C00002019
:1018300018000020100000200C00002004000020F0
:1018400000000020080000201400002008B5084B0C
:10185000186899889B792BB10CF097F8B0FA80F052
:10186000400908BD0CF091F8003818BF0120F8E7D6
:10187000A02C0020818800680CF082B88188006864
:101880000CF080B82DE9F74F9C2001F0AFFD8146A8
:10189000812001F0ABFD0446AB2001F0A7FD074617
:1018A0000CF054FA05F094FEA34BDFF89082186810
:1018B00003685B689847812001F098FD0128054680
:1018C00040F0B4800FFA89F989EAE970A0EBE97079
:1018D00080B206F0D5FC002106460DF023FE98B13B
:1018E000002001F083FD04280ED01E2001F07EFDB3
:1018F000002840F09580B9F1000FB8BF4FF0FF35D8
:10190000BD4218BF06F1004638460DF019FC3146BD
:101910000DF06AFC0546D8F8000003685B6898473C
:10192000D8F8000029460368DFF814A21B6998471D
:10193000D8F80000834E03681B6A98470DF030FE0C
:1019400005B229469C2001F071FD082001F04EFDF2
:101950005AF8200006F0D6F9012C01D0042C08D149
:10196000306885EAE5710368A1EBE5719B6989B28E
:1019700098473768AC203B68D3F81C9001F03EFDD7
:1019800001463846C847306803685B6898476E4B25
:1019900018680368DB6898476C4B186803685B68D5
:1019A0009847042C46D16A4B186803685B689847CF
:1019B000284606F029FB0746A52001F017FD8146C1
:1019C000132001F013FD8346342001F017FD019030
:1019D000242001F013FD39460DF0C2FD3946B0FA5E
:1019E00080F501980DF0A8FDB0FA80F3D945D4BF79
:1019F0004FF000094FF001096D095B09ED0045EA60
:101A0000830545EA89152946842001F00FFD042C41
:101A100073D8DFE814F025003B01B3001701320151
:101A2000B9F1000FA8BF4FF0FF3569E706F0DEFC03
:101A3000002575E7052001F0D9FC032804D1444BAB
:101A4000186803685B689847012CB1D1DF2001F06A
:101A5000CDFC411C01F00F01DF2001F0E7FCA7E7FE
:101A60000025DFF8F0803C4F3C4888F800503D707E
:101A7000FFF704FF3A48FFF701FF3A48FFF7FEFE81
:101A80003948FFF7FBFE3948FFF7F8FE2946AB203F
:101A900001F0CCFC3068DFF8D89003685B699847A8
:101AA000A52089F8005001F0A1FC0546132001F0A3
:101AB0009DFC854213DA306803689B6B984770B1D0
:101AC000306803685B6B984748B1012489F800408F
:101AD0000CF03CF988F800400224264B1860264B95
:101AE0001B7833B10CF032F9224B02241860012329
:101AF0003B702146812001F099FC072001F076FC23
:101B0000022807D10A2001F071FC5AF82010204663
:101B100007F03EFF072001F069FC032840F0C88071
:101B20000A2001F063FC5AF82010204603B0BDE8FB
:101B3000F04F08F0E3B800BF0C0000201C000020AC
:101B40002C2A00201800002000000020080000209F
:101B500010000020122A0020112A0020002C002052
:101B6000402C0020302C0020F02B0020382C0020AE
:101B7000142A0020902600203A2A0020DFF838910D
:101B800099F80030002B48D1D8F800204B4B9A42EE
:101B900002D04B48FFF76EFE4A48FFF76BFE4A48FB
:101BA000FFF768FE4948FFF765FE4DB9484B1A78C4
:101BB000002A3DD0294686201D70012401F036FC04
:101BC000444B1B7823B199F80030002B08BF002448
:101BD000414B1B7833B1306803685B6B9847002832
:101BE00008BF0024342001F001FC0DF0A9FA3946A9
:101BF0000DF0B6FC00283FF47CAF0CF0A7F8374B93
:101C00001B68053398427FF674AF3048FFF736FE05
:101C1000032005F0E3FC03246BE7072001F0E6FB5B
:101C20000028B9D1D8F800202D4B9A42B4D1B0E7A2
:101C300099F80030002BC3D02946862001F0F6FB2E
:101C40000424BDE70022224B20481A70FFF716FE3D
:101C5000204B1B7823B1184B1B78002B08BF0024A6
:101C60001D4B1B78002B3FF444AF306803685B6B5F
:101C70009847002808BF00243BE71A48FFF7FAFD01
:101C800005F0CEFC0C4B1C78A40032E71548FFF79A
:101C9000F1FD0B48FFF7EEFD0121812001F0C6FBAD
:101CA00005F0BEFC306803685B6B9847044620E78C
:101CB00003B0BDE8F08F00BF3A2A002004290020BD
:101CC000002C0020302C0020F02B0020382C00208D
:101CD000142A0020112A0020122A00209026002019
:101CE00074290020402C0020818800680BF050BE31
:101CF0002DE9F0416248FFF7F7FF0BF053FE614B0F
:101D0000614E186801F03FFB0DF01AFA5F490DF0C3
:101D10001FFB0146E02001F097FB05F08DFC01461A
:101D2000832001F083FB812001F060FB584C0746C3
:101D30003168206806F0EAF8072001F057FB08B187
:101D400006F060FB2068534D03689B6A9847014684
:101D5000B32001F06BFB20680368DB6A98470146FB
:101D6000B12001F071FB06F07FFB286803689B68D7
:101D70009847206803689B689847474B1868036832
:101D80009B689847454B18680368DB689847444B45
:101D9000186803681B699847306803689B68984710
:101DA000404B186803689B6998473F4B186804F0DC
:101DB000CBFE3E4B1B780BB10AF09AFB28683C4ED9
:101DC00003689B6998470146AC2001F03DFB2868F9
:101DD00003685B6998470146AD2001F035FB286830
:101DE00003685B6A98470DF0ABF90146C12001F02A
:101DF0002BFB28682F4D0368DB69984701468B2031
:101E000001F022FB206803685B6B98470146C02005
:101E100001F00CFB284BAE20196801F007FB274BA3
:101E20001B78012B03D0042B01D02B781BB1306819
:101E300003689B6898473068DFF88480036898F8E7
:101E400000105B699847044640B1012F1EBF012274
:101E50001C4B1A7001232B70BDE8F0812B7833B135
:101E60000146822001F0E2FA164B2C701C7030689B
:101E700098F8001003689B699847134B1870EBE7BC
:101E8000502C00203C2A00200800002000002041A7
:101E9000180000201C00002010000020040000207A
:101EA0000000002014000020282A0020102A002012
:101EB0000C000020392A0020E42E0020262A0020D1
:101EC000242A00203A2A0020132A002000000000C3
:101ED0002DE9F347812001F089FA044660B97920A1
:101EE00001F084FA40B1AA48FFF7FEFEA948FFF7C7
:101EF000FBFEA948FFF7F8FEA84BDFF8A48218689C
:101F00000368DB689847042C04D1D8F80000036804
:101F1000DB68984706F02CFBA24BDFF88CA219680F
:101F2000D420A24F01F082FAD520DAF8001001F097
:101F30007DFAD620396801F079FA9D4B9D4E1968DB
:101F4000D720DFF8749201F071FAD820318801F0BF
:101F50006DFA0AF0F3F80AF029F90AF05FF90AF0CD
:101F600095F90AF0CBF90AF001FA0AF037FA0AF00B
:101F70006DFA99F80030914D022B2ED1904B1B78C1
:101F80005BBB042C1AD1DFF83CA28F4FDAF800308B
:101F9000002B41D1002355202B7001F027FA4FF47C
:101FA00096735843CAF800003B68B3F5967F14D186
:101FB00000233B603388013B33800EE0834ADAF82C
:101FC000003012789A4225D1814A3B6812789A42B1
:101FD00020D13388F3B101232B7099F8003023BB53
:101FE000774B1B780BB901232B70D8F80000794A86
:101FF000036812785B692978984708B1012C18D1D9
:10200000754B1E78DEB93146822001F00FFA734B12
:102010001E7014E00023DFE73A68013B0132CAF882
:1020200000303A60002BBFD1B4E7012BDDD1002393
:10203000DAE70121694B8220197001F0F7F9684F46
:102040003B78012B02D9033B012B0AD8654E30683F
:102050000368DB6898473B781BB930680368DB6826
:102060009847042C29D15C4B1E781EBB872001F0B9
:10207000BDF90446392001F0B9F984420CDB8D200A
:1020800001F0B4F904463B2001F0B0F98442DFBF0F
:1020900001224B4B2E701A70534B186803689B68D3
:1020A000984700210DF034FA20B1002301222B7053
:1020B000434B1A7002B0BDE8F087012CFAD1002220
:1020C0003F4BAB201A7001F091F900284BD001284A
:1020D0004BD0013014BF0023A8238DF801304FF4FA
:1020E00080530022414CADF80230414B20688DF8FE
:1020F0000020019303686A464FF400715D6808236D
:10210000A8479C2001F072F90546AB2001F06EF95A
:1021100000284FF0C200B8BF6D4201F07DF930BB1E
:1021200028460CF03FFC16A3D3E900230CF0A4FCD6
:102130000CF0B4FE4FF4B073ADF800304FF44053E0
:102140005843252390FBF3F020302A4B40BAADF8DA
:1021500002002068019303686A465C6840F22451DB
:102160000823A047A6E78023B7E7A823B5E72846BA
:102170000CF018FC04A3D3E90023D7E7AFF30080E9
:10218000EE8D960DAF47803F9573522D5CB5903F15
:10219000302C0020382C0020402C0020180000207B
:1021A000100000200C2A0020082A0020042A002009
:1021B000002A0020202A0020252A0020242A00208E
:1021C000382A00201C2A0020182A0020232A002058
:1021D000222A0020132A0020392A00203A2A00202F
:1021E000262A00200C000020040000202C2A0020B9
:1021F000003BD0005A01C002FEE700000C2838B5B1
:1022000010D80C2816D8DFE810F0C800CB00DD008D
:102210001500D100CE00D7001500E000E000E0007E
:10222000E000E0004B2800F0C48000F2AA804428BF
:1022300000F0C5801E2001F0D9F840B1002001F067
:10224000D5F8082803D000211E2001F0EFF8132054
:1022500001F0CCF8614D624C2860142001F0C6F802
:102260002060152001F0C2F86860162001F0BEF869
:102270006060172001F0C2F85A4D5B4C28601820AE
:1022800001F0BCF820602E2001F0B8F8574B21680F
:10229000186028680DF046F950B15549172029609B
:1022A000544D256001F0D0F82946182001F0CCF8F3
:1022B000192001F0A3F8504B504C1860292001F070
:1022C0009DF84F4B18602A2001F098F84D4B18608C
:1022D0002C2001F093F84C4B1860212001F086F877
:1022E0004A4B18601B2001F089F8494B18601F20E9
:1022F00001F084F8474B18602B2001F07FF8464B23
:1023000018601A2001F07AF8444B1860052001F09B
:102310006DF8042001F06AF8414B18702378012B06
:1023200022D1522001F062F83E4B1860512001F09A
:102330005DF83D4B1860502001F058F83B4B186099
:102340004F2001F053F83A4B1860532001F04EF83B
:10235000384B1870542001F049F8374B187055204D
:1023600001F044F8354B1880402001F03FF8207010
:10237000552001F03BF84FF496735843304B1860EA
:1023800038BD692805D866287FF654AF00F04AFEAC
:1023900050E77A380428F9D94CE7FFF7BFF849E746
:1023A000FFF75EF846E7FEF76DFF43E7FEF7B0FF85
:1023B00040E7FFF7FDF83DE7FEF7D8FF3AE7FFF704
:1023C00007F837E7FFF724F834E71E4C206804F0DD
:1023D0006DFB606804F06AFB2CE700BFDC2E002078
:1023E000D42E0020D02E0020CC2E0020802E0020C5
:1023F0000080BB440000C842C82E0020252A0020CF
:10240000AC2E0020A42E0020A02E0020842E002020
:102410009C2E0020982E0020A82E0020C42E0020E4
:10242000262A0020002A0020042A0020082A002052
:102430000C2A0020232A0020222A0020202A002003
:102440001C2A00202C2A0020014B186800F064BFD1
:102450003C2A002008B500200BF0B4FC104B1A6891
:1024600001323B2A1A600F4A05D911680131116007
:1024700019683C39196013683B2B0B4B05D9196857
:102480000131196011683C3911601A68172A06D9A0
:1024900006490A6801320A601A68183A1A6008BDCB
:1024A000002A0020042A0020082A00200C2A0020EC
:1024B000F0B5ADF68C2D00F0FDFB00F029FD0022FB
:1024C000C149C24801F0A8FE0422BF49C04801F03A
:1024D000A3FE0522BC49BF4801F09EFE0022BE4972
:1024E000BE4801F099FE0122BB49BD4801F094FEAF
:1024F0000222B949BB4801F08FFE0322B649BA480F
:1025000001F08AFE0E22B449B84801F085FE04238A
:102510004022B749B74801F0ECFB04238022B449BC
:10252000B54801F0E6FB04234FF40042A649B34846
:1025300001F0DFFB04231022B149B24801F0D9FBBE
:1025400004230822AE49B04801F0D3FB04234FF422
:102550000052A749AD4801F0CCFB04234FF4804260
:10256000A349AB4801F0C5FB04234FF40042A04946
:10257000A84801F0BEFB04230122A749A74801F0A7
:10258000B8FB04230222A449A54801F0B2FB0723AB
:102590000422A149A34801F0ACFB072308229E496D
:1025A000A14801F0A6FB072380228B499F4801F038
:1025B000A0FB0723402288499D4801F09AFB07238E
:1025C000202285499B4801F094FB0723012288497A
:1025D000994801F08EFB072302228549974801F0B4
:1025E00088FB0125072320228B49954801F081FBB8
:1025F000072320227E49934801F07BFB072310220A
:102600007B49914801F075FB07234FF480726E49B6
:102610008E4801F06EFB072380227F498C4801F031
:1026200068FB07234FF4807271498A4801F061FB0F
:10263000072310227849884801F05BFB072380229A
:102640006F49864801F055FB0723042268498448F6
:1026500001F04FFB072308226549824801F049FB3E
:1026600007234FF480426C497F4801F042FB072367
:102670004FF4005258497D4801F03BFB07234FF4CB
:1026800080525B497A4801F034FB07234FF4007213
:102690005149784801F02DFB07234FF480724E49D1
:1026A000754801F026FB07234FF480625A497348AE
:1026B00001F01FFB07234FF400625749704801F0F7
:1026C00018FB07234FF4805253496E4801F011FB69
:1026D00007234FF4005250496B4801F00AFB0723CF
:1026E0004FF480624249694801F003FB07234FF42D
:1026F00000723F49664801F0FCFA07234FF400627C
:102700003B49644801F0F5FA0723402242496248F8
:1027100001F0EFFA072340222B49604801F0E9FA63
:102720000723802228495E4801F0E3FA07230122AB
:1027300033495C4801F0DDFA0723022230495A4848
:1027400001F0D7FA07234FF400723349574801F0DC
:10275000D0FA04234FF400421F49554801F0C9FA4A
:1027600001F0AAFC53494FF000700BF0FFF800F0A5
:102770005DFB00F08DFB04F0FCFE00F0FBFA00F0C6
:1027800027FB00F04FFCF220FFF738FD2F48FFF742
:1027900075F8C4AC0023484A4849009539A800F0B0
:1027A000F5FE0DF26C57002302222046444905F045
:1027B00017F9022243492B46384605F011F9424BDE
:1027C0000F20049382E000BF00080140C42C0020C9
:1027D000C02C0020BC2C002000100140B82C002090
:1027E000B42C0020B02C0020AC2C0020A82C002001
:1027F00000140140A02C0020982C0020902C0020D8
:10280000000C0140882C0020802C0020782C002017
:10281000702C0020682C002000180140602C002043
:10282000582C0020502C0020482C0020402C002048
:10283000382C0020302C0020282C0020202C0020B8
:10284000182C0020102C0020082C0020002C002028
:10285000F82B0020F02B0020E82B0020E02B00209C
:10286000D82B0020D02B0020C82B0020C02B00200C
:10287000B82B0020B02B0020A82B0020A02B00207C
:10288000982B0020902B0020882B0020802B0020EC
:10289000782B0020702B0020682B0020602B00205C
:1028A000582B0020502B0020482B0020402B0020CC
:1028B000382B0020C0004000C00F01080048004035
:1028C0000064004000680040E8F600084C4B4D4EA4
:1028D00005934D4B069300F089FD2A46002814BF4E
:1028E000394621460DF5F96004F0BEFD0DF5F9629B
:1028F000214619A807F094FE294619A807F0ACFE56
:10290000204604A9C6E9004704F0A4F804A9384603
:1029100004F0A0F83D4B0DF5F9621A603C4B0A201B
:102920001A6000F063FD56F820700E2000F05EFD86
:1029300007AC56F82010374807F094FD4FF4964244
:102940003549204608F062FD344B1C600FACFEF7A1
:10295000E5FDFEF785FDFEF795FCFEF7D9FCFEF7D9
:1029600005FDFEF725FEFEF733FDFEF751FD2C4970
:10297000204600F07BFC2B4B2A4620462A491C604F
:1029800000F094FC0A222046284900F08FFC6422C3
:102990002046274900F08AFCC8222046254900F03D
:1029A00085FC782000F022FDA84202D1384602F0D2
:1029B00091F80421802000F039FD0021812000F0F1
:1029C00035FD1D48FEF75AFF1C48FEF757FF1C480F
:1029D000FEF754FF1B48FEF751FF1B48FEF74EFF62
:1029E0004FF0000439A88DF80F4000F089FF1E9BBE
:1029F000002BF7D10DF10F011AA805F093FFF1E7B5
:102A0000651700082C2A0020211600082430002019
:102A1000282A0020C02600200038014094260020EB
:102A2000000800403C2A00202912000885180008F0
:102A3000F11C0008D11E0008802B0020A02B0020D4
:102A4000982B0020902B0020882B002010B500240C
:102A50004D4B4E4A1C741A604D4B4E4A1C771A60FF
:102A60001C81DC724C4A4D4B4D481A604D4B4E4A0E
:102A70001A604E4B4E4A1C621A601C774D4A4E4BF0
:102A80001A604E4B4E4A1A604E4B4F4A1A604F4BDB
:102A90004F4A1A604F4B504A1A60504B504A1A60C6
:102AA000504B514A1A60514B514A1A60514B524A8D
:102AB0005C751A60DC82514A514B1A60514B524A84
:102AC0001A60524B524A1A60524B534A1A60534B87
:102AD000534A1A6003F0A2FF524B534A53491A60FB
:102AE000534B544A54481A60544B554A1A60554B3C
:102AF000554A1A60554B564A1A60564B564A1A6048
:102B0000564B574A1C721A60564B574A1A60574B1D
:102B1000574A1A60574B584A1A60584A584BC2E9EC
:102B2000024413600023136153619361D361554ADA
:102B30001160554A5549C2E904441160C2E906448E
:102B4000136253629362D3625149524AC2E902440A
:102B50001160C2E90444D361136253629362D36289
:102B6000136353634C4B148393634C4B4C4A1A606E
:102B70004C4B4D4A1C731A604C4B4D4ABDE81040FB
:102B80001A6008F03DBC00BFEC290020B815010810
:102B9000CC2900205410010808120108BC2900208B
:102BA000DC280020B0290020501201088C290020C8
:102BB0009C10010800140108742900206C290020D1
:102BC0009014010864290020BC1401085C2900202D
:102BD00050160108542900201CF700084C29002039
:102BE00048F7000844290020E81401083C29002087
:102BF00064140108242900204C1501083814010828
:102C00001C29002014290020241601080C2900206A
:102C1000B01701080429002098120108FC280020A0
:102C2000F8F70008D428002074F700086418010899
:102C3000C8280020E418010898260020C028002099
:102C4000D4F70008B427002000160108A8270020A8
:102C5000081701089C2700202C1701088C2700204A
:102C6000E41601088427002030F8000878270020A7
:102C7000801801087027002098F7000850270020CE
:102C800030150108482700201827002014150108D6
:102C9000C8180108DC2600200000FA43D4260020D2
:102CA000B4F70008C426002098150108B8260020B3
:102CB000F8F6000808B50AF083FF02200AF058FF72
:102CC0004FF0E0232A4A40F20230C3F80C2D0AF0FC
:102CD000BBFF40F203300AF0B7FF4FF441700AF037
:102CE000B3FF40F205300AF0AFFF40F206300AF0C1
:102CF000ABFF40F292300AF0A7FF40F291300AF0A9
:102D0000A3FF40F20E300AF09FFF40F20B300AF0B2
:102D10009BFF4FF460700AF097FF40F281300AF099
:102D200093FF40F282300AF08FFF4FF420700AF0D8
:102D30008BFF40F209300AF087FF40F286200AF04C
:102D400083FF4FF440700AF07FFF40F299300AF0A1
:102D50007BFF40F29A300AF077FF40F28E300AF0A3
:102D600073FFBDE8084040F28F300AF06DBF00BF2E
:102D70000003FA0573B50024134D23462246202193
:102D80002846CDE900440BF093F8214628460BF085
:102D900087F80E4E28460BF075F828460BF07BF8A6
:102DA00030464FF42043022203210AF0AFFD3046A3
:102DB0004FF48043012221460AF0A8FD284602B0C4
:102DC000BDE870400BF052B800380040000C0140E4
:102DD00013B5154C4FF080514FF000700AF0C6FD4E
:102DE00020464FF4A053022203210AF08FFD204613
:102DF0004FF40063012200210AF088FD0022A4F5AF
:102E0000544401231821CDE9002220460BF050F84C
:102E100020460BF037F820460BF03DF8204602B074
:102E2000BDE810400BF022B80010014010B5164C60
:102E300004232046022203210AF068FD0823012210
:102E400020460021A4F544440AF060FD20460F49C5
:102E50000BF0ECF9204608210BF0FCF9204600218C
:102E60000BF001FA20460C210BF009FA2046002154
:102E70000BF0FFF9204600210BF007FA2046BDE8D1
:102E800010400BF008BA00BF0008014020A1070065
:102E900008B511200BF09AFAF02111200BF0A2FADC
:102EA00010200BF093FAF02110200BF09BFA1E205B
:102EB0000BF08CFA00211E200BF094FA14200BF07A
:102EC00085FAE02114200BF08DFA13200BF07EFA26
:102ED000E02113200BF086FA28200BF077FA4FF44C
:102EE00000400AF009FC01214FF400400AF0E0FB29
:102EF00006494FF400400AF00DFC03200BF066FA7F
:102F0000BDE80840202103200BF06CBA00180140F6
:102F100008B54FF2234103200AF08EFF00200AF08B
:102F20001FFF00200AF04EFFBDE8084000200AF015
:102F300027BF0000022210B5174C11464FF4007352
:102F400016480AF0E3FC20460AF0FAFF002320228C
:102F5000194620460AF0CDFF204620210AF0F5FF51
:102F60000722204600210AF0F4FF002120460BF042
:102F7000F5F820460BF04CF920464FF4C8720021BA
:102F80000BF036F920464FF488610AF0E0FF204646
:102F9000BDE810400AF0CFBF002C014000180140EE
:102FA00008B5022303211A461D480AF0AFFC4FF072
:102FB00080400AF0C5FF00234FF080401A461946B2
:102FC0000AF097FF00214FF080400AF0BEFF4FF05B
:102FD00080400AF097FF4FF080400AF0A7FF8F2152
:102FE0004FF080400AF0B3FF02214FF080400BF019
:102FF000DAF8062202214FF080400AF0AAFF0221EF
:103000004FF080400BF0AAF84FF080404822022198
:103010000BF0EEF8BDE808404FF080400AF08BBF9F
:1030200000080140692038B500F0E0F9102808D107
:1030300002220123114687480AF068FC0024254635
:103040000DE0692000F0D2F9112840F092800222B0
:10305000012311467F480AF059FC0024012568200D
:1030600000F0C4F9102840F0998002228023114614
:1030700079480AF04BFC672000F0B8F9102840F0BE
:10308000AE8002224023114673480AF03FFC734889
:103090000AF056FF002171480AF039FF6F480AF024
:1030A00031FF062200216D480AF053FF062202215B
:1030B0006A480AF04EFF0622042168480AF049FFD8
:1030C000002166480BF00BF8022164480BF007F86A
:1030D000042162480BF003F8002160480BF019F856
:1030E00002215E480BF015F804215C480BF011F842
:1030F00000215A480BF032F8022158480BF02EF804
:10310000042156480BF02AF8002D40F08980002C4D
:1031100040F086807B2000F069F901464F480AF0B4
:1031200016FF7C2000F062F9214602464B480BF066
:103130005FF87D2000F05AF90221024647480BF063
:1031400057F87E2000F052F90421024643480BF064
:103150004FF8012141480BF060F87A2000F046F961
:1031600001463E480AF0F1FEBDE838403B480AF00F
:10317000E2BE692000F03AF9122808D102220123A8
:10318000114634480AF0C2FB0124002567E70723F3
:1031900001223049324800F0ACFD4FE7682000F0D2
:1031A00025F9112807D10222802311462A480AF066
:1031B000ADFB01255FE7682000F018F9122807D160
:1031C00002228023114624480AF0A0FB012452E782
:1031D000072380222049234800F08BFD4BE767201E
:1031E00000F004F9112807D10222402311461A48A1
:1031F0000AF08CFB01254AE7672000F0F7F8122857
:1032000007D102224023114613480AF07FFB012414
:103210003DE7072340221049134800F06AFD36E7D6
:1032200041F68C110D480AF092FE012200210B4854
:103230000AF0DEFF0122022108480AF0D9FF01222C
:10324000042106480AF0D4FF012104480AF0E5FFF2
:103250000A2186E7000C01400008014000040040FC
:10326000502B0020582B0020602B002038B50C4636
:103270000546016208460AF045FE20460AF051FE66
:10328000084B20461968084BB1FBF3F101390AF0ED
:103290005CFE20464FF6FF710AF059FE00232846D7
:1032A0006B6238BD40250020A0860100F8B5436A56
:1032B0000446032B0E4615462ADC006A0AF040FE3F
:1032C000144F636A0122F95C206A0AF042FE636AC5
:1032D0000022F95C206A0AF08BFF0221636A05EB89
:1032E000850505EB850503F10802AD0044F8236070
:1032F000994024F81250206A0AF0EEFD0021206A5D
:103300000AF091FF206A0AF016FE636A01336362D5
:10331000F8BD00BF70F800082DE9F8430446002509
:103320004FF0020800F11006636A206AAB4208FA07
:1033300005F70ADC3946206A0AF0D8FD0135042D6C
:1033400006F10206F0D1BDE8F88339460AF0C8FD5F
:10335000A8B1206A0AF065FF236A3188343353F834
:10336000252081460A4443F8252054F82530984703
:10337000206A0AF056FFA0EB09003081DAE7636AA1
:10338000AB42DBDCD6E7002170B500F10E03446AE6
:103390004FF47A7508468C4200DC70BD5A8933F8C8
:1033A000026F6A43B2FBF6F201311044F3E700000A
:1033B00010B51C24084A04FB0022D4688C4209DCA6
:1033C00012698A4206DB054A42F82010FEF716FF12
:1033D000002010BDFF20FCE7E803002020000020B3
:1033E000014B53F82000704720000020024B53F897
:1033F00020004011704700BF2000002008B5054B99
:1034000053F820000BF09CFE4FF074510BF0ECFED3
:1034100008BD00BF20000020034B53F820004011DE
:10342000431E58425841704720000020024B49017A
:1034300043F82010704700BF20000020014B43F8E4
:10344000201070472000002010B5044608464FF0B9
:1034500084410BF0C9FE0CF0A3F8024B43F82400A2
:1034600010BD00BF2000002070B506460024074DA7
:103470003146686800F098FB08B9E0B270BD0134CD
:10348000F22C05F11C05F3D1F320F7E7E803002047
:103490000023064A118B814201D1D8B27047013313
:1034A000F22B02F11C02F5D1F3207047E803002053
:1034B0001C22024B02FB0030704700BFE8030020D3
:1034C0000023064A0649108B10B1506941F82300C9
:1034D0000133F22B02F11C02F5D17047E803002002
:1034E00020000020014B1954704700BF402A0020E3
:1034F000024B1A5C11431954704700BF402A002048
:10350000024A135C23EA010313547047402A002047
:10351000014B185C704700BF402A00201C22024B60
:1035200002FB0033987E7047E80300200048704794
:103530000FBB0300024B1A68024BC3F85C2E7047A6
:1035400034240020E8030020202180680AF0C9BE4E
:1035500080680AF0BEBE10B504464368597A5868C0
:103560000AF07DF8636804F12A02597A58680AF073
:1035700088F863688022597A58680AF092F863687C
:10358000BDE81040597A58680AF060B870B5026119
:1035900040F201120D464C49828201600121002255
:1035A000817580F8281004460421C0E9062280F8BD
:1035B000202042629DF81020856080F82920434A2F
:1035C0000373426062681068A84206D1404A1460E2
:1035D00062683BB9D068138A06E01C320139626028
:1035E000F0D1F3E75069138B022203210AF08EF920
:1035F00028464FF4E1310AF019FE284608210AF066
:1036000029FE28464FF400510AF02DFE28460C21D1
:103610000AF035FE284600210AF02BFE002128463C
:103620000AF033FE28460AF046FE28460AF048FE15
:1036300063682E1D197A586809F09EFF6368197A2D
:10364000586809F0FAFF63683246197A58680AF038
:103650000FF863680022197A586809F0C3FF63689D
:103660000022197A586809F0B1FF6368197A58681E
:1036700009F0C4FF6368597A586809F07DFF6368F0
:103680003246597A586809F0F3FF63680022597A84
:10369000586809F0A7FF63680022597A586809F052
:1036A00095FF6368597A586809F0A8FF63685868FD
:1036B000597A09F0CBFF2046FFF74DFF28460AF064
:1036C000EAFD204670BD00BF4C0F0108500F0108F5
:1036D000342B002038B5437D0D4604691BB9002406
:1036E000204638BD0834216821B1284600F05CFA34
:1036F0000028F7D12368002BF2D1F0E738B5044653
:103700000D4663680222197A586809F04AFF18B911
:1037100094F82830002BF4D06368197A586809F0BF
:103720009EFF6368AAB2197A586809F0BAFF94F844
:103730002020636804EBC212197A5868AA3209F093
:10374000A0FF63680222197A586809F025FF6368B0
:10375000197A586809F07AFF94F82030B3FA83F3A5
:103760005B0984F82030002384F8283038BD837D3D
:1037700010B50A46044623B9BDE8104080680AF037
:103780008FBD94F82030406ADB01234403440A2AA9
:1037900000F1010183F8AA2001D07F2805D120463D
:1037A000FFF7ACFF0023636210BD6162FCE7802A73
:1037B00030B428BF80220C460021914202D130BC97
:1037C000FFF79CBF90F82030655C00EBC3130B44FF
:1037D00083F8AA500131F0E738B5054608460C4693
:1037E00000F0F9F9214602462846BDE83840FFF7C7
:1037F000DEBF000010B50446084600F03FFA00F0B6
:1038000024FA237D227B8342636811D101216175F3
:103810005AB158691B8B032102220AF077F820461F
:10382000BDE810400949FFF7D7BFD8681B8AF2E707
:10383000002161753AB158691B8B0122BDE8104027
:1038400000210AF063B8D8681B8AF6E70F0901085F
:1038500030B5044685B0084600F010FA0378302BE6
:1038600026D0322B144D18BF4FF46125637DA3B1D0
:103870000A22294601A800F0BDF920460F49FFF7AA
:10388000ABFF20460E49FFF7A7FF204601A9FFF72F
:10389000A3FF20460B49FFF79FFF2946A0680AF0C7
:1038A000C5FC0021A06805B0BDE830400AF0DBBCD3
:1038B0004FF4E135DAE700BF105522000E09010888
:1038C00014090108E00E010810B50446084600F08E
:1038D000D5F9037823B1303B18BF012384F8293090
:1038E00094F829302BB104492046BDE81040FFF779
:1038F00073BF0249F8E700BF230901082D09010839
:103900002DE9F04143680446597A586809F0C2FE2F
:103910000546C0F1800710B92046FFF71CFE94F859
:103920002930A06813B1E369BB4254DB08210AF0D7
:10393000D8FC10B1A0680AF0CCFC002F40F39280B4
:10394000651B95F8A9300A2B01D00D2B77D1636840
:10395000597A586809F083FE012F37D00022E31905
:1039600004F12A0683F82A2020213046E26100F083
:1039700039F990F800800546B8F1000F33D10A21DB
:10398000304600F02FF9054684F8AA812B7823B938
:103990000D21304600F026F90546002330462B70F5
:1039A0003149A36100F000F918BB204604F5D57138
:1039B000FFF720FF0027A369BBB3A0680AF08DFCC6
:1039C000A36920465B6804F5D57198472046BDE899
:1039D000F041FFF7C0BD5A1CE261234493F82A105E
:1039E0000AF05EFC9BE7411C04F5D57000F0EAF894
:1039F000CCE730461D4900F0D7F828B9204604F539
:103A0000D571FFF725FFD5E73046194900F0CCF80E
:103A100028B9204604F5D571FFF756FFCAE73146AD
:103A20002046FFF757FEA061C5E7012FCEDD637D7D
:103A3000002BCBD020460F49FFF7CEFEC6E794F807
:103A40002A30212B0ED1A36963B12046FFF783FDF5
:103A50000023E361A369204604F5D5715B68BDE8E6
:103A6000F0411847BDE8F081380901084309010811
:103A70004C09010851090108034BC1B21B681A68BF
:103A800018461268104700BF342B002003F0F0BD29
:103A900007B50749D1F8F027D1F8EC37D1F8E81786
:103AA0000091044900F0FAFA03B05DF804FB00BF8E
:103AB00000F0FF1F6C09010804F034BFF7B514488B
:103AC00000F0DAFA134800F0D7FA0025124FEEB2F0
:103AD0003046FFF7EDFC04463046FFF71FFD68B99E
:103AE0003046FFF715FDC3070DD4636938460093D0
:103AF0006168D4E9032300F0BFFA04E03046FFF721
:103B00000DFD0128ECD00135F22DE0D103B0F0BD60
:103B1000750901088C090108A8090108F8B50C49C4
:103B200000F0BCFA00240B4FE6B23046FFF7C0FCB1
:103B300005463046FFF7ECFCC30704D4D5E9011273
:103B4000384600F099FA0134F22CEDD1F8BD00BFEF
:103B5000BB090108DD0901082DE9F04105460024F3
:103B60000A4FE6B23046FFF7A3FCD0F80480304697
:103B7000FFF736FC0134034642463946284600F03A
:103B80008DFAF22CEDD1BDE8F08100BFE709010804
:103B900010B50446FFF794FC2046BDE810400149EB
:103BA00000F07CBAF0090108431E013913F8010F37
:103BB00011F8012F10B10AB19042F7D0801A18BF46
:103BC00001207047013911F8013F0BB903707047AC
:103BD00000F8013BF7E7034600201A5C02B9704782
:103BE0000130FAE70346184613F8012B0AB18A425E
:103BF000F9D17047002970B518DA2D23012400F897
:103C0000013B4942034691FBF2F602FB16113031AB
:103C10001970311E1D4603F10103F4DC00221A70F5
:103C2000024695420AD8241A181904E004D1302318
:103C300041700370012070BD0024E3E711782E78F5
:103C400002F8016B05F80119EBE730B503782D2B6D
:103C500011D14FF0FF34013000210A25431E01E04D
:103C600005FB012113F8012F303AD0B20928F7D90A
:103C700004FB01F030BD0124EEE7000010B5134C49
:103C8000014610F8012BA2F10A03DBB2162B19D85A
:103C900024FA03F3DA07F3D40846FFF79CFF013850
:103CA0000844814204460AD2237801380A3BDBB239
:103CB000162B04D8054A22FA03F3DB07F1D40023BC
:103CC000637001E0002AE7D1084610BD09004000FA
:103CD000002310B5934200D110BD51F8234040F8A5
:103CE00023400133F6E7013A00D2704740F8041B45
:103CF000F9E72DE9F041174682800022013B0E468C
:103D000001608271082B0BD8DFE803F0080E0C1756
:103D1000151A052624000024032513E001238371CE
:103D200002240BE00123837102240025394630462A
:103D300009F026FE06E0012383710124002501E03D
:103D4000002425463B46224629463046BDE8F04140
:103D500009F0DCBD0224DFE701240325E6E770B5A6
:103D60000C1EACBF01234FF0FF335C43013306460A
:103D700008BF2D234FF0640208BF06F8013B611114
:103D800004F01F040546544330460A22FFF732FF71
:103D90002E226411092C3254D8BF302206EB0003C6
:103DA000D8BF5A7021464FF00A02CCBF581C981C4D
:103DB000FFF720FF284670BDF0B503782D2B17D1F3
:103DC0004FF0FF36013000244FF00A0C02E0184695
:103DD0000CFB0454034613F8012BA2F13005EFB29B
:103DE000092FF4D9AAB98C40144406FB04F0F0BDA5
:103DF0000126E8E78B4003EB650393FBF5F30CFB2F
:103E000005F51A4410F8013F303BDFB2092FF1D914
:103E1000E9E70A250022AC46F4E72DE9F047141E35
:103E200005460F4616DC4FF02008DB0720D500269C
:103E3000B94626E00132B95C0029FBD1A242ACBFF1
:103E40000C46A41A13F0020F14BF4FF030084FF0C5
:103E50002008EAE70022EEE72B68494628461B685F
:103E60009847013E002EF7DC24EAE476A41BDFE746
:103E700026465FFA88F9F5E72B6828461B689847BD
:103E8000D146CA461AF8011B0029F5D1A2465FFAAD
:103E900088F8BAF1000F06DCF01B4844002CA8BFDC
:103EA0000019BDE8F0872B68414628461B689847F3
:103EB0000AF1FF3AEDE72DE9FF470746DDE90C8AF5
:103EC00015461C4651B930234246ADF800306946CC
:103ED0005346FFF7A2FF04B0BDE8F08723B10A2ADA
:103EE0002DD100292BDA494200230E9A8DF80D308E
:103EF0003A3A0DF10D03B1FBF5F005FB1016092E52
:103F000088BFB61830368D4203F1FF3903F8016CD3
:103F100017D964B1B8F1000F16D01AF0020F13D000
:103F20003B682D2138461B68984708F1FF385346F7
:103F3000424649463846FFF770FF2044CBE700244D
:103F4000D2E701464B46D6E72D22002409F8012C82
:103F5000A3F10209EBE70846FFF78EBD2DE9F0411A
:103F600007460E46144600254FF00A088CB03378F9
:103F70001BB928460CB0BDE8F081252B72D17378AF
:103F8000002BF6D0252B06F101026AD02D2B0ABF9B
:103F900001230023B21C164612F8011B302915D04C
:103FA0000022304610F8011BA1F1300C5FFA8CFEA4
:103FB000BEF1090F0DD966293FD00ED8632947D02D
:103FC00064291AD058292ED00136D0E743F00203D5
:103FD000E1E7064608FB02C2E3E7752926D0782907
:103FE00019D07329F0D1216822480434002908BF70
:103FF00001463846FFF711FF0BE061202146CDE96D
:104000000130012300920A22384609680434FFF780
:1040100052FF0544D8E721466120CDE901300092E6
:1040200000231022F0E721464120F6E761202146D7
:10403000CDE9013000920023E5E7216808A8CDE929
:1040400004230434FFF78BFEDDE9042308A9D0E73D
:10405000216804348DF81C1000218DF81D1007A96B
:10406000C7E716463B6838461B68317898470135E4
:10407000AAE700BF4A0A01080FB407B504AA52F81C
:10408000041B054B6846CDE90032FFF767FF03B01C
:104090005DF804EB04B07047481001080EB403B596
:1040A00003AA52F8041B0192FFF758FF02B05DF813
:1040B00004EB03B07047000038B52A4C2A4D204667
:1040C00008F0EEFF204608F0F0FF204608F0F7FF6A
:1040D000204608F0EFFF0121204608F0CCFF2046E3
:1040E00008F090FF204608F0A9FF204608F0B9FF2D
:1040F0001E4A0821204608F0E7FF204609F01CF878
:1041000020464FF4602108F08FFF28460121184A0D
:1041100009F0AEFA28460121164A09F0B2FA2846FB
:104120004FF48072012109F05DFA28464FF4806255
:10413000012109F04BFA60222846012109F0B1FA69
:104140002846012109F05AFA2846012109F05FFAB0
:104150002846012109F07AFA2046BDE8384008F0E7
:10416000E1BF00BF0024014000000240882D002074
:104170004C240140C82C0020884205DD914208DC17
:104180009042A8BF10467047904203DC9142A8BFFE
:1041900011460846704737B56D46046804F1300390
:1041A000F03433F8102C33F8201C33F8300CFFF7C0
:1041B000E3FF3033A34225F8020BF2D1BDF8023001
:1041C000BDF800001844BDF804301844BDF80630AE
:1041D0001844C0F38F0003B030BD000008B50D4B8C
:1041E00098420BD003F5806398420BD0A3F500638F
:1041F00098420BD1072909DCC8B208BD012905DCAA
:104200000831F9E7052901DC0A31F5E708F002FF7A
:104210001020F2E7000C0140012370B593400C46DA
:1042200015460022064611469BB2204609F06EFB59
:1042300029462046FFF7D2FF3368034A9B1A034AF8
:10424000C3F34F03D05470BDC82C0020882D00202C
:104250000D4B0E4A991C13600D4A11600D4A191D31
:1042600011600D4A991D11600C4A03F1080111609B
:104270000B4A03F10A0111600A4A03F10C011160B3
:10428000094A0E3313607047C82C0020C42C00204C
:10429000C02C0020BC2C0020B82C0020B42C002006
:1042A000B02C0020AC2C0020A82C0020114A124B6E
:1042B00030B553F8213052F821401946A342A8BF27
:1042C0002146026802F1C8058D4206DBA342B8BF51
:1042D000234603F1C804A24202DD0160002030BD84
:1042E0008A4202DA01600120F9E79A42FBDD0360AD
:1042F000F9E700BFDC2E0020D42E0020012970B584
:1043000016D80C4B53F821500B4B53F82160B54293
:104310000ED0401B0AF014FF0446701B0AF010FF79
:10432000014620460BF014F804490AF05DFF70BD09
:104330000020FCE7DC2E0020D42E00200000C84224
:10434000F8B5264B04461D68014628460BF008F9CF
:1043500000B12546224B29461C6820460BF0E2F8A6
:1043600000B12C461F4D21462E6830460BF0E4F874
:1043700098B1002120460BF0F3F860B11A4B30469B
:1043800019680AF029FE214606460BF0E9F800B14B
:10439000264634461EE0154BF1E7002720463946F5
:1043A0000BF0D4F8B0B9394630460BF0D9F800B16B
:1043B0002F602E68214630460BF0B4F850B90B4BF5
:1043C000304619680AF006FE214606460BF0AAF8A8
:1043D0000028DED020462C60F8BD00BFAC2E0020A7
:1043E000A42E0020742E0020982E00209C2E002049
:1043F00038B5114A114B1468196804FA01F30344E3
:104400001B1B0B4113600E4A1068C01A0AF098FE7D
:104410000C4B19680AF0E8FE0B4904460BF0A0F8B3
:1044200000B1094C094B21461D6828460BF098F84D
:1044300000B92546284638BDB02E0020B42E0020F5
:10444000BC2E0020B82E00200000C842C02E002044
:10445000F8B5054686200F461646FEF7C7FF3946D3
:10446000044628460BF068F8E8B94FF0804138461A
:104470000AF0B2FD29460BF073F8B0B1A1B2862064
:1044800041F01001FEF7D2FF114C3568002128469B
:104490000BF05CF858B1214628460BF043F800B900
:1044A00025462F460BE00B4CEFE70024EDE704F127
:1044B0000047394628460BF053F80028F1D1204632
:1044C000044937600BF02EF8003818BF0120F8BD02
:1044D000000048420000C8422DE9F843044623206A
:1044E0000E46FEF78BFF2F4FDFF8BC80386024208C
:1044F000FEF784FFC8F800008620FEF777FFD7F8A4
:1045000000900546002148460BF02AF838B30021F8
:1045100020680BF01BF8254FADB210B3494630466A
:104520000AF058FD22490AF05FFE002106460AF013
:10453000F9FF00B100263E60314620680BF010F80C
:1045400020B1862045F00101FEF770FF26683D6826
:10455000304629460AF0E6FF00B135462560BDE841
:10456000F8833046D8F800100AF034FD10490AF0FC
:104570003BFE002106460AF0F3FF00B100263E6034
:10458000314620680AF0CEFF20B1862045F00201B6
:10459000FEF74CFF26683D68304629460AF0E0FFEA
:1045A000DAE700BF942E0020902E00207C2E002001
:1045B000000060402DE9F8430D46354E354904466C
:1045C00030680AF011FE29460AF006FD4FF07651D8
:1045D0000AF00AFE30602520FEF710FF2E4FDFF8AC
:1045E000BC8038602620FEF709FFC8F8000086204E
:1045F000FEF7FCFED7F800900546002148460AF079
:10460000AFFF28B3002120680AF0A0FF3668244FCE
:10461000ADB2F8B1314648460AF0DCFC002106464E
:104620000AF080FF00B100263E60314620680AF0A3
:1046300097FF20B1862045F00801FEF7F7FE2668B7
:104640003D68304629460AF06DFF00B135462560C9
:10465000BDE8F8833046D8F800100AF0BDFC002110
:1046600006460AF07DFF00B100263E603146206814
:104670000AF058FF20B1862045F00401FEF7D6FE6F
:1046800026683D68304629460AF06AFFDDE700BF2C
:10469000942D002000007041882E00208C2E0020D8
:1046A000782E0020104B70B51A68066801EB0214D2
:1046B000A41A24110546002130461C600AF050FF60
:1046C00088B10A4B1B681B1B48BF03339B1023EAAE
:1046D000E3700AF035FD0446014630460AF040FF1B
:1046E00000B126462E6070BD902D0020842E002043
:1046F000F8B50D4A054613780C4F0133DBB2322B67
:1047000028BF00230A4E386856F8231013701C4641
:104710000AF060FC29460AF05FFC0649386046F85A
:1047200024500AF015FEF8BD982D0020642E0020BC
:104730009C2D0020000048422DE9F04F054685B031
:104740009C2090460E46FEF751FE0446A920FEF737
:104750004DFE0746AB20FEF749FE029084EAE47066
:10476000A0EBE4700AF0ECFCDFF85CA28346DAF818
:10477000004021460AF02EFC002101900AF0D2FEF2
:10478000019B08B103F10043904A1946D2F800900A
:1047900048460AF0C7FE50B1214658460AF0E0FEEE
:1047A0004946002848D020460AF016FC8346029B62
:1047B000CAF800B0002B00F0FE8058460AF0F0FE68
:1047C0000446B8F1000F3BD0632840F3F480804BDF
:1047D0001D680AF0B5FC29460AF0A4FE002840F046
:1047E000EA8028460AF0DCFE7A4B054618680AF093
:1047F000D7FE794B641B444318680AF0D1FE401B76
:1048000094FBF0F00AF09CFC744B05461860744B66
:1048100018680AF0C5FE5023784390FBF3F00AF0C5
:104820008FFC0446014628460AF07CFE00B12C4667
:10483000204605B0BDE8F08F20460AF0CBFBB5E777
:1048400031462846FFF75AFD664B05461E6801466D
:1048500030460AF085FE00285BD1314628460AF032
:10486000B9FB3146054660480AF0B4FB01465E4894
:104870000AF06EFD29460AF0B7FC05465B4B284658
:104880001D60FFF735FF0146064628460AF0A2FBE9
:10489000574907460AF046FE30B94FF07E51384678
:1048A0000AF05EFE00B93546632C4C4E0BDD204607
:1048B0000AF046FCDFF818A10390DAF800703946D8
:1048C0000AF030FE38B300233360029B012B64D121
:1048D000484930680AF088FC04464649464B186847
:1048E0000AF082FC21460AF075FB29460AF07CFC9E
:1048F0003D490AF02DFD21460AF06EFB0AF064F8EE
:104900002FA3D3E900230AF0B7F80AF00FFB0446FF
:104910008EE70025B2E7DFF8C0B0DFF8B890DBF82B
:10492000003003981946D9F8008001930AF0FAFD87
:1049300080B338460AF034FE074640460AF030FE9F
:10494000E31B03FB00F801980AF02AFEC01B98FB4A
:10495000F0F00AF0F5FB3060C220FEF747FD0028BA
:10496000B3D0DAF800000AF01BFED9F800100746B1
:1049700008460AF031FB0AF013FEE41B4443DBF85F
:1049800000000AF00DFEC01B94FBF0F00AF0D8FB0B
:1049900030609AE7C6F8008097E72220FEF726FDF0
:1049A00008B900233360134930680AF01DFC11492F
:1049B0000446124B93E700243AE700BFAFF30080B0
:1049C0009A9999999999B93F702E0020802E0020CC
:1049D000CC2E0020C82E0020D02E00206C2E0020CF
:1049E000C42E0020A02E00200000C842682E002007
:1049F000000080BF00002041AC2E0020A82E002027
:104A0000024B00BF013BFCD1704700BF00127A008F
:104A100010B50446002240F2215102F02AF800228B
:104A200040F22251204602F024F8002240F22351A5
:104A3000204602F01EF8002240F22451204602F0E7
:104A400018F8002240F22551204602F012F8002208
:104A500040F22651204602F00CF8002240F2275185
:104A6000204602F006F82046BDE8104000224FF430
:104A7000A56101F0FEBF0000002313B5054A40F216
:104A80001141CDE9002303686A465C680823A0470A
:104A900002B010BD340001003222002313B5CDE96D
:104AA000002303686A465C6840F211410823A0476E
:104AB00002B010BD002313B5054A40F21141CDE903
:104AC000002303686A465C680823A04702B010BD53
:104AD000340101002DE9F7430026174B04461E70F0
:104AE0002025FFF7C9FF4FF04209FFF789FF4FF478
:104AF000C848236801966A4640F2114120465F6823
:104B00008DF8005008238DF80190ADF80280013532
:104B1000B847EDB22046FFF773FFFFF7BDFFFFF781
:104B20006FFF292DE5D12046FFF7C4FFFFF768FF8F
:104B300003B0BDE8F08300BF601E0020D0F8022063
:104B4000014B1A60704700BF002F0020D0F80220F0
:104B5000014B1A60704700BFF02E0020D0F80220F1
:104B6000014B1A60704700BFEC2E0020D0F80220E5
:104B7000014B1A60704700BFE82E0020054A1388D9
:104B8000013313800A22D0F8023093FBF2F3024A79
:104B900013607047042F0020E42E0020D0F802207C
:104BA000014B1A60704700BFF82E0020D0F8022099
:104BB000014B1A60704700BFFC2E0020D0F8022085
:104BC000014B1A60704700BFF42E002003466FF4BB
:104BD000A46213440846072B15D8DFE803F0040647
:104BE000080A0C0E1012FFF7A9BFFFF7AFBFFFF7BF
:104BF000B5BFFFF7BBBFFFF7C1BFFFF7CFBFFFF7E1
:104C0000D5BFFFF7DBBF7047016170478161704717
:104C1000007A7047007A70470C4B1B688BB90C4BBD
:104C20001B6883B90B4B1B68003B18BF01235B005B
:104C3000094A1268003A18BF0122427742EA03008B
:104C400070470823F4E70423F2E700BF0C2F00208D
:104C5000102F0020082F00201C2F0020002343725B
:104C60007047C37A01200B70704710B504460022CC
:104C7000616008464FF4987101F0FBFE00224FF48A
:104C8000CA71606801F0F5FE00224FF4CC716068D3
:104C900001F0EFFE60680022BDE810404FF4CF71D4
:104CA00001F0E7BE10B404686468A44610BC604715
:104CB0004CF6F10313B5ADF80030036804465B6BA6
:104CC0009847A0B9FF237F21F1228DF802300023FD
:104CD0008DF803108DF804308DF8052006236A4600
:104CE00040F2B3316068FFF7DDFF02B010BD002372
:104CF000F0221946E9E74FF2CD3313B5ADF8003095
:104D0000036804465B6B984700280CBF0923002307
:104D10008DF80230FF238DF803304FF0FF336A46E1
:104D200001934FF46D7108236068FFF7BBFF02B079
:104D300010BD00002DE9F7430546D0F81090AA20D9
:104D4000FEF754FB374E2B68376880465B6B28466E
:104D5000BCB29847002858D040F2E5304845B8BF6B
:104D60004846800080B209F01DFE00222E4B09F05B
:104D7000ADFF0AF0BBF81FFA88F3C3EBC31203EBD5
:104D8000021203EB82036422DB009BB2B3FBF2F25C
:104D9000B3F5FA7F5FFA82F85FFA80FEC0F307216D
:104DA0003BD3FE204FF0940CC2F30F2204F1AA0370
:104DB0004344134473440B44634403449CB21BB206
:104DC000002BB8BFFF3304EB23238DF800308DF8A0
:104DD00003208DF805106A468DF807000823AA21E4
:104DE00068688DF801708DF802808DF804E08DF808
:104DF00006C0FFF757FF32684E2A02F1010308BFD1
:104E00004023336003B0BDE8F0834FF0F40C01465B
:104E1000864602464FF0FB08C8E7FE204FF0800CA4
:104E20000022C3E7681E00200000F83F4FF6FF7322
:104E300013B5ADF800303C238DF80230036804460A
:104E40005B6B984798B90146FC220F238DF803004D
:104E50008DF804108DF805208DF806306A4607237A
:104E60004FF4DB716068FFF71DFF02B010BD022038
:104E70009621F0222623E9E7002307B5064A4FF4DE
:104E80004271CDE90023406808236A46FFF70AFF14
:104E900003B05DF804FB00BF5401400013B50446A5
:104EA000F120FEF7A3FA00220A4B8DF804200093AC
:104EB000C3B29B1A18BF0123ADF806208DF8053048
:104EC0006A46082340F28A216068FFF7EBFE02B0D1
:104ED00010BD00BF9001B80B10B50A4B04461B78FB
:104EE0000BB1FFF7A3FF637A0BB901236372236849
:104EF00020465B6B984720B12046BDE81040FFF785
:104F0000CDBF10BD202F002073B506468D20FEF7C3
:104F100075FA3B490AF060F83A4904460AF020FB6A
:104F2000002847D120460AF03BFB5D234FF4FA727C
:104F3000434393FBF2F303F132000AF001F93249E3
:104F40000AF04AF88E23314C8DF800300AF04EFBFF
:104F500023782F4D8DF80230CE238DF80330FF23B8
:104F60008DF804302B786A468DF8053048F2FD4301
:104F70004FF4E8718DF80100ADF806307068082331
:104F8000FFF790FE234B1A68032A01BF60222270AC
:104F900002221A60204B2278196869B1012910D0C9
:104FA0001E4B2A781968042911D8DFE801F00C1C7F
:104FB0001E2022001A48C5E70132227001221A6021
:104FC000EEE70022FBE701322A7001221A60237803
:104FD0006F2B10D1602323702B78FF2B04BF00238D
:104FE0002B7002B070BD0222F0E70322EEE704222C
:104FF000ECE70022EAE70F2BEED10023EBE700BF3E
:105000000000C84200400344000040423A2F002004
:10501000392F0020242F0020342F0020302F002093
:1050200000004B4337B54FF0FF3504460A4B6A4644
:10503000CDE9003540F2924108234068FFF732FE87
:10504000064B6A46CDE900354FF49361082360684A
:10505000FFF728FE03B030BD1642FFFF2242FFFFDC
:1050600037B5134B134C1B7822788DF80030124B58
:105070008DF803201B78114A8DF80130FF23127838
:1050800040688DF804208DF805308DF802300368F3
:105090006A465D684FF4E9710623A8472378103308
:1050A000DBB2EC2B08BF0C23237003B030BD00BF74
:1050B0006F1E0020711E00206E1E00206D1E00203D
:1050C0004FF0FF3307B5064A40F2DE41CDE9002339
:1050D000406808236A46FFF7E5FD03B05DF804FB6E
:1050E0000042FD014FF0FF3307B5064A40F29251EE
:1050F000CDE90023406808236A46FFF7D3FD03B0DB
:105100005DF804FB402200314FF0FF3307B5064A3B
:1051100040F29251CDE90023406808236A46FFF728
:10512000C1FD03B05DF804FB402200304FF0FF33B7
:1051300007B5064A40F29251CDE9002340680823A2
:105140006A46FFF7AFFD03B05DF804FB40E50031B0
:105150004FF0FF3307B5064A40F29251CDE90023E4
:10516000406808236A46FFF79DFD03B05DF804FB25
:105170004014FF304FF0FF3307B5064A40F292511A
:10518000CDE90023406808236A46FFF78BFD03B092
:105190005DF804FB4027003137B50446AC20FEF72C
:1051A0002DF91B4905460AF0BDF900B1184D2846F6
:1051B0000AF0F6F94FF47A72A0F10A03534346223B
:1051C00093FBF2F3A3F5CB50043809F0B9FF114972
:1051D00000F100400AF0BCF80AF008FA822340F21D
:1051E00032318DF804008DF805306068022301AA81
:1051F000FFF758FD284608490AF0B2F928B12046C1
:10520000FFF7B8FF2046FFF76DFF03B030BD00BFCA
:105210000000204100004842000070420023064A7E
:105220001360064A1360064A1360064A1360064A72
:105230001360064A136070471C2F0020182F0020AF
:10524000142F0020102F00200C2F0020082F0020EA
:10525000B1F5CC7F70B5044600F08E8006DCB1F568
:10526000987F09D0B1F5CA7F4FD070BDB1F5CF7F1F
:10527000FBD1A92091795AE11378AF49452B1ED172
:105280000D682DB1012DF0D1FFF73EFF2572ECE73F
:10529000FFF728FF0322A94B20461A70E122A84BF2
:1052A00025721A700F22A74BE5721A70F022A64BD6
:1052B0001A70A64B1D60BDE87040FFF7AFBF552BBD
:1052C000A34A04D101230B6003231360CDE700231D
:1052D0000B6011680372022902BF9E4913600B70B4
:1052E0000321964AC3721170E121954A11700F2172
:1052F000944A1170F021944A1170944A1360FFF798
:105300008DFFBDE87040FFF723BF1368924A6FF32B
:105310000F03934229D010D813F1607F06D0A2F575
:1053200080329342A1D101228C4B1A6000238C4A17
:1053300013608C4A13608C4AC7E713F15C7F09D075
:1053400013F1507F91D100230121854A1360854AD2
:105350001160F0E70023814A1360814A1360814A9B
:1053600013600122804B1A607FE701237B4A1360A0
:105370007B4A13600023DCE713687C4A23F0FF03B9
:10538000934200F082803AD8A2F53432934200F082
:105390009C801CD8A2F5F032934200F0AD8002F55B
:1053A000704293427FF461AF01212F20FEF73EF857
:1053B00000211220FEF73AF803230622E3725F4B26
:1053C0001A7078225E4B1A706F225E4B8FE0684A2B
:1053D000934267D002F5704293427FF446AF0121B9
:1053E000564A00231170B421554AE37211700F21FF
:1053F000544A1170F021544A1170544A65E75D4ACD
:1054000093425BD024D802F17B4202F534329342BE
:10541000E5D002F5704293427FF427AF02212F209E
:10542000FEF704F803211220FEF700F8AB20FDF789
:10543000DDFF013003D100212F20FDF7F7FF0F2200
:10544000404B1A70F022404B1A7000223F4B8AE703
:10545000494A934219D002F5F03293427FF405AFE6
:1054600000250321C5721220FDF7E0FF0322334B14
:105470001A70E122324B1A700F22324B1A70F0224E
:10548000314B1A70314B1D60EFE600212F20FDF7E4
:10549000CDFF01230222E372284B1A70D222284B3F
:1054A0001A70CCE702212F20FDF7C0FF032308224A
:1054B000E372224B1A707822214BF1E702212F2050
:1054C000FDF7B4FF03211220EEE700212F20FDF7A6
:1054D000ADFF00211220FDF7A9FF03230522E3728F
:1054E000164B1A707822164B1A705F22154B1A70E1
:1054F000F222154B1A70B8E6144E3568002D7FF471
:10550000B4AE02212F20FDF791FF03230822E3729E
:105510000A4B29461A707822094B12201A700F2262
:10552000084B1A70F122084B1A7001233360BDE852
:105530007040FDF77BBF00BF282F00206C1E0020AD
:105540006F1E00206E1E00206D1E00202C2F0020DC
:10555000242F00203A2F0020000082FC1C2F002066
:10556000102F00200C2F0020082F00200020CDC07D
:105570000040CBC00040CBC50020CDC500000000DE
:1055800013B50446B220FDF731FF6061C220FDF77C
:1055900043FF78BB606909F005FA1DA3D3E9002336
:1055A00009F06AFA09F0A2FC40F6F91283B25343FB
:1055B000A322B3FBF2F31A4903F520420968DBB2D8
:1055C000C2F30722E9B101290CBFFD20FC208DF8B0
:1055D000003000238DF801208DF802008DF8033093
:1055E00001936A4608234FF400716068FFF75AFB85
:1055F00002B010BD606909F0D5F907A3D3E9002313
:10560000CEE7FC2080220B46E1E700BFAFF300802D
:10561000EE8D960DAF47803F9573522D5CB5903F50
:105620001C2F002010B5184B04461B78F3B1FFF770
:1056300017FD2046FFF744FD2046FFF7ADFD20464D
:10564000FFF7F0FC2046FFF79BFF2046FFF75CFCCE
:105650002046FFF72DFB2046FFF74DFB9020FDF77E
:10566000C5FE0E2820460BDCFFF760FD23682046B0
:105670005B6B984738B12046BDE81040FFF7FCBB94
:10568000FFF766FDF2E710BD202F00202DE9F7435C
:10569000444B454C05468946187821788DF8000022
:1056A00043180F2003F2B72202EB1223ADF80200D9
:1056B0008DF805300020EF23FF278DF804008DF8CA
:1056C000061068688DF807306A460823BA218DF8FD
:1056D0000170FFF7E7FA2378344E0133DBB28F2BEA
:1056E00008BF802323702B68D6F8008028465B6BA8
:1056F0001FFA88F49847002852D0B9F1000F0CBF68
:10570000022062203A4604F59573034403EB4203FA
:1057100099B21BB2002BB8BFFF3301EB23238DF8E6
:10572000003070238DF803300F238DF805300323EC
:10573000D2B28DF802208DF804208DF806306A462A
:105740008DF8070008236868A8218DF80180FFF70D
:10575000A9FA3268164C7E2A02F1010308BF7023B1
:1057600033602378A9218DF8013003F20F3249F616
:10577000A373ADF802300F4B02EB12228DF800201C
:1057800001936A4608236868FFF78CFA237801338F
:10579000DBB20F2B08BF0023237003B0BDE8F083FA
:1057A000FE22B0E76C1E0020701E0020641E002048
:1057B000382F002019CC3F0038B50446BB20FDF738
:1057C00015FE154D236828705B6B204698472B7893
:1057D000A3B90023114A1360114A1168022902D1AA
:1057E000104913600B70032223720F4B1A70E122D1
:1057F0000E4B1A700F220E4B1A700CE02046FFF76A
:1058000099FAB620FDF708FE01462046FFF73EFF55
:105810002B78002BDDD038BD202F0020282F002032
:10582000242F00203A2F00206C1E00206F1E002025
:105830006E1E00204069704708B5B0F9080009F0F5
:105840007FFC08BD08B5B0F90C0009F079FC08BD73
:10585000014B1878704700BFCC2F002000000000DB
:1058600038B51D48FEF797FC05461C48FEF793FC2B
:105870000446284609F096F813A3D3E9002309F05B
:10588000FBF813A3D3E9002308F040FF09F04EFB17
:105890000546204609F086F80BA3D3E9002309F05A
:1058A000EBF80BA3D3E9002308F030FF09F03EFB2F
:1058B00004460146284609F053FE00B12C46204616
:1058C00038BD00BFAFF300801213371BE91495BF3A
:1058D000988F7B2556484C40C02C0020BC2C0020C3
:1058E00070B506460D461A4C0721204607F044FEC7
:1058F00020460721174A07F0BBFE32462046072103
:1059000007F0BFFEAAB22046072107F0CAFE2046D4
:10591000072107F092FE2046072107F06FFE204680
:105920000022072107F05EFE20460022072107F033
:105930004DFE20464FF48052072107F03BFE2046E3
:10594000072107F083FEBDE87040034808F0B8BCAB
:1059500000000240044400400044004038B50546C1
:10596000194C0621204607F007FE20460621174A5B
:1059700007F07EFE20460621154A07F082FEAAB2F5
:105980002046062107F08DFE2046062107F04CFE3A
:105990002046062107F032FE20460022062107F0AD
:1059A00021FE20460022062107F010FE204600229C
:1059B000062107F0FFFD2046062107F047FEBDE85F
:1059C0003840044808F077BC00000240044400401E
:1059D0003B2F00200044004008B5034699889B797E
:1059E00000682BB107F0D1FFB0FA80F0400908BD84
:1059F00007F0CBFF003818BF0120F8E770B5044668
:105A00002F20FDF7F3FC00B20228E0812BD1B62055
:105A1000FDF7ECFC2C492D4B40B1B4F90C20C82A01
:105A200004DD0A78E28100221A7070BD0A782848E5
:105A3000002A33D141F28835B4F90C60AE4201DD61
:105A4000012505700078824239D001221A70214A5E
:105A500092F90050204A15B915780135157015785E
:105A6000042D25D1E081B4F90E30012B08D11B485B
:105A7000FBF704FF1A48FBF701FF1A48FBF7FEFE8D
:105A8000B4F90E30002BD0D11448FBF7F7FE1448C0
:105A9000FBF7F0FE1348FBF7EDFEC6E7012AD1D174
:105AA00040F2DB55B4F90C60AE42CBDC0025C8E710
:105AB000052DD8D10870002111701970D3E7E2814B
:105AC00000221A70CFE700BFC92F0020CB2F002083
:105AD000C82F0020CA2F0020C72F0020B82B00207D
:105AE000B02B0020A82B00202DE9F84305461220FA
:105AF0008846FDF77BFCC4B2B620FDF777FC5E4B11
:105B000081461B78012B5AD15C4F2846FFF776FF60
:105B100097F90060304609F013FB414609F064FB39
:105B200008F052FF52A3D3E9002308F0A5FF09F0C3
:105B3000FDF95349804609F057FB524909F008FC2A
:105B400009F02EFD2862B9F1000F06D0B5F90C302E
:105B5000B3F5167FBCBF00232B622A6A4A4913B2F1
:105B60000B8013EB8303494D48BF03339B102B80FD
:105B7000474B197841B1002E06DD053E76B2002E66
:105B8000B6BF00233E703B7097F90030632B00DCFA
:105B900029B1032C11D8DFE804F0090D0B570533A8
:105BA0005BB2642BC8BF64233B70F2E7002A04DABF
:105BB000364B00E0344B00221A80BDE8F883022BFC
:105BC0001ED12F49404609F00FFB2E4909F0C0FBBA
:105BD00009F0E6FC2C4A03B2138013EB83032B4934
:105BE00048BF03339B1028620B800CB90028DEE706
:105BF000012C02D100231380DFE7022CDDD1D7E78F
:105C0000032BDAD11E49404609F0EEFA1D4909F08E
:105C10009FFB09F0C5FC1C4A03B2138013EB8303FE
:105C2000286248BF0333194D9B102B80032CC4D826
:105C300001A353F824F000BFED5B0008B55B00083A
:105C4000B15B0008495C00084046124909F088FC35
:105C500008B92880B1E7404609F0A2FC41F21713C9
:105C600032385843322390FBF3F0F2E7AFF3008071
:105C70007B14AE47E17A843FD72F0020CA2F002043
:105C800000C05A450000C842CE2F0020D02F00206F
:105C9000CB2F00200000484210B58120FDF7A6FB65
:105CA00008B902F00BFD8120FDF7A0FB012848D1C7
:105CB0003020FDF79BFB80B202F000FD2148FFF78A
:105CC0008BFE80F00101C9B2BD20FDF7AFFB1E487D
:105CD000FFF782FE80F00101C9B2BE20FDF7A6FBEE
:105CE0001A48FFF779FE80F00101C9B2BF20FDF725
:105CF0009DFB1648FFF770FE04461348FFF76CFE45
:105D000084F0010380F0010464000E4844EA830437
:105D1000FFF762FE64B280F0010044EA00035BB268
:105D20000B4C062B237003D10021C220FDF77EFB14
:105D30002378052B05D1BDE810400121C220FDF7D5
:105D400075BB10BD782C0020702C0020682C002022
:105D5000D22F0020034B1B78012B01D1FFF79CBFF2
:105D6000704700BFD72F002000220B4870B51346A4
:105D700005468C1E944209DC294411F8012C285D4B
:105D800040EA0220C31A5842584170BD10F8016B16
:105D9000013233449BB2EDE73B2F0020002070B569
:105DA000084C034622468D1E854205DC53550A44A5
:105DB0001B0A02F8013C70BD14F8016B013033443A
:105DC0009BB2F1E7A4230020F8B5B64D04462B782A
:105DD0000E2B3ED8DFE813F00F0016003B003E000C
:105DE0007600BB00BD00DC00DE000A0180018C01F2
:105DF000A501A701D6016420FFF7B0FDAA48FBF773
:105E00003DFD1EE0A94CA848FBF734FD23787BB983
:105E100002220721A64807F0C4FB90B10721022205
:105E2000A34807F0B9FB5021A248FFF759FD08E04D
:105E30005021A148FFF754FDA04B5B7823B9012303
:105E400023702B78013303E02378013BF8E7032329
:105E50002B70F8BD6421FFF787FF984E984F38B933
:105E60000021B2206181A1813970FDF7DFFA23E0C2
:105E7000022206218E4807F094FB0028F0D002226F
:105E800006218B4807F088FB01233B70B6F852309F
:105E9000053B03EBD3735B10238196F92A0009F0CD
:105EA0004FF9606196F9560009F04AF9F388A0614C
:105EB0006381B6F81F30A381002386F8623086F82C
:105EC0006330BEE77F4E9E20B6F90010FDF7AEFAB4
:105ED0006189A289774B0A44712112B292FBF1F2D7
:105EE00079491A70B1F900200978880083F84B00CD
:105EF00090115242C2F307229A711A7332884942B2
:105F0000120ADA7683F82120782283F83F20EC22E7
:105F100083F840206C2283F841206B22C9B259716A
:105F2000D972317883F84C00997683F82010204696
:105F3000502183F84220FFF731FF644A1388642B15
:105F40008EBF002301339BB21380002380E77820AB
:105F500052E7564C5448FBF78DFC2378052B0ED99D
:105F600002220721524807F01CFB00283FF469AFCA
:105F7000072102224E4807F00FFB642154E76421F9
:105F8000534801FB0300FFF7ABFC2378013357E7CD
:105F900008235DE77821FFF7E7FE484E484F0028C9
:105FA0003FF45EAF02220621414807F0FAFA0028CA
:105FB0003FF456AF022206213D4807F0EDFA0123D7
:105FC0003B70B6F86430053B03EBD3735B10238161
:105FD00096F9140009F0B4F86061B6F8560009F0BB
:105FE000AFF8F388A0616381F38C64E7354E9E209F
:105FF000B6F90010FDF71AFA334A2E4B1178527891
:10600000307859719A71D9721A733188B6F90020B3
:10601000266A090A002E9877D97738DD02EBD2720A
:1060200052101A77C2F307229876D9765A777521DB
:1060300083F84A10122183F84B106021402283F824
:106040004C10252183F84820042283F84D1052215A
:1060500083F8492083F84F20892283F84E101D4988
:1060600083F8562083F858200A7820460132D2B2AD
:106070000A70D20748BF93F85E204FF0640144BF16
:10608000013283F85E20FFF789FE0523E0E6CED0DB
:1060900002EBD27252109A76C2F307221877597720
:1060A000DA76C4E7D62F0020682B00200D240020CC
:1060B00000000240A4230020991101083B2F00207A
:1060C000CC2F0020CE2F0020D02F0020D42F002056
:1060D000E8200020D32F00208120FDF787F9012838
:1060E0001CBF00223F4B4FF08C0018BF1A7083E694
:1060F0003C4C3D48FBF7BEFB2378062B0ED9022211
:1061000007213A4807F04DFA00283FF49AAE0721DC
:106110000222364807F040FA692185E669213448B1
:106120002FE70D2394E68C21FFF71EFE314E08B3B6
:10613000022206212D4807F034FAD8B102220621A6
:106140002A4807F029FA012333702B4EB6F8753030
:106150005B10238196F9140008F0F2FF6061B6F835
:10616000190008F0EDFF7389A0616381B6F82B3048
:10617000A38166E60021B2206181A1813170FDF723
:1061800055F95EE61D4E9E20B6F90010FDF74EF95A
:106190001B4B2046B3F900201A4B5242D1B2C2F336
:1061A00007229A711A73B6F900205971DA77121220
:1061B00083F820209A7ED97283F82520DA7E69211F
:1061C00083F82620782283F84F20EC2283F8502091
:1061D000102283F85120272283F85220FFF7DEFD9A
:1061E0000A2335E60D240020682B00200000024021
:1061F000721E0020CC2F00203B2F0020CE2F00202D
:10620000D02F0020A423002038B5037F04468B4202
:106210000D460AD051B16120FDF7E8F808B9FCF746
:1062200089FEFCF7BDFE0123237738BD4FF0804087
:1062300007F086FE2577F8E708B50121FFF7E4FFB0
:106240000B4B1A78042A04D805221A700022094B35
:106250001A7000230849094A11F8010B0133642B15
:1062600002F8010BF8D10222054B1A7008BD00BFDD
:10627000D62F00200D240020CC100108A4230020DC
:10628000D72F002008B50121FFF7BEFF064B1A7873
:10629000042A04D900221A700122044B1A70012228
:1062A000034B1A7008BD00BFD62F00200D2400201C
:1062B000D72F0020012108B5FFF7A6FF0A4B0B4995
:1062C0001A78092A9CBF0A221A700022084B1A70F9
:1062D0006923084A11F8010B013B02F8010BF9D1BF
:1062E0000322054B1A7008BDD62F0020301101087B
:1062F0000D240020A4230020D72F00200021FFF729
:1063000083BF01817047000008B5084609F048F9CD
:10631000A622A0F10F035343412293FBF2F3024A5A
:106320005833138008BD00BFD82F0020B520FDF7DB
:1063300073B810B5044600226160084640F253115C
:1063400000F097FB60680022BDE8104040F2F311B6
:1063500000F08FBB40F25313994210B5044610D1A0
:10636000B2F80100A0F5B07008F0EAFE4FF07651E7
:1063700008F03AFF01469D20FDF766F80123E3721D
:1063800003E040F2F3139942F8D010BD10B5044673
:10639000C07A10B90348FFF71FFB00232073E37294
:1063A00010BD00BFA02C002008B50248FFF714FB69
:1063B00008BD00BFA02C002007B540F2EE220389E3
:1063C00040F21631934238BF13460522ADF8002043
:1063D00041F65832934228BF13460A229B01B3FB71
:1063E000F2F3ADF8023000236A46019340680823B7
:1063F000FEF758FC03B05DF804FB000007B5154A32
:10640000154913788DF80030144B1B888DF8013036
:10641000C523ADF80230002301930B780133DBB2C2
:10642000162B28BF00230B705BB9112313700823B0
:106430006A4640F229314068FEF734FC03B05DF84B
:1064400004FB082B01D18623F0E70F2BEFD1D923D2
:10645000ECE700BFDC2F0020DD2F0020D82F00202C
:10646000462313B5ADF80430002340688DF806309C
:10647000036840F23B415C6801AA0323A04702B0D5
:1064800010BD000007B50D4A40F245511388406821
:1064900001339BB2138000228DF801301B0A8DF866
:1064A0000230074B8DF800208DF8032001936A46D7
:1064B0000823FEF7F7FB03B05DF804FBDA2F00209A
:1064C0007E10001807B5D1B101291AD001310CBFD7
:1064D000072308238DF801304FF6FF738122ADF8B2
:1064E0000230094B8DF8002001936A46082340F2E0
:1064F0003F414068FEF7D6FB03B05DF804FB06237E
:10650000E8E70523E6E700BF0080FFFF037B10B547
:106510000446BBB1FFF750FF2046FFF76FFF204650
:10652000FFF7B0FF2046FFF79BFF0320FCF774FF47
:1065300040B1AB20FCF75AFF41B22046BDE8104005
:10654000FFF7C0BF10BD018170477047B520FCF751
:1065500063BF000008B5084B186899889B792BB178
:1065600007F013FAB0FA80F0400908BD07F00DFA01
:10657000003818BF0120F8E7A02C002030B51F4AD2
:106580001F4B89B0CDE901231E491F4B1F4CCDE99C
:1065900003131F4B1F4D05930023ADF819302378CB
:1065A0004FF4B06163F07F038DF818302B684068BA
:1065B00020336B4413F81C2C8DF81B2013F8182C77
:1065C0008DF81C2013F8142C8DF81D2013F8102CB6
:1065D00013F80C3C8DF81E208DF81F3006AA0823F6
:1065E000FEF760FB2B68013303F003032B60237875
:1065F000013303F00F03237009B030BD0F287F284B
:106600001E1000107056F0560C48A748DE2F0020D0
:1066100046902890E02F002037B540F2EE22038903
:106620000025934238BF134641F65832934228BFA3
:106630001346044603819A009B09CDE900554FF4A7
:1066400020718DF803308DF8042008236A464068D5
:10665000FEF728FB08236A464FF4227160688DF824
:1066600003508DF80450FEF71DFB03B030BD000051
:1066700008B5034BB3F9000008F062FD08BD00BF88
:10668000F02F002008B5034BB3F9000008F058FDC7
:1066900008BD00BFF22F002008B5024B188808F093
:1066A0004BFD08BDF62F002008B5034BB3F90000E1
:1066B00008F046FD08BD00BFF42F0020064B1A78F5
:1066C000064B0AB91A7001E0012AFBD0044A12688D
:1066D00002B91A7018787047EC2F0020ED2F0020B7
:1066E000E82F002010B504460022616008464FF4F0
:1066F000C87100F0BEF900224FF4CD71606800F05F
:10670000B8F900224FF4D271606800F0B2F9606805
:106710000022BDE810404FF4D77100F0AAB9000084
:106720002DE9F34106460846344908F05DFD08F0BE
:1067300037FF334B01B29E201980FCF777FE812092
:10674000FCF754FE0546B720FCF766FE044618B178
:106750006B1E5C425C41E400B820FCF75DFE18B1A2
:10676000012D04BF1034E4B2B620FCF755FE08B189
:106770000434E4B2012D3AD1224A13881BB1013B03
:1067800002341380E4B2A520FCF730FE0546A620B3
:10679000FCF72CFE8046DF20FCF728FE00F0030704
:1067A000B220FCF723FE184BC5F30B0503EA0833B0
:1067B00045EA04651D43C0F30D0040EA873045EA11
:1067C00087750190009506F0B5FE0221684606F037
:1067D000BFFE019B6A4643EA006370680193036849
:1067E0003F215C680823A04702B0BDE8F081002D7E
:1067F000C9D14FF49672034B1A80C4E700002041C0
:10680000EE2F0020E42F002000F0FF00B1F5D27F32
:1068100006D113880A22B3FBF2F30E4A13807047A5
:10682000B1F5C87F03D112880B4B1A807047B1F5C0
:10683000CD7F08D113880A22B3FBF2F3074A1380F5
:106840000022074BF1E7B1F5D77F02BF1278054B65
:106850001A707047F62F0020F42F0020F22F00202E
:10686000F02F0020EC2F002008B58120FCF7BEFDA2
:10687000074B186058B9074B1880074B1880074B17
:106880001880074B1880074B1870074B188008BDFD
:10689000E82F0020F62F0020F42F0020F22F0020F8
:1068A000F02F0020EC2F0020EE2F002008B5B0F9CB
:1068B000140008F045FC08BD08B5B0F9120008F056
:1068C0003FFC08BD08B5008B08F036FC08BD08B5D4
:1068D000B0F9100008F034FC08BD807D704740F22C
:1068E000992399420FD040F23373994213D040F26A
:1068F0008923994218D15388A3F59C43203B0382F6
:1069000053680383704753781279934238BF134614
:10691000283B438270471268C2F30743D2B29342C6
:1069200038BF1346283B838270470000302337B5B9
:1069300004464068009303686A465D6840F271311E
:106940000823A84760680D4A0D4B40F28521CDE928
:10695000002303686A465D680823A8474FF0745116
:106960004FF404136068CDE9001303686A465C685D
:1069700040F286210823A04703B030BD0000103943
:106980008FFE0C1010B5044600226160084640F2EC
:10699000892100F06EF8002240F29921606800F031
:1069A00068F860680022BDE8104040F2337100F0E2
:1069B00060B8000010B504460846094908F014FC08
:1069C000084908F0C5FC084908F006FB08F00EFE6F
:1069D000E0610146BDE810409E20FCF727BD00BFE6
:1069E0000000FA440000C84200401C4613B5037A78
:1069F0000133DBB2052B02D0037202B010BD0022BE
:106A0000C369027240681B04CDE9003203686A461C
:106A10005C6840F287210823A047EEE7014B036042
:106A2000704700BFD012010870477047074A0260E4
:106A30000022C0F8F420C0F8FC20054AC0E940223A
:106A4000C0E94222C0F81021704700BF08130108B6
:106A500010240020D0F8FC30042BDFBF03F14002EB
:106A6000013340F82210C0F8FC30D4BF01200020D0
:106A70007047D0F8F43070B51D2B15DC05460024A6
:106A8000A3420BDC00EB83046160E2670133C0F8D2
:106A9000F43003689B689847012070BD55F8046F77
:106AA0008E4201D00134EBE70020F6E770B50646D0
:106AB000002456F8FC3BC0F8F4409B680546984714
:106AC000D5F8FC30A34200DC70BD56F8040F013449
:106AD00003685B689847F3E72DE9F04704460E46E4
